{
	"data": {
		"bytecode": {
			"linkReferences": {},
			"object": "608060405234801561000f575f80fd5b50604051615c25380380615c258339818101604052810190610031919061041c565b3360015f819055505f73ffffffffffffffffffffffffffffffffffffffff168173ffffffffffffffffffffffffffffffffffffffff16036100a9575f6040517f1e4fbdf70000000000000000000000000000000000000000000000000000000081526004016100a0919061047b565b60405180910390fd5b6100b8816102c860201b60201c565b505f73ffffffffffffffffffffffffffffffffffffffff168373ffffffffffffffffffffffffffffffffffffffff1603610127576040517f08c379a000000000000000000000000000000000000000000000000000000000815260040161011e906104ee565b60405180910390fd5b5f8211610169576040517f08c379a000000000000000000000000000000000000000000000000000000000815260040161016090610556565b60405180910390fd5b5f81116101ab576040517f08c379a00000000000000000000000000000000000000000000000000000000081526004016101a2906105be565b60405180910390fd5b8260025f6101000a81548173ffffffffffffffffffffffffffffffffffffffff021916908373ffffffffffffffffffffffffffffffffffffffff160217905550816003819055508060058190555060025f9054906101000a900473ffffffffffffffffffffffffffffffffffffffff1673ffffffffffffffffffffffffffffffffffffffff1663313ce5676040518163ffffffff1660e01b8152600401602060405180830381865afa158015610263573d5f803e3d5ffd5b505050506040513d601f19601f820116820180604052508101906102879190610612565b60065f6101000a81548160ff021916908360ff1602179055505f6007819055505f60085f6101000a81548160ff02191690831515021790555050505061063d565b5f60015f9054906101000a900473ffffffffffffffffffffffffffffffffffffffff1690508160015f6101000a81548173ffffffffffffffffffffffffffffffffffffffff021916908373ffffffffffffffffffffffffffffffffffffffff1602179055508173ffffffffffffffffffffffffffffffffffffffff168173ffffffffffffffffffffffffffffffffffffffff167f8be0079c531659141344cd1fd0a4f28419497f9722a3daafe3b4186f6b6457e060405160405180910390a35050565b5f80fd5b5f73ffffffffffffffffffffffffffffffffffffffff82169050919050565b5f6103b88261038f565b9050919050565b6103c8816103ae565b81146103d2575f80fd5b50565b5f815190506103e3816103bf565b92915050565b5f819050919050565b6103fb816103e9565b8114610405575f80fd5b50565b5f81519050610416816103f2565b92915050565b5f805f606084860312156104335761043261038b565b5b5f610440868287016103d5565b935050602061045186828701610408565b925050604061046286828701610408565b9150509250925092565b610475816103ae565b82525050565b5f60208201905061048e5f83018461046c565b92915050565b5f82825260208201905092915050565b7f5a65726f20746f6b656e206164647265737300000000000000000000000000005f82015250565b5f6104d8601283610494565b91506104e3826104a4565b602082019050919050565b5f6020820190508181035f830152610505816104cc565b9050919050565b7f496e76616c696420746f6b656e207072696365000000000000000000000000005f82015250565b5f610540601383610494565b915061054b8261050c565b602082019050919050565b5f6020820190508181035f83015261056d81610534565b9050919050565b7f496e76616c6964206d696e20616d6f756e7400000000000000000000000000005f82015250565b5f6105a8601283610494565b91506105b382610574565b602082019050919050565b5f6020820190508181035f8301526105d58161059c565b9050919050565b5f60ff82169050919050565b6105f1816105dc565b81146105fb575f80fd5b50565b5f8151905061060c816105e8565b92915050565b5f602082840312156106275761062661038b565b5b5f610634848285016105fe565b91505092915050565b6155db8061064a5f395ff3fe60806040526004361061021d575f3560e01c80638da5cb5b11610122578063e5a6d8a4116100aa578063fa770c201161006e578063fa770c20146107b6578063fc0c546a146107f3578063fd2a81e01461081d578063ff332ab714610845578063ffdeb9031461087657610224565b8063e5a6d8a4146106c4578063e86790eb14610700578063ef5a6af01461072a578063f2fde38b14610752578063f7759e851461077a57610224565b8063c940f60e116100f1578063c940f60e146105d1578063d6f904ae146105f9578063d6f9237214610636578063db2e21bc14610672578063dbac26e91461068857610224565b80638da5cb5b1461055f578063b0a2fc1b14610589578063b362ba2f1461059f578063c4ae3168146105bb57610224565b80635c975abb116101a557806362ffb1951161017457806362ffb195146104a3578063715018a6146104cd57806376593d51146104e35780637ad3def21461050d5780637ae506ac1461053557610224565b80635c975abb146103eb5780635ed9ebfc146104155780635f2130d21461043f578063618c506d1461046757610224565b806321bade13116101ec57806321bade13146102f4578063280da6fa14610333578063362b935f146103495780633b97e856146103855780633c3c1439146103af57610224565b806306280b1a146102285780630b54f99814610267578063153b0d1e146102a45780631e07ef96146102cc57610224565b3661022457005b5f80fd5b348015610233575f80fd5b5061024e600480360381019061024991906136e8565b61089e565b60405161025e9493929190613745565b60405180910390f35b348015610272575f80fd5b5061028d600480360381019061028891906138c4565b6108d6565b60405161029b92919061390b565b60405180910390f35b3480156102af575f80fd5b506102ca60048036038101906102c5919061395c565b61091a565b005b3480156102d7575f80fd5b506102f260048036038101906102ed9190613a21565b6109c8565b005b3480156102ff575f80fd5b5061031a600480360381019061031591906136e8565b610af9565b60405161032a9493929190613745565b60405180910390f35b34801561033e575f80fd5b50610347610ba2565b005b348015610354575f80fd5b5061036f600480360381019061036a91906136e8565b610d15565b60405161037c9190613a8d565b60405180910390f35b348015610390575f80fd5b50610399610d45565b6040516103a69190613ac1565b60405180910390f35b3480156103ba575f80fd5b506103d560048036038101906103d091906136e8565b610d57565b6040516103e29190613b3a565b60405180910390f35b3480156103f6575f80fd5b506103ff610df2565b60405161040c9190613b5a565b60405180910390f35b348015610420575f80fd5b50610429610e04565b6040516104369190613b73565b60405180910390f35b34801561044a575f80fd5b5061046560048036038101906104609190613b8c565b610e0a565b005b348015610472575f80fd5b5061048d600480360381019061048891906136e8565b611123565b60405161049a9190613b3a565b60405180910390f35b3480156104ae575f80fd5b506104b76111be565b6040516104c49190613b73565b60405180910390f35b3480156104d8575f80fd5b506104e16111c3565b005b3480156104ee575f80fd5b506104f76111d6565b6040516105049190613b73565b60405180910390f35b348015610518575f80fd5b50610533600480360381019061052e91906136e8565b6111dc565b005b348015610540575f80fd5b5061054961137f565b6040516105569190613b73565b60405180910390f35b34801561056a575f80fd5b50610573611385565b6040516105809190613a8d565b60405180910390f35b348015610594575f80fd5b5061059d6113ad565b005b6105b960048036038101906105b49190613bd7565b611717565b005b3480156105c6575f80fd5b506105cf611e83565b005b3480156105dc575f80fd5b506105f760048036038101906105f29190613c43565b611eb5565b005b348015610604575f80fd5b5061061f600480360381019061061a9190613b8c565b611f40565b60405161062d929190613c6e565b60405180910390f35b348015610641575f80fd5b5061065c600480360381019061065791906138c4565b611fa8565b6040516106699190613a8d565b60405180910390f35b34801561067d575f80fd5b50610686611ff0565b005b348015610693575f80fd5b506106ae60048036038101906106a991906136e8565b6122bc565b6040516106bb9190613b5a565b60405180910390f35b3480156106cf575f80fd5b506106ea60048036038101906106e59190613c95565b6122d9565b6040516106f79190613b5a565b60405180910390f35b34801561070b575f80fd5b5061071461231b565b6040516107219190613b73565b60405180910390f35b348015610735575f80fd5b50610750600480360381019061074b9190613b8c565b612321565b005b34801561075d575f80fd5b50610778600480360381019061077391906136e8565b612828565b005b348015610785575f80fd5b506107a0600480360381019061079b9190613c43565b6128ac565b6040516107ad9190613b73565b60405180910390f35b3480156107c1575f80fd5b506107dc60048036038101906107d791906136e8565b6128c0565b6040516107ea929190613cef565b60405180910390f35b3480156107fe575f80fd5b506108076129f0565b6040516108149190613d78565b60405180910390f35b348015610828575f80fd5b50610843600480360381019061083e9190613b8c565b612a15565b005b348015610850575f80fd5b50610859612b03565b60405161086d989796959493929190613d91565b60405180910390f35b348015610881575f80fd5b5061089c60048036038101906108979190613c43565b612da6565b005b600c602052805f5260405f205f91509050805f015490806001015490806002015490806003015f9054906101000a900460ff16905084565b600e818051602081018201805184825260208301602085012081835280955050505050505f91509050805f015490806001015f9054906101000a900460ff16905082565b610922612e31565b80600d5f8473ffffffffffffffffffffffffffffffffffffffff1673ffffffffffffffffffffffffffffffffffffffff1681526020019081526020015f205f6101000a81548160ff0219169083151502179055508173ffffffffffffffffffffffffffffffffffffffff167f5b7ef9d8e7fd7ff1dae13005391bc3aa7cc048c7ba41af348e5da4dcbe7323e0826040516109bc9190613b5a565b60405180910390a25050565b6109d0612e31565b5f8111610a12576040517f08c379a0000000000000000000000000000000000000000000000000000000008152600401610a0990613e65565b60405180910390fd5b5f8383905011610a57576040517f08c379a0000000000000000000000000000000000000000000000000000000008152600401610a4e90613ecd565b60405180910390fd5b604051806040016040528082815260200160011515815250600e8484604051610a81929190613f19565b90815260200160405180910390205f820151815f01556020820151816001015f6101000a81548160ff0219169083151502179055509050507f1031bb7a1b501870578513e45e918b1f07814b52eab6bbf226eec1457d3b7fd8838383604051610aec93929190613f5d565b60405180910390a1505050565b5f805f805f600c5f8773ffffffffffffffffffffffffffffffffffffffff1673ffffffffffffffffffffffffffffffffffffffff1681526020019081526020015f206040518060800160405290815f82015481526020016001820154815260200160028201548152602001600382015f9054906101000a900460ff1615151515815250509050805f01518160200151826040015183606001519450945094509450509193509193565b610baa612e31565b5f60025f9054906101000a900473ffffffffffffffffffffffffffffffffffffffff1673ffffffffffffffffffffffffffffffffffffffff166370a08231306040518263ffffffff1660e01b8152600401610c059190613a8d565b602060405180830381865afa158015610c20573d5f803e3d5ffd5b505050506040513d601f19601f82011682018060405250810190610c449190613fa1565b90505f8111610c88576040517f08c379a0000000000000000000000000000000000000000000000000000000008152600401610c7f90614016565b60405180910390fd5b610cdb610c93611385565b8260025f9054906101000a900473ffffffffffffffffffffffffffffffffffffffff1673ffffffffffffffffffffffffffffffffffffffff16612eb89092919063ffffffff16565b7f9c6393f251205f9e03559951cab4c9ae71767b6174f77944a5b0c2fa51fbda9f81604051610d0a9190613b73565b60405180910390a150565b600b602052805f5260405f205f915054906101000a900473ffffffffffffffffffffffffffffffffffffffff1681565b60065f9054906101000a900460ff1681565b6010602052805f5260405f205f915090508054610d7390614061565b80601f0160208091040260200160405190810160405280929190818152602001828054610d9f90614061565b8015610dea5780601f10610dc157610100808354040283529160200191610dea565b820191905f5260205f20905b815481529060010190602001808311610dcd57829003601f168201915b505050505081565b60085f9054906101000a900460ff1681565b60045481565b60085f9054906101000a900460ff1615610e59576040517f08c379a0000000000000000000000000000000000000000000000000000000008152600401610e50906140db565b60405180910390fd5b600d5f3373ffffffffffffffffffffffffffffffffffffffff1673ffffffffffffffffffffffffffffffffffffffff1681526020019081526020015f205f9054906101000a900460ff1615610ee3576040517f08c379a0000000000000000000000000000000000000000000000000000000008152600401610eda90614143565b60405180910390fd5b5f8282905011610f28576040517f08c379a0000000000000000000000000000000000000000000000000000000008152600401610f1f906141ab565b60405180910390fd5b5f73ffffffffffffffffffffffffffffffffffffffff16600a8383604051610f51929190613f19565b90815260200160405180910390205f9054906101000a900473ffffffffffffffffffffffffffffffffffffffff1673ffffffffffffffffffffffffffffffffffffffff1603610fd5576040517f08c379a0000000000000000000000000000000000000000000000000000000008152600401610fcc90614213565b60405180910390fd5b3373ffffffffffffffffffffffffffffffffffffffff16600a8383604051610ffe929190613f19565b90815260200160405180910390205f9054906101000a900473ffffffffffffffffffffffffffffffffffffffff1673ffffffffffffffffffffffffffffffffffffffff1603611082576040517f08c379a00000000000000000000000000000000000000000000000000000000081526004016110799061427b565b60405180910390fd5b818160105f3373ffffffffffffffffffffffffffffffffffffffff1673ffffffffffffffffffffffffffffffffffffffff1681526020019081526020015f2091826110ce929190614437565b503373ffffffffffffffffffffffffffffffffffffffff167f194b271ab069318dcceb2b7072a4c72be03e7e20f87d76cc43f3cf2f039681b08383604051611117929190614504565b60405180910390a25050565b6009602052805f5260405f205f91509050805461113f90614061565b80601f016020809104026020016040519081016040528092919081815260200182805461116b90614061565b80156111b65780601f1061118d576101008083540402835291602001916111b6565b820191905f5260205f20905b81548152906001019060200180831161119957829003601f168201915b505050505081565b600581565b6111cb612e31565b6111d45f612f37565b565b60075481565b6111e4612e31565b5f73ffffffffffffffffffffffffffffffffffffffff168173ffffffffffffffffffffffffffffffffffffffff1603611252576040517f08c379a000000000000000000000000000000000000000000000000000000000815260040161124990614570565b60405180910390fd5b8060025f6101000a81548173ffffffffffffffffffffffffffffffffffffffff021916908373ffffffffffffffffffffffffffffffffffffffff16021790555060025f9054906101000a900473ffffffffffffffffffffffffffffffffffffffff1673ffffffffffffffffffffffffffffffffffffffff1663313ce5676040518163ffffffff1660e01b8152600401602060405180830381865afa1580156112fc573d5f803e3d5ffd5b505050506040513d601f19601f8201168201806040525081019061132091906145b8565b60065f6101000a81548160ff021916908360ff1602179055508073ffffffffffffffffffffffffffffffffffffffff167f2f0c7f17be551d1f4566672cd67adbe50173e96632f56ff80d80acc4ac00f32860405160405180910390a250565b60055481565b5f60015f9054906101000a900473ffffffffffffffffffffffffffffffffffffffff16905090565b60085f9054906101000a900460ff16156113fc576040517f08c379a00000000000000000000000000000000000000000000000000000000081526004016113f3906140db565b60405180910390fd5b600d5f3373ffffffffffffffffffffffffffffffffffffffff1673ffffffffffffffffffffffffffffffffffffffff1681526020019081526020015f205f9054906101000a900460ff1615611486576040517f08c379a000000000000000000000000000000000000000000000000000000000815260040161147d90614143565b60405180910390fd5b5f60095f3373ffffffffffffffffffffffffffffffffffffffff1673ffffffffffffffffffffffffffffffffffffffff1681526020019081526020015f2080546114cf90614061565b905014611511576040517f08c379a00000000000000000000000000000000000000000000000000000000081526004016115089061462d565b60405180910390fd5b5f61151a612ffa565b90505f73ffffffffffffffffffffffffffffffffffffffff16600a82604051611543919061467b565b90815260200160405180910390205f9054906101000a900473ffffffffffffffffffffffffffffffffffffffff1673ffffffffffffffffffffffffffffffffffffffff16146115c7576040517f08c379a00000000000000000000000000000000000000000000000000000000081526004016115be906146db565b60405180910390fd5b8060095f3373ffffffffffffffffffffffffffffffffffffffff1673ffffffffffffffffffffffffffffffffffffffff1681526020019081526020015f20908161161191906146f9565b5033600a82604051611623919061467b565b90815260200160405180910390205f6101000a81548173ffffffffffffffffffffffffffffffffffffffff021916908373ffffffffffffffffffffffffffffffffffffffff1602179055506001600c5f3373ffffffffffffffffffffffffffffffffffffffff1673ffffffffffffffffffffffffffffffffffffffff1681526020019081526020015f206003015f6101000a81548160ff0219169083151502179055503373ffffffffffffffffffffffffffffffffffffffff167f86d606287c9d4f3a350b0e6ea78a04d97425fff091713f4a433942578dc6f1618260405161170c9190613b3a565b60405180910390a250565b61171f613154565b60085f9054906101000a900460ff161561176e576040517f08c379a0000000000000000000000000000000000000000000000000000000008152600401611765906140db565b60405180910390fd5b600d5f3373ffffffffffffffffffffffffffffffffffffffff1673ffffffffffffffffffffffffffffffffffffffff1681526020019081526020015f205f9054906101000a900460ff16156117f8576040517f08c379a00000000000000000000000000000000000000000000000000000000081526004016117ef90614143565b60405180910390fd5b5f831161183a576040517f08c379a000000000000000000000000000000000000000000000000000000000815260040161183190614838565b60405180910390fd5b60055434101561184b600554613198565b60405160200161185b9190614910565b604051602081830303815290604052906118ab576040517f08c379a00000000000000000000000000000000000000000000000000000000081526004016118a29190613b3a565b60405180910390fd5b505f6118b6846128ac565b90505f6064826118c69190614996565b90508134101580156118e3575080826118df91906149c6565b3411155b6118ec83613198565b6118f534613198565b604051602001611906929190614ab3565b60405160208183030381529060405290611956576040517f08c379a000000000000000000000000000000000000000000000000000000000815260040161194d9190613b3a565b60405180910390fd5b505f60065f9054906101000a900460ff16600a6119739190614c26565b8661197e9190614c70565b905060025f9054906101000a900473ffffffffffffffffffffffffffffffffffffffff1673ffffffffffffffffffffffffffffffffffffffff166370a08231306040518263ffffffff1660e01b81526004016119da9190613a8d565b602060405180830381865afa1580156119f5573d5f803e3d5ffd5b505050506040513d601f19601f82011682018060405250810190611a199190613fa1565b811115611a5b576040517f08c379a0000000000000000000000000000000000000000000000000000000008152600401611a5290614d21565b60405180910390fd5b5f60065f9054906101000a900460ff16600a611a779190614c26565b87611a829190614c70565b90505f8087511115611c85575f600e88604051611a9f919061467b565b90815260200160405180910390209050806001015f9054906101000a900460ff16611aff576040517f08c379a0000000000000000000000000000000000000000000000000000000008152600401611af690614d89565b60405180910390fd5b600f5f3373ffffffffffffffffffffffffffffffffffffffff1673ffffffffffffffffffffffffffffffffffffffff1681526020019081526020015f2088604051611b4a919061467b565b90815260200160405180910390205f9054906101000a900460ff1615611ba5576040517f08c379a0000000000000000000000000000000000000000000000000000000008152600401611b9c90614df1565b60405180910390fd5b6064815f015484611bb69190614c70565b611bc09190614996565b91506001600f5f3373ffffffffffffffffffffffffffffffffffffffff1673ffffffffffffffffffffffffffffffffffffffff1681526020019081526020015f2089604051611c0f919061467b565b90815260200160405180910390205f6101000a81548160ff0219169083151502179055503373ffffffffffffffffffffffffffffffffffffffff167f41b508f10dbb6e563911eebbf61c7b5dc2e5914a9481917b3cae6c1c4f0369dc8984604051611c7b929190614e0f565b60405180910390a2505b5f8183611c9291906149c6565b9050611ce0338260025f9054906101000a900473ffffffffffffffffffffffffffffffffffffffff1673ffffffffffffffffffffffffffffffffffffffff16612eb89092919063ffffffff16565b60075f815480929190611cf290614e3d565b91905055508860045f828254611d0891906149c6565b92505081905550611d19878a6132f1565b3373ffffffffffffffffffffffffffffffffffffffff167f1194345466e1634be30de2b1f42ff3942b5d68d85cf8776af6dd47f3d45e4fe4348b85604051611d6393929190614e84565b60405180910390a25f611d74611385565b73ffffffffffffffffffffffffffffffffffffffff1634604051611d9790614ee6565b5f6040518083038185875af1925050503d805f8114611dd1576040519150601f19603f3d011682016040523d82523d5f602084013e611dd6565b606091505b5050905080611e1a576040517f08c379a0000000000000000000000000000000000000000000000000000000008152600401611e1190614f44565b60405180910390fd5b611e22611385565b73ffffffffffffffffffffffffffffffffffffffff167f2fd921d3a3bead9530d596890c4b7f7a45db5150ff0090311398140652f5775934604051611e679190613b73565b60405180910390a250505050505050611e7e613566565b505050565b611e8b612e31565b60085f9054906101000a900460ff161560085f6101000a81548160ff021916908315150217905550565b611ebd612e31565b5f8111611eff576040517f08c379a0000000000000000000000000000000000000000000000000000000008152600401611ef690614fac565b60405180910390fd5b806005819055507f6e5d302f0c4dca55e2cfd7ff5ff1aaa9cd23fc83231afc33de77d9e5e635118381604051611f359190613b73565b60405180910390a150565b5f805f600e8585604051611f55929190613f19565b90815260200160405180910390206040518060400160405290815f8201548152602001600182015f9054906101000a900460ff16151515158152505090508060200151815f015192509250509250929050565b600a818051602081018201805184825260208301602085012081835280955050505050505f915054906101000a900473ffffffffffffffffffffffffffffffffffffffff1681565b611ff8612e31565b60085f9054906101000a900460ff16612046576040517f08c379a000000000000000000000000000000000000000000000000000000000815260040161203d90615014565b60405180910390fd5b5f60025f9054906101000a900473ffffffffffffffffffffffffffffffffffffffff1673ffffffffffffffffffffffffffffffffffffffff166370a08231306040518263ffffffff1660e01b81526004016120a19190613a8d565b602060405180830381865afa1580156120bc573d5f803e3d5ffd5b505050506040513d601f19601f820116820180604052508101906120e09190613fa1565b90505f4790505f8211156121b1576121416120f9611385565b8360025f9054906101000a900473ffffffffffffffffffffffffffffffffffffffff1673ffffffffffffffffffffffffffffffffffffffff16612eb89092919063ffffffff16565b60025f9054906101000a900473ffffffffffffffffffffffffffffffffffffffff1673ffffffffffffffffffffffffffffffffffffffff167f5fafa99d0643513820be26656b45130b01e1c03062e1266bf36f88cbd3bd9695836040516121a89190613b73565b60405180910390a25b5f8111156122b8575f6121c2611385565b73ffffffffffffffffffffffffffffffffffffffff16826040516121e590614ee6565b5f6040518083038185875af1925050503d805f811461221f576040519150601f19603f3d011682016040523d82523d5f602084013e612224565b606091505b5050905080612268576040517f08c379a000000000000000000000000000000000000000000000000000000000815260040161225f90614f44565b60405180910390fd5b5f73ffffffffffffffffffffffffffffffffffffffff167f5fafa99d0643513820be26656b45130b01e1c03062e1266bf36f88cbd3bd9695836040516122ae9190613b73565b60405180910390a2505b5050565b600d602052805f5260405f205f915054906101000a900460ff1681565b600f602052815f5260405f20818051602081018201805184825260208301602085012081835280955050505050505f915091509054906101000a900460ff1681565b60035481565b60085f9054906101000a900460ff1615612370576040517f08c379a0000000000000000000000000000000000000000000000000000000008152600401612367906140db565b60405180910390fd5b600d5f3373ffffffffffffffffffffffffffffffffffffffff1673ffffffffffffffffffffffffffffffffffffffff1681526020019081526020015f205f9054906101000a900460ff16156123fa576040517f08c379a00000000000000000000000000000000000000000000000000000000081526004016123f190614143565b60405180910390fd5b5f60095f3373ffffffffffffffffffffffffffffffffffffffff1673ffffffffffffffffffffffffffffffffffffffff1681526020019081526020015f20805461244390614061565b905014612485576040517f08c379a000000000000000000000000000000000000000000000000000000000815260040161247c9061507c565b60405180910390fd5b5f73ffffffffffffffffffffffffffffffffffffffff16600b5f3373ffffffffffffffffffffffffffffffffffffffff1673ffffffffffffffffffffffffffffffffffffffff1681526020019081526020015f205f9054906101000a900473ffffffffffffffffffffffffffffffffffffffff1673ffffffffffffffffffffffffffffffffffffffff161461254f576040517f08c379a0000000000000000000000000000000000000000000000000000000008152600401612546906150e4565b60405180910390fd5b5f600a8383604051612562929190613f19565b90815260200160405180910390205f9054906101000a900473ffffffffffffffffffffffffffffffffffffffff1690505f73ffffffffffffffffffffffffffffffffffffffff168173ffffffffffffffffffffffffffffffffffffffff1603612600576040517f08c379a00000000000000000000000000000000000000000000000000000000081526004016125f790613ecd565b60405180910390fd5b3373ffffffffffffffffffffffffffffffffffffffff168173ffffffffffffffffffffffffffffffffffffffff160361266e576040517f08c379a00000000000000000000000000000000000000000000000000000000081526004016126659061514c565b60405180910390fd5b600c5f8273ffffffffffffffffffffffffffffffffffffffff1673ffffffffffffffffffffffffffffffffffffffff1681526020019081526020015f206003015f9054906101000a900460ff166126fa576040517f08c379a00000000000000000000000000000000000000000000000000000000081526004016126f1906151b4565b60405180910390fd5b80600b5f3373ffffffffffffffffffffffffffffffffffffffff1673ffffffffffffffffffffffffffffffffffffffff1681526020019081526020015f205f6101000a81548173ffffffffffffffffffffffffffffffffffffffff021916908373ffffffffffffffffffffffffffffffffffffffff160217905550600c5f8273ffffffffffffffffffffffffffffffffffffffff1673ffffffffffffffffffffffffffffffffffffffff1681526020019081526020015f205f015f8154809291906127c490614e3d565b91905055508073ffffffffffffffffffffffffffffffffffffffff163373ffffffffffffffffffffffffffffffffffffffff167f5f1ca2fcc108b751843a763e60d2201f593516109d7dbb1b700468f2d4190bb760405160405180910390a3505050565b612830612e31565b5f73ffffffffffffffffffffffffffffffffffffffff168173ffffffffffffffffffffffffffffffffffffffff16036128a0575f6040517f1e4fbdf70000000000000000000000000000000000000000000000000000000081526004016128979190613a8d565b60405180910390fd5b6128a981612f37565b50565b5f6128b98260035461356f565b9050919050565b5f6060600b5f8473ffffffffffffffffffffffffffffffffffffffff1673ffffffffffffffffffffffffffffffffffffffff1681526020019081526020015f205f9054906101000a900473ffffffffffffffffffffffffffffffffffffffff1660105f8573ffffffffffffffffffffffffffffffffffffffff1673ffffffffffffffffffffffffffffffffffffffff1681526020019081526020015f2080805461296990614061565b80601f016020809104026020016040519081016040528092919081815260200182805461299590614061565b80156129e05780601f106129b7576101008083540402835291602001916129e0565b820191905f5260205f20905b8154815290600101906020018083116129c357829003601f168201915b5050505050905091509150915091565b60025f9054906101000a900473ffffffffffffffffffffffffffffffffffffffff1681565b612a1d612e31565b600e8282604051612a2f929190613f19565b90815260200160405180910390206001015f9054906101000a900460ff16612a8c576040517f08c379a0000000000000000000000000000000000000000000000000000000008152600401612a839061521c565b60405180910390fd5b5f600e8383604051612a9f929190613f19565b90815260200160405180910390206001015f6101000a81548160ff0219169083151502179055507fcdfad879aeb1fb49862f7e42c82487a957432482bf2ff2d25417613c3eadc1358282604051612af7929190614504565b60405180910390a15050565b6060805f805f805f8060025f9054906101000a900473ffffffffffffffffffffffffffffffffffffffff1673ffffffffffffffffffffffffffffffffffffffff166306fdde036040518163ffffffff1660e01b81526004015f60405180830381865afa158015612b75573d5f803e3d5ffd5b505050506040513d5f823e3d601f19601f82011682018060405250810190612b9d91906152a8565b60025f9054906101000a900473ffffffffffffffffffffffffffffffffffffffff1673ffffffffffffffffffffffffffffffffffffffff166395d89b416040518163ffffffff1660e01b81526004015f60405180830381865afa158015612c06573d5f803e3d5ffd5b505050506040513d5f823e3d601f19601f82011682018060405250810190612c2e91906152a8565b60025f9054906101000a900473ffffffffffffffffffffffffffffffffffffffff1673ffffffffffffffffffffffffffffffffffffffff166370a08231306040518263ffffffff1660e01b8152600401612c889190613a8d565b602060405180830381865afa158015612ca3573d5f803e3d5ffd5b505050506040513d601f19601f82011682018060405250810190612cc79190613fa1565b60025f9054906101000a900473ffffffffffffffffffffffffffffffffffffffff1673ffffffffffffffffffffffffffffffffffffffff166318160ddd6040518163ffffffff1660e01b8152600401602060405180830381865afa158015612d31573d5f803e3d5ffd5b505050506040513d601f19601f82011682018060405250810190612d559190613fa1565b60035460025f9054906101000a900473ffffffffffffffffffffffffffffffffffffffff1660065f9054906101000a900460ff16600554975097509750975097509750975097509091929394959697565b612dae612e31565b5f8111612df0576040517f08c379a0000000000000000000000000000000000000000000000000000000008152600401612de790615339565b60405180910390fd5b806003819055507f6077dc80c2821385dfc3c16eead1edcb74a10fb2ae6985541c2486429c26a77f81604051612e269190613b73565b60405180910390a150565b612e396135db565b73ffffffffffffffffffffffffffffffffffffffff16612e57611385565b73ffffffffffffffffffffffffffffffffffffffff1614612eb657612e7a6135db565b6040517f118cdaa7000000000000000000000000000000000000000000000000000000008152600401612ead9190613a8d565b60405180910390fd5b565b612f32838473ffffffffffffffffffffffffffffffffffffffff1663a9059cbb8585604051602401612eeb929190615357565b604051602081830303815290604052915060e01b6020820180517bffffffffffffffffffffffffffffffffffffffffffffffffffffffff83818316178352505050506135e2565b505050565b5f60015f9054906101000a900473ffffffffffffffffffffffffffffffffffffffff1690508160015f6101000a81548173ffffffffffffffffffffffffffffffffffffffff021916908373ffffffffffffffffffffffffffffffffffffffff1602179055508173ffffffffffffffffffffffffffffffffffffffff168173ffffffffffffffffffffffffffffffffffffffff167f8be0079c531659141344cd1fd0a4f28419497f9722a3daafe3b4186f6b6457e060405160405180910390a35050565b60605f42443360014361300d919061537e565b40604051602001613021949392919061543f565b6040516020818303038152906040528051906020012090505f6040518060600160405280602481526020016155826024913990505f600867ffffffffffffffff811115613071576130706137a0565b5b6040519080825280601f01601f1916602001820160405280156130a35781602001600182028036833780820191505090505b5090505f5b600881101561314a575f83518583602081106130c7576130c661548c565b5b1a60f81b60f81c6130d891906154b9565b9050838160ff16815181106130f0576130ef61548c565b5b602001015160f81c60f81b83838151811061310e5761310d61548c565b5b60200101907effffffffffffffffffffffffffffffffffffffffffffffffffffffffffffff191690815f1a9053505080806001019150506130a8565b5080935050505090565b60025f540361318f576040517f3ee5aeb500000000000000000000000000000000000000000000000000000000815260040160405180910390fd5b60025f81905550565b60605f82036131de576040518060400160405280600181526020017f300000000000000000000000000000000000000000000000000000000000000081525090506132ec565b5f8290505f5b5f821461320d5780806131f690614e3d565b915050600a826132069190614996565b91506131e4565b5f8167ffffffffffffffff811115613228576132276137a0565b5b6040519080825280601f01601f19166020018201604052801561325a5781602001600182028036833780820191505090505b5090505b5f85146132e557600182613272919061537e565b9150600a8561328191906154e9565b603061328d91906149c6565b60f81b8183815181106132a3576132a261548c565b5b60200101907effffffffffffffffffffffffffffffffffffffffffffffffffffffffffffff191690815f1a905350600a856132de9190614996565b945061325e565b8093505050505b919050565b5f73ffffffffffffffffffffffffffffffffffffffff168273ffffffffffffffffffffffffffffffffffffffff16141580156133745750600d5f8373ffffffffffffffffffffffffffffffffffffffff1673ffffffffffffffffffffffffffffffffffffffff1681526020019081526020015f205f9054906101000a900460ff16155b15613562575f60065f9054906101000a900460ff16600a6133959190614c26565b826133a09190614c70565b90505f61271060646005846133b59190614c70565b6133bf9190614c70565b6133c99190614996565b90507f09bda918224f828a5434ff9db6b342a5317e87d94bcb75b1995ac3d8e6c4f27e816040516133fa9190613b73565b60405180910390a161344e848260025f9054906101000a900473ffffffffffffffffffffffffffffffffffffffff1673ffffffffffffffffffffffffffffffffffffffff16612eb89092919063ffffffff16565b80600c5f8673ffffffffffffffffffffffffffffffffffffffff1673ffffffffffffffffffffffffffffffffffffffff1681526020019081526020015f206001015f82825461349d91906149c6565b9250508190555082600c5f8673ffffffffffffffffffffffffffffffffffffffff1673ffffffffffffffffffffffffffffffffffffffff1681526020019081526020015f206002015f8282546134f391906149c6565b925050819055503373ffffffffffffffffffffffffffffffffffffffff168473ffffffffffffffffffffffffffffffffffffffff167fb2dee5f49e7a09a5d7c95cd4dd5dc6410eea65d4e14519d6d3a6e14c8cf0e0e9836040516135579190613b73565b60405180910390a350505b5050565b60015f81905550565b5f808214806135965750828283856135879190614c70565b9250826135949190614996565b145b6135d5576040517f08c379a00000000000000000000000000000000000000000000000000000000081526004016135cc90615563565b60405180910390fd5b92915050565b5f33905090565b5f8060205f8451602086015f885af180613601576040513d5f823e3d81fd5b3d92505f519150505f821461361a576001811415613635565b5f8473ffffffffffffffffffffffffffffffffffffffff163b145b1561367757836040517f5274afe700000000000000000000000000000000000000000000000000000000815260040161366e9190613a8d565b60405180910390fd5b50505050565b5f604051905090565b5f80fd5b5f80fd5b5f73ffffffffffffffffffffffffffffffffffffffff82169050919050565b5f6136b78261368e565b9050919050565b6136c7816136ad565b81146136d1575f80fd5b50565b5f813590506136e2816136be565b92915050565b5f602082840312156136fd576136fc613686565b5b5f61370a848285016136d4565b91505092915050565b5f819050919050565b61372581613713565b82525050565b5f8115159050919050565b61373f8161372b565b82525050565b5f6080820190506137585f83018761371c565b613765602083018661371c565b613772604083018561371c565b61377f6060830184613736565b95945050505050565b5f80fd5b5f80fd5b5f601f19601f8301169050919050565b7f4e487b71000000000000000000000000000000000000000000000000000000005f52604160045260245ffd5b6137d682613790565b810181811067ffffffffffffffff821117156137f5576137f46137a0565b5b80604052505050565b5f61380761367d565b905061381382826137cd565b919050565b5f67ffffffffffffffff821115613832576138316137a0565b5b61383b82613790565b9050602081019050919050565b828183375f83830152505050565b5f61386861386384613818565b6137fe565b9050828152602081018484840111156138845761388361378c565b5b61388f848285613848565b509392505050565b5f82601f8301126138ab576138aa613788565b5b81356138bb848260208601613856565b91505092915050565b5f602082840312156138d9576138d8613686565b5b5f82013567ffffffffffffffff8111156138f6576138f561368a565b5b61390284828501613897565b91505092915050565b5f60408201905061391e5f83018561371c565b61392b6020830184613736565b9392505050565b61393b8161372b565b8114613945575f80fd5b50565b5f8135905061395681613932565b92915050565b5f806040838503121561397257613971613686565b5b5f61397f858286016136d4565b925050602061399085828601613948565b9150509250929050565b5f80fd5b5f80fd5b5f8083601f8401126139b7576139b6613788565b5b8235905067ffffffffffffffff8111156139d4576139d361399a565b5b6020830191508360018202830111156139f0576139ef61399e565b5b9250929050565b613a0081613713565b8114613a0a575f80fd5b50565b5f81359050613a1b816139f7565b92915050565b5f805f60408486031215613a3857613a37613686565b5b5f84013567ffffffffffffffff811115613a5557613a5461368a565b5b613a61868287016139a2565b93509350506020613a7486828701613a0d565b9150509250925092565b613a87816136ad565b82525050565b5f602082019050613aa05f830184613a7e565b92915050565b5f60ff82169050919050565b613abb81613aa6565b82525050565b5f602082019050613ad45f830184613ab2565b92915050565b5f81519050919050565b5f82825260208201905092915050565b8281835e5f83830152505050565b5f613b0c82613ada565b613b168185613ae4565b9350613b26818560208601613af4565b613b2f81613790565b840191505092915050565b5f6020820190508181035f830152613b528184613b02565b905092915050565b5f602082019050613b6d5f830184613736565b92915050565b5f602082019050613b865f83018461371c565b92915050565b5f8060208385031215613ba257613ba1613686565b5b5f83013567ffffffffffffffff811115613bbf57613bbe61368a565b5b613bcb858286016139a2565b92509250509250929050565b5f805f60608486031215613bee57613bed613686565b5b5f613bfb86828701613a0d565b935050602084013567ffffffffffffffff811115613c1c57613c1b61368a565b5b613c2886828701613897565b9250506040613c39868287016136d4565b9150509250925092565b5f60208284031215613c5857613c57613686565b5b5f613c6584828501613a0d565b91505092915050565b5f604082019050613c815f830185613736565b613c8e602083018461371c565b9392505050565b5f8060408385031215613cab57613caa613686565b5b5f613cb8858286016136d4565b925050602083013567ffffffffffffffff811115613cd957613cd861368a565b5b613ce585828601613897565b9150509250929050565b5f604082019050613d025f830185613a7e565b8181036020830152613d148184613b02565b90509392505050565b5f819050919050565b5f613d40613d3b613d368461368e565b613d1d565b61368e565b9050919050565b5f613d5182613d26565b9050919050565b5f613d6282613d47565b9050919050565b613d7281613d58565b82525050565b5f602082019050613d8b5f830184613d69565b92915050565b5f610100820190508181035f830152613daa818b613b02565b90508181036020830152613dbe818a613b02565b9050613dcd604083018961371c565b613dda606083018861371c565b613de7608083018761371c565b613df460a0830186613a7e565b613e0160c0830185613ab2565b613e0e60e083018461371c565b9998505050505050505050565b7f496e76616c696420626f6e75732070657263656e7461676500000000000000005f82015250565b5f613e4f601883613ae4565b9150613e5a82613e1b565b602082019050919050565b5f6020820190508181035f830152613e7c81613e43565b9050919050565b7f496e76616c696420636f646500000000000000000000000000000000000000005f82015250565b5f613eb7600c83613ae4565b9150613ec282613e83565b602082019050919050565b5f6020820190508181035f830152613ee481613eab565b9050919050565b5f81905092915050565b5f613f008385613eeb565b9350613f0d838584613848565b82840190509392505050565b5f613f25828486613ef5565b91508190509392505050565b5f613f3c8385613ae4565b9350613f49838584613848565b613f5283613790565b840190509392505050565b5f6040820190508181035f830152613f76818587613f31565b9050613f85602083018461371c565b949350505050565b5f81519050613f9b816139f7565b92915050565b5f60208284031215613fb657613fb5613686565b5b5f613fc384828501613f8d565b91505092915050565b7f4e6f20746f6b656e7320746f20776974686472617700000000000000000000005f82015250565b5f614000601583613ae4565b915061400b82613fcc565b602082019050919050565b5f6020820190508181035f83015261402d81613ff4565b9050919050565b7f4e487b71000000000000000000000000000000000000000000000000000000005f52602260045260245ffd5b5f600282049050600182168061407857607f821691505b60208210810361408b5761408a614034565b5b50919050565b7f436f6e74726163742070617573656400000000000000000000000000000000005f82015250565b5f6140c5600f83613ae4565b91506140d082614091565b602082019050919050565b5f6020820190508181035f8301526140f2816140b9565b9050919050565b7f4164647265737320626c61636b6c6973746564000000000000000000000000005f82015250565b5f61412d601383613ae4565b9150614138826140f9565b602082019050919050565b5f6020820190508181035f83015261415a81614121565b9050919050565b7f496e76616c696420726566657272616c20636f646500000000000000000000005f82015250565b5f614195601583613ae4565b91506141a082614161565b602082019050919050565b5f6020820190508181035f8301526141c281614189565b9050919050565b7f526566657272616c20636f6465206e6f7420666f756e640000000000000000005f82015250565b5f6141fd601783613ae4565b9150614208826141c9565b602082019050919050565b5f6020820190508181035f83015261422a816141f1565b9050919050565b7f43616e6e6f7420726566657220796f757273656c6600000000000000000000005f82015250565b5f614265601583613ae4565b915061427082614231565b602082019050919050565b5f6020820190508181035f83015261429281614259565b9050919050565b5f82905092915050565b5f819050815f5260205f209050919050565b5f6020601f8301049050919050565b5f82821b905092915050565b5f600883026142ff7fffffffffffffffffffffffffffffffffffffffffffffffffffffffffffffffff826142c4565b61430986836142c4565b95508019841693508086168417925050509392505050565b5f61433b61433661433184613713565b613d1d565b613713565b9050919050565b5f819050919050565b61435483614321565b61436861436082614342565b8484546142d0565b825550505050565b5f90565b61437c614370565b61438781848461434b565b505050565b5b818110156143aa5761439f5f82614374565b60018101905061438d565b5050565b601f8211156143ef576143c0816142a3565b6143c9846142b5565b810160208510156143d8578190505b6143ec6143e4856142b5565b83018261438c565b50505b505050565b5f82821c905092915050565b5f61440f5f19846008026143f4565b1980831691505092915050565b5f6144278383614400565b9150826002028217905092915050565b6144418383614299565b67ffffffffffffffff81111561445a576144596137a0565b5b6144648254614061565b61446f8282856143ae565b5f601f83116001811461449c575f841561448a578287013590505b614494858261441c565b8655506144fb565b601f1984166144aa866142a3565b5f5b828110156144d1578489013582556001820191506020850194506020810190506144ac565b868310156144ee57848901356144ea601f891682614400565b8355505b6001600288020188555050505b50505050505050565b5f6020820190508181035f83015261451d818486613f31565b90509392505050565b7f5a65726f20746f6b656e206164647265737300000000000000000000000000005f82015250565b5f61455a601283613ae4565b915061456582614526565b602082019050919050565b5f6020820190508181035f8301526145878161454e565b9050919050565b61459781613aa6565b81146145a1575f80fd5b50565b5f815190506145b28161458e565b92915050565b5f602082840312156145cd576145cc613686565b5b5f6145da848285016145a4565b91505092915050565b7f436f6465206578697374730000000000000000000000000000000000000000005f82015250565b5f614617600b83613ae4565b9150614622826145e3565b602082019050919050565b5f6020820190508181035f8301526146448161460b565b9050919050565b5f61465582613ada565b61465f8185613eeb565b935061466f818560208601613af4565b80840191505092915050565b5f614686828461464b565b915081905092915050565b7f436f646520636f6c6c6973696f6e0000000000000000000000000000000000005f82015250565b5f6146c5600e83613ae4565b91506146d082614691565b602082019050919050565b5f6020820190508181035f8301526146f2816146b9565b9050919050565b61470282613ada565b67ffffffffffffffff81111561471b5761471a6137a0565b5b6147258254614061565b6147308282856143ae565b5f60209050601f831160018114614761575f841561474f578287015190505b614759858261441c565b8655506147c0565b601f19841661476f866142a3565b5f5b8281101561479657848901518255600182019150602085019450602081019050614771565b868310156147b357848901516147af601f891682614400565b8355505b6001600288020188555050505b505050505050565b7f546f6b656e20616d6f756e74206d7573742062652067726561746572207468615f8201527f6e207a65726f0000000000000000000000000000000000000000000000000000602082015250565b5f614822602683613ae4565b915061482d826147c8565b604082019050919050565b5f6020820190508181035f83015261484f81614816565b9050919050565b7f45544820616d6f756e74206973206c657373207468616e20746865206d696e695f8201527f6d756d2070757263686173652076616c7565206f662000000000000000000000602082015250565b5f6148b0603683613eeb565b91506148bb82614856565b603682019050919050565b7f20776569000000000000000000000000000000000000000000000000000000005f82015250565b5f6148fa600483613eeb565b9150614905826148c6565b600482019050919050565b5f61491a826148a4565b9150614926828461464b565b9150614931826148ee565b915081905092915050565b7f4e487b71000000000000000000000000000000000000000000000000000000005f52601260045260245ffd5b7f4e487b71000000000000000000000000000000000000000000000000000000005f52601160045260245ffd5b5f6149a082613713565b91506149ab83613713565b9250826149bb576149ba61493c565b5b828204905092915050565b5f6149d082613713565b91506149db83613713565b92508282019050808211156149f3576149f2614969565b5b92915050565b7f496e636f72726563742045544820616d6f756e743a20657870656374656420615f8201527f7070726f78696d6174656c792000000000000000000000000000000000000000602082015250565b5f614a53602d83613eeb565b9150614a5e826149f9565b602d82019050919050565b7f207765692c2072656365697665642000000000000000000000000000000000005f82015250565b5f614a9d600f83613eeb565b9150614aa882614a69565b600f82019050919050565b5f614abd82614a47565b9150614ac9828561464b565b9150614ad482614a91565b9150614ae0828461464b565b9150614aeb826148ee565b91508190509392505050565b5f8160011c9050919050565b5f808291508390505b6001851115614b4c57808604811115614b2857614b27614969565b5b6001851615614b375780820291505b8081029050614b4585614af7565b9450614b0c565b94509492505050565b5f82614b645760019050614c1f565b81614b71575f9050614c1f565b8160018114614b875760028114614b9157614bc0565b6001915050614c1f565b60ff841115614ba357614ba2614969565b5b8360020a915084821115614bba57614bb9614969565b5b50614c1f565b5060208310610133831016604e8410600b8410161715614bf55782820a905083811115614bf057614bef614969565b5b614c1f565b614c028484846001614b03565b92509050818404811115614c1957614c18614969565b5b81810290505b9392505050565b5f614c3082613713565b9150614c3b83613aa6565b9250614c687fffffffffffffffffffffffffffffffffffffffffffffffffffffffffffffffff8484614b55565b905092915050565b5f614c7a82613713565b9150614c8583613713565b9250828202614c9381613713565b91508282048414831517614caa57614ca9614969565b5b5092915050565b7f496e73756666696369656e7420746f6b656e2062616c616e636520696e20636f5f8201527f6e74726163740000000000000000000000000000000000000000000000000000602082015250565b5f614d0b602683613ae4565b9150614d1682614cb1565b604082019050919050565b5f6020820190508181035f830152614d3881614cff565b9050919050565b7f496e76616c6964206f7220696e6163746976652070726f6d6f20636f646500005f82015250565b5f614d73601e83613ae4565b9150614d7e82614d3f565b602082019050919050565b5f6020820190508181035f830152614da081614d67565b9050919050565b7f50726f6d6f20636f646520616c726561647920757365640000000000000000005f82015250565b5f614ddb601783613ae4565b9150614de682614da7565b602082019050919050565b5f6020820190508181035f830152614e0881614dcf565b9050919050565b5f6040820190508181035f830152614e278185613b02565b9050614e36602083018461371c565b9392505050565b5f614e4782613713565b91507fffffffffffffffffffffffffffffffffffffffffffffffffffffffffffffffff8203614e7957614e78614969565b5b600182019050919050565b5f606082019050614e975f83018661371c565b614ea4602083018561371c565b614eb1604083018461371c565b949350505050565b5f81905092915050565b50565b5f614ed15f83614eb9565b9150614edc82614ec3565b5f82019050919050565b5f614ef082614ec6565b9150819050919050565b7f455448207472616e73666572206661696c6564000000000000000000000000005f82015250565b5f614f2e601383613ae4565b9150614f3982614efa565b602082019050919050565b5f6020820190508181035f830152614f5b81614f22565b9050919050565b7f496e76616c69642076616c7565000000000000000000000000000000000000005f82015250565b5f614f96600d83613ae4565b9150614fa182614f62565b602082019050919050565b5f6020820190508181035f830152614fc381614f8a565b9050919050565b7f4d757374207061757365206669727374000000000000000000000000000000005f82015250565b5f614ffe601083613ae4565b915061500982614fca565b602082019050919050565b5f6020820190508181035f83015261502b81614ff2565b9050919050565b7f416c72656164792068617320636f6465000000000000000000000000000000005f82015250565b5f615066601083613ae4565b915061507182615032565b602082019050919050565b5f6020820190508181035f8301526150938161505a565b9050919050565b7f416c7265616479207265666572726564000000000000000000000000000000005f82015250565b5f6150ce601083613ae4565b91506150d98261509a565b602082019050919050565b5f6020820190508181035f8301526150fb816150c2565b9050919050565b7f53656c6620726566657272616c000000000000000000000000000000000000005f82015250565b5f615136600d83613ae4565b915061514182615102565b602082019050919050565b5f6020820190508181035f8301526151638161512a565b9050919050565b7f5265666572726572206e6f7420616374697665000000000000000000000000005f82015250565b5f61519e601383613ae4565b91506151a98261516a565b602082019050919050565b5f6020820190508181035f8301526151cb81615192565b9050919050565b7f436f6465206e6f742061637469766500000000000000000000000000000000005f82015250565b5f615206600f83613ae4565b9150615211826151d2565b602082019050919050565b5f6020820190508181035f830152615233816151fa565b9050919050565b5f61524c61524784613818565b6137fe565b9050828152602081018484840111156152685761526761378c565b5b615273848285613af4565b509392505050565b5f82601f83011261528f5761528e613788565b5b815161529f84826020860161523a565b91505092915050565b5f602082840312156152bd576152bc613686565b5b5f82015167ffffffffffffffff8111156152da576152d961368a565b5b6152e68482850161527b565b91505092915050565b7f496e76616c696420746f6b656e207072696365000000000000000000000000005f82015250565b5f615323601383613ae4565b915061532e826152ef565b602082019050919050565b5f6020820190508181035f83015261535081615317565b9050919050565b5f60408201905061536a5f830185613a7e565b615377602083018461371c565b9392505050565b5f61538882613713565b915061539383613713565b92508282039050818111156153ab576153aa614969565b5b92915050565b5f819050919050565b6153cb6153c682613713565b6153b1565b82525050565b5f8160601b9050919050565b5f6153e7826153d1565b9050919050565b5f6153f8826153dd565b9050919050565b61541061540b826136ad565b6153ee565b82525050565b5f819050919050565b5f819050919050565b61543961543482615416565b61541f565b82525050565b5f61544a82876153ba565b60208201915061545a82866153ba565b60208201915061546a82856153ff565b60148201915061547a8284615428565b60208201915081905095945050505050565b7f4e487b71000000000000000000000000000000000000000000000000000000005f52603260045260245ffd5b5f6154c382613aa6565b91506154ce83613aa6565b9250826154de576154dd61493c565b5b828206905092915050565b5f6154f382613713565b91506154fe83613713565b92508261550e5761550d61493c565b5b828206905092915050565b7f4d756c7469706c69636174696f6e206f766572666c6f770000000000000000005f82015250565b5f61554d601783613ae4565b915061555882615519565b602082019050919050565b5f6020820190508181035f83015261557a81615541565b905091905056fe4142434445464748494a4b4c4d4e4f505152535455565758595a30313233343536373839a264697066735822122050e27da69f457660956e41f48f413b7ad611fe7aff977a7031e6e9c49f6bc02f64736f6c634300081a0033",
			"opcodes": "PUSH1 0x80 PUSH1 0x40 MSTORE CALLVALUE DUP1 ISZERO PUSH2 0xF JUMPI PUSH0 DUP1 REVERT JUMPDEST POP PUSH1 0x40 MLOAD PUSH2 0x5C25 CODESIZE SUB DUP1 PUSH2 0x5C25 DUP4 CODECOPY DUP2 DUP2 ADD PUSH1 0x40 MSTORE DUP2 ADD SWAP1 PUSH2 0x31 SWAP2 SWAP1 PUSH2 0x41C JUMP JUMPDEST CALLER PUSH1 0x1 PUSH0 DUP2 SWAP1 SSTORE POP PUSH0 PUSH20 0xFFFFFFFFFFFFFFFFFFFFFFFFFFFFFFFFFFFFFFFF AND DUP2 PUSH20 0xFFFFFFFFFFFFFFFFFFFFFFFFFFFFFFFFFFFFFFFF AND SUB PUSH2 0xA9 JUMPI PUSH0 PUSH1 0x40 MLOAD PUSH32 0x1E4FBDF700000000000000000000000000000000000000000000000000000000 DUP2 MSTORE PUSH1 0x4 ADD PUSH2 0xA0 SWAP2 SWAP1 PUSH2 0x47B JUMP JUMPDEST PUSH1 0x40 MLOAD DUP1 SWAP2 SUB SWAP1 REVERT JUMPDEST PUSH2 0xB8 DUP2 PUSH2 0x2C8 PUSH1 0x20 SHL PUSH1 0x20 SHR JUMP JUMPDEST POP PUSH0 PUSH20 0xFFFFFFFFFFFFFFFFFFFFFFFFFFFFFFFFFFFFFFFF AND DUP4 PUSH20 0xFFFFFFFFFFFFFFFFFFFFFFFFFFFFFFFFFFFFFFFF AND SUB PUSH2 0x127 JUMPI PUSH1 0x40 MLOAD PUSH32 0x8C379A000000000000000000000000000000000000000000000000000000000 DUP2 MSTORE PUSH1 0x4 ADD PUSH2 0x11E SWAP1 PUSH2 0x4EE JUMP JUMPDEST PUSH1 0x40 MLOAD DUP1 SWAP2 SUB SWAP1 REVERT JUMPDEST PUSH0 DUP3 GT PUSH2 0x169 JUMPI PUSH1 0x40 MLOAD PUSH32 0x8C379A000000000000000000000000000000000000000000000000000000000 DUP2 MSTORE PUSH1 0x4 ADD PUSH2 0x160 SWAP1 PUSH2 0x556 JUMP JUMPDEST PUSH1 0x40 MLOAD DUP1 SWAP2 SUB SWAP1 REVERT JUMPDEST PUSH0 DUP2 GT PUSH2 0x1AB JUMPI PUSH1 0x40 MLOAD PUSH32 0x8C379A000000000000000000000000000000000000000000000000000000000 DUP2 MSTORE PUSH1 0x4 ADD PUSH2 0x1A2 SWAP1 PUSH2 0x5BE JUMP JUMPDEST PUSH1 0x40 MLOAD DUP1 SWAP2 SUB SWAP1 REVERT JUMPDEST DUP3 PUSH1 0x2 PUSH0 PUSH2 0x100 EXP DUP2 SLOAD DUP2 PUSH20 0xFFFFFFFFFFFFFFFFFFFFFFFFFFFFFFFFFFFFFFFF MUL NOT AND SWAP1 DUP4 PUSH20 0xFFFFFFFFFFFFFFFFFFFFFFFFFFFFFFFFFFFFFFFF AND MUL OR SWAP1 SSTORE POP DUP2 PUSH1 0x3 DUP2 SWAP1 SSTORE POP DUP1 PUSH1 0x5 DUP2 SWAP1 SSTORE POP PUSH1 0x2 PUSH0 SWAP1 SLOAD SWAP1 PUSH2 0x100 EXP SWAP1 DIV PUSH20 0xFFFFFFFFFFFFFFFFFFFFFFFFFFFFFFFFFFFFFFFF AND PUSH20 0xFFFFFFFFFFFFFFFFFFFFFFFFFFFFFFFFFFFFFFFF AND PUSH4 0x313CE567 PUSH1 0x40 MLOAD DUP2 PUSH4 0xFFFFFFFF AND PUSH1 0xE0 SHL DUP2 MSTORE PUSH1 0x4 ADD PUSH1 0x20 PUSH1 0x40 MLOAD DUP1 DUP4 SUB DUP2 DUP7 GAS STATICCALL ISZERO DUP1 ISZERO PUSH2 0x263 JUMPI RETURNDATASIZE PUSH0 DUP1 RETURNDATACOPY RETURNDATASIZE PUSH0 REVERT JUMPDEST POP POP POP POP PUSH1 0x40 MLOAD RETURNDATASIZE PUSH1 0x1F NOT PUSH1 0x1F DUP3 ADD AND DUP3 ADD DUP1 PUSH1 0x40 MSTORE POP DUP2 ADD SWAP1 PUSH2 0x287 SWAP2 SWAP1 PUSH2 0x612 JUMP JUMPDEST PUSH1 0x6 PUSH0 PUSH2 0x100 EXP DUP2 SLOAD DUP2 PUSH1 0xFF MUL NOT AND SWAP1 DUP4 PUSH1 0xFF AND MUL OR SWAP1 SSTORE POP PUSH0 PUSH1 0x7 DUP2 SWAP1 SSTORE POP PUSH0 PUSH1 0x8 PUSH0 PUSH2 0x100 EXP DUP2 SLOAD DUP2 PUSH1 0xFF MUL NOT AND SWAP1 DUP4 ISZERO ISZERO MUL OR SWAP1 SSTORE POP POP POP POP PUSH2 0x63D JUMP JUMPDEST PUSH0 PUSH1 0x1 PUSH0 SWAP1 SLOAD SWAP1 PUSH2 0x100 EXP SWAP1 DIV PUSH20 0xFFFFFFFFFFFFFFFFFFFFFFFFFFFFFFFFFFFFFFFF AND SWAP1 POP DUP2 PUSH1 0x1 PUSH0 PUSH2 0x100 EXP DUP2 SLOAD DUP2 PUSH20 0xFFFFFFFFFFFFFFFFFFFFFFFFFFFFFFFFFFFFFFFF MUL NOT AND SWAP1 DUP4 PUSH20 0xFFFFFFFFFFFFFFFFFFFFFFFFFFFFFFFFFFFFFFFF AND MUL OR SWAP1 SSTORE POP DUP2 PUSH20 0xFFFFFFFFFFFFFFFFFFFFFFFFFFFFFFFFFFFFFFFF AND DUP2 PUSH20 0xFFFFFFFFFFFFFFFFFFFFFFFFFFFFFFFFFFFFFFFF AND PUSH32 0x8BE0079C531659141344CD1FD0A4F28419497F9722A3DAAFE3B4186F6B6457E0 PUSH1 0x40 MLOAD PUSH1 0x40 MLOAD DUP1 SWAP2 SUB SWAP1 LOG3 POP POP JUMP JUMPDEST PUSH0 DUP1 REVERT JUMPDEST PUSH0 PUSH20 0xFFFFFFFFFFFFFFFFFFFFFFFFFFFFFFFFFFFFFFFF DUP3 AND SWAP1 POP SWAP2 SWAP1 POP JUMP JUMPDEST PUSH0 PUSH2 0x3B8 DUP3 PUSH2 0x38F JUMP JUMPDEST SWAP1 POP SWAP2 SWAP1 POP JUMP JUMPDEST PUSH2 0x3C8 DUP2 PUSH2 0x3AE JUMP JUMPDEST DUP2 EQ PUSH2 0x3D2 JUMPI PUSH0 DUP1 REVERT JUMPDEST POP JUMP JUMPDEST PUSH0 DUP2 MLOAD SWAP1 POP PUSH2 0x3E3 DUP2 PUSH2 0x3BF JUMP JUMPDEST SWAP3 SWAP2 POP POP JUMP JUMPDEST PUSH0 DUP2 SWAP1 POP SWAP2 SWAP1 POP JUMP JUMPDEST PUSH2 0x3FB DUP2 PUSH2 0x3E9 JUMP JUMPDEST DUP2 EQ PUSH2 0x405 JUMPI PUSH0 DUP1 REVERT JUMPDEST POP JUMP JUMPDEST PUSH0 DUP2 MLOAD SWAP1 POP PUSH2 0x416 DUP2 PUSH2 0x3F2 JUMP JUMPDEST SWAP3 SWAP2 POP POP JUMP JUMPDEST PUSH0 DUP1 PUSH0 PUSH1 0x60 DUP5 DUP7 SUB SLT ISZERO PUSH2 0x433 JUMPI PUSH2 0x432 PUSH2 0x38B JUMP JUMPDEST JUMPDEST PUSH0 PUSH2 0x440 DUP7 DUP3 DUP8 ADD PUSH2 0x3D5 JUMP JUMPDEST SWAP4 POP POP PUSH1 0x20 PUSH2 0x451 DUP7 DUP3 DUP8 ADD PUSH2 0x408 JUMP JUMPDEST SWAP3 POP POP PUSH1 0x40 PUSH2 0x462 DUP7 DUP3 DUP8 ADD PUSH2 0x408 JUMP JUMPDEST SWAP2 POP POP SWAP3 POP SWAP3 POP SWAP3 JUMP JUMPDEST PUSH2 0x475 DUP2 PUSH2 0x3AE JUMP JUMPDEST DUP3 MSTORE POP POP JUMP JUMPDEST PUSH0 PUSH1 0x20 DUP3 ADD SWAP1 POP PUSH2 0x48E PUSH0 DUP4 ADD DUP5 PUSH2 0x46C JUMP JUMPDEST SWAP3 SWAP2 POP POP JUMP JUMPDEST PUSH0 DUP3 DUP3 MSTORE PUSH1 0x20 DUP3 ADD SWAP1 POP SWAP3 SWAP2 POP POP JUMP JUMPDEST PUSH32 0x5A65726F20746F6B656E20616464726573730000000000000000000000000000 PUSH0 DUP3 ADD MSTORE POP JUMP JUMPDEST PUSH0 PUSH2 0x4D8 PUSH1 0x12 DUP4 PUSH2 0x494 JUMP JUMPDEST SWAP2 POP PUSH2 0x4E3 DUP3 PUSH2 0x4A4 JUMP JUMPDEST PUSH1 0x20 DUP3 ADD SWAP1 POP SWAP2 SWAP1 POP JUMP JUMPDEST PUSH0 PUSH1 0x20 DUP3 ADD SWAP1 POP DUP2 DUP2 SUB PUSH0 DUP4 ADD MSTORE PUSH2 0x505 DUP2 PUSH2 0x4CC JUMP JUMPDEST SWAP1 POP SWAP2 SWAP1 POP JUMP JUMPDEST PUSH32 0x496E76616C696420746F6B656E20707269636500000000000000000000000000 PUSH0 DUP3 ADD MSTORE POP JUMP JUMPDEST PUSH0 PUSH2 0x540 PUSH1 0x13 DUP4 PUSH2 0x494 JUMP JUMPDEST SWAP2 POP PUSH2 0x54B DUP3 PUSH2 0x50C JUMP JUMPDEST PUSH1 0x20 DUP3 ADD SWAP1 POP SWAP2 SWAP1 POP JUMP JUMPDEST PUSH0 PUSH1 0x20 DUP3 ADD SWAP1 POP DUP2 DUP2 SUB PUSH0 DUP4 ADD MSTORE PUSH2 0x56D DUP2 PUSH2 0x534 JUMP JUMPDEST SWAP1 POP SWAP2 SWAP1 POP JUMP JUMPDEST PUSH32 0x496E76616C6964206D696E20616D6F756E740000000000000000000000000000 PUSH0 DUP3 ADD MSTORE POP JUMP JUMPDEST PUSH0 PUSH2 0x5A8 PUSH1 0x12 DUP4 PUSH2 0x494 JUMP JUMPDEST SWAP2 POP PUSH2 0x5B3 DUP3 PUSH2 0x574 JUMP JUMPDEST PUSH1 0x20 DUP3 ADD SWAP1 POP SWAP2 SWAP1 POP JUMP JUMPDEST PUSH0 PUSH1 0x20 DUP3 ADD SWAP1 POP DUP2 DUP2 SUB PUSH0 DUP4 ADD MSTORE PUSH2 0x5D5 DUP2 PUSH2 0x59C JUMP JUMPDEST SWAP1 POP SWAP2 SWAP1 POP JUMP JUMPDEST PUSH0 PUSH1 0xFF DUP3 AND SWAP1 POP SWAP2 SWAP1 POP JUMP JUMPDEST PUSH2 0x5F1 DUP2 PUSH2 0x5DC JUMP JUMPDEST DUP2 EQ PUSH2 0x5FB JUMPI PUSH0 DUP1 REVERT JUMPDEST POP JUMP JUMPDEST PUSH0 DUP2 MLOAD SWAP1 POP PUSH2 0x60C DUP2 PUSH2 0x5E8 JUMP JUMPDEST SWAP3 SWAP2 POP POP JUMP JUMPDEST PUSH0 PUSH1 0x20 DUP3 DUP5 SUB SLT ISZERO PUSH2 0x627 JUMPI PUSH2 0x626 PUSH2 0x38B JUMP JUMPDEST JUMPDEST PUSH0 PUSH2 0x634 DUP5 DUP3 DUP6 ADD PUSH2 0x5FE JUMP JUMPDEST SWAP2 POP POP SWAP3 SWAP2 POP POP JUMP JUMPDEST PUSH2 0x55DB DUP1 PUSH2 0x64A PUSH0 CODECOPY PUSH0 RETURN INVALID PUSH1 0x80 PUSH1 0x40 MSTORE PUSH1 0x4 CALLDATASIZE LT PUSH2 0x21D JUMPI PUSH0 CALLDATALOAD PUSH1 0xE0 SHR DUP1 PUSH4 0x8DA5CB5B GT PUSH2 0x122 JUMPI DUP1 PUSH4 0xE5A6D8A4 GT PUSH2 0xAA JUMPI DUP1 PUSH4 0xFA770C20 GT PUSH2 0x6E JUMPI DUP1 PUSH4 0xFA770C20 EQ PUSH2 0x7B6 JUMPI DUP1 PUSH4 0xFC0C546A EQ PUSH2 0x7F3 JUMPI DUP1 PUSH4 0xFD2A81E0 EQ PUSH2 0x81D JUMPI DUP1 PUSH4 0xFF332AB7 EQ PUSH2 0x845 JUMPI DUP1 PUSH4 0xFFDEB903 EQ PUSH2 0x876 JUMPI PUSH2 0x224 JUMP JUMPDEST DUP1 PUSH4 0xE5A6D8A4 EQ PUSH2 0x6C4 JUMPI DUP1 PUSH4 0xE86790EB EQ PUSH2 0x700 JUMPI DUP1 PUSH4 0xEF5A6AF0 EQ PUSH2 0x72A JUMPI DUP1 PUSH4 0xF2FDE38B EQ PUSH2 0x752 JUMPI DUP1 PUSH4 0xF7759E85 EQ PUSH2 0x77A JUMPI PUSH2 0x224 JUMP JUMPDEST DUP1 PUSH4 0xC940F60E GT PUSH2 0xF1 JUMPI DUP1 PUSH4 0xC940F60E EQ PUSH2 0x5D1 JUMPI DUP1 PUSH4 0xD6F904AE EQ PUSH2 0x5F9 JUMPI DUP1 PUSH4 0xD6F92372 EQ PUSH2 0x636 JUMPI DUP1 PUSH4 0xDB2E21BC EQ PUSH2 0x672 JUMPI DUP1 PUSH4 0xDBAC26E9 EQ PUSH2 0x688 JUMPI PUSH2 0x224 JUMP JUMPDEST DUP1 PUSH4 0x8DA5CB5B EQ PUSH2 0x55F JUMPI DUP1 PUSH4 0xB0A2FC1B EQ PUSH2 0x589 JUMPI DUP1 PUSH4 0xB362BA2F EQ PUSH2 0x59F JUMPI DUP1 PUSH4 0xC4AE3168 EQ PUSH2 0x5BB JUMPI PUSH2 0x224 JUMP JUMPDEST DUP1 PUSH4 0x5C975ABB GT PUSH2 0x1A5 JUMPI DUP1 PUSH4 0x62FFB195 GT PUSH2 0x174 JUMPI DUP1 PUSH4 0x62FFB195 EQ PUSH2 0x4A3 JUMPI DUP1 PUSH4 0x715018A6 EQ PUSH2 0x4CD JUMPI DUP1 PUSH4 0x76593D51 EQ PUSH2 0x4E3 JUMPI DUP1 PUSH4 0x7AD3DEF2 EQ PUSH2 0x50D JUMPI DUP1 PUSH4 0x7AE506AC EQ PUSH2 0x535 JUMPI PUSH2 0x224 JUMP JUMPDEST DUP1 PUSH4 0x5C975ABB EQ PUSH2 0x3EB JUMPI DUP1 PUSH4 0x5ED9EBFC EQ PUSH2 0x415 JUMPI DUP1 PUSH4 0x5F2130D2 EQ PUSH2 0x43F JUMPI DUP1 PUSH4 0x618C506D EQ PUSH2 0x467 JUMPI PUSH2 0x224 JUMP JUMPDEST DUP1 PUSH4 0x21BADE13 GT PUSH2 0x1EC JUMPI DUP1 PUSH4 0x21BADE13 EQ PUSH2 0x2F4 JUMPI DUP1 PUSH4 0x280DA6FA EQ PUSH2 0x333 JUMPI DUP1 PUSH4 0x362B935F EQ PUSH2 0x349 JUMPI DUP1 PUSH4 0x3B97E856 EQ PUSH2 0x385 JUMPI DUP1 PUSH4 0x3C3C1439 EQ PUSH2 0x3AF JUMPI PUSH2 0x224 JUMP JUMPDEST DUP1 PUSH4 0x6280B1A EQ PUSH2 0x228 JUMPI DUP1 PUSH4 0xB54F998 EQ PUSH2 0x267 JUMPI DUP1 PUSH4 0x153B0D1E EQ PUSH2 0x2A4 JUMPI DUP1 PUSH4 0x1E07EF96 EQ PUSH2 0x2CC JUMPI PUSH2 0x224 JUMP JUMPDEST CALLDATASIZE PUSH2 0x224 JUMPI STOP JUMPDEST PUSH0 DUP1 REVERT JUMPDEST CALLVALUE DUP1 ISZERO PUSH2 0x233 JUMPI PUSH0 DUP1 REVERT JUMPDEST POP PUSH2 0x24E PUSH1 0x4 DUP1 CALLDATASIZE SUB DUP2 ADD SWAP1 PUSH2 0x249 SWAP2 SWAP1 PUSH2 0x36E8 JUMP JUMPDEST PUSH2 0x89E JUMP JUMPDEST PUSH1 0x40 MLOAD PUSH2 0x25E SWAP5 SWAP4 SWAP3 SWAP2 SWAP1 PUSH2 0x3745 JUMP JUMPDEST PUSH1 0x40 MLOAD DUP1 SWAP2 SUB SWAP1 RETURN JUMPDEST CALLVALUE DUP1 ISZERO PUSH2 0x272 JUMPI PUSH0 DUP1 REVERT JUMPDEST POP PUSH2 0x28D PUSH1 0x4 DUP1 CALLDATASIZE SUB DUP2 ADD SWAP1 PUSH2 0x288 SWAP2 SWAP1 PUSH2 0x38C4 JUMP JUMPDEST PUSH2 0x8D6 JUMP JUMPDEST PUSH1 0x40 MLOAD PUSH2 0x29B SWAP3 SWAP2 SWAP1 PUSH2 0x390B JUMP JUMPDEST PUSH1 0x40 MLOAD DUP1 SWAP2 SUB SWAP1 RETURN JUMPDEST CALLVALUE DUP1 ISZERO PUSH2 0x2AF JUMPI PUSH0 DUP1 REVERT JUMPDEST POP PUSH2 0x2CA PUSH1 0x4 DUP1 CALLDATASIZE SUB DUP2 ADD SWAP1 PUSH2 0x2C5 SWAP2 SWAP1 PUSH2 0x395C JUMP JUMPDEST PUSH2 0x91A JUMP JUMPDEST STOP JUMPDEST CALLVALUE DUP1 ISZERO PUSH2 0x2D7 JUMPI PUSH0 DUP1 REVERT JUMPDEST POP PUSH2 0x2F2 PUSH1 0x4 DUP1 CALLDATASIZE SUB DUP2 ADD SWAP1 PUSH2 0x2ED SWAP2 SWAP1 PUSH2 0x3A21 JUMP JUMPDEST PUSH2 0x9C8 JUMP JUMPDEST STOP JUMPDEST CALLVALUE DUP1 ISZERO PUSH2 0x2FF JUMPI PUSH0 DUP1 REVERT JUMPDEST POP PUSH2 0x31A PUSH1 0x4 DUP1 CALLDATASIZE SUB DUP2 ADD SWAP1 PUSH2 0x315 SWAP2 SWAP1 PUSH2 0x36E8 JUMP JUMPDEST PUSH2 0xAF9 JUMP JUMPDEST PUSH1 0x40 MLOAD PUSH2 0x32A SWAP5 SWAP4 SWAP3 SWAP2 SWAP1 PUSH2 0x3745 JUMP JUMPDEST PUSH1 0x40 MLOAD DUP1 SWAP2 SUB SWAP1 RETURN JUMPDEST CALLVALUE DUP1 ISZERO PUSH2 0x33E JUMPI PUSH0 DUP1 REVERT JUMPDEST POP PUSH2 0x347 PUSH2 0xBA2 JUMP JUMPDEST STOP JUMPDEST CALLVALUE DUP1 ISZERO PUSH2 0x354 JUMPI PUSH0 DUP1 REVERT JUMPDEST POP PUSH2 0x36F PUSH1 0x4 DUP1 CALLDATASIZE SUB DUP2 ADD SWAP1 PUSH2 0x36A SWAP2 SWAP1 PUSH2 0x36E8 JUMP JUMPDEST PUSH2 0xD15 JUMP JUMPDEST PUSH1 0x40 MLOAD PUSH2 0x37C SWAP2 SWAP1 PUSH2 0x3A8D JUMP JUMPDEST PUSH1 0x40 MLOAD DUP1 SWAP2 SUB SWAP1 RETURN JUMPDEST CALLVALUE DUP1 ISZERO PUSH2 0x390 JUMPI PUSH0 DUP1 REVERT JUMPDEST POP PUSH2 0x399 PUSH2 0xD45 JUMP JUMPDEST PUSH1 0x40 MLOAD PUSH2 0x3A6 SWAP2 SWAP1 PUSH2 0x3AC1 JUMP JUMPDEST PUSH1 0x40 MLOAD DUP1 SWAP2 SUB SWAP1 RETURN JUMPDEST CALLVALUE DUP1 ISZERO PUSH2 0x3BA JUMPI PUSH0 DUP1 REVERT JUMPDEST POP PUSH2 0x3D5 PUSH1 0x4 DUP1 CALLDATASIZE SUB DUP2 ADD SWAP1 PUSH2 0x3D0 SWAP2 SWAP1 PUSH2 0x36E8 JUMP JUMPDEST PUSH2 0xD57 JUMP JUMPDEST PUSH1 0x40 MLOAD PUSH2 0x3E2 SWAP2 SWAP1 PUSH2 0x3B3A JUMP JUMPDEST PUSH1 0x40 MLOAD DUP1 SWAP2 SUB SWAP1 RETURN JUMPDEST CALLVALUE DUP1 ISZERO PUSH2 0x3F6 JUMPI PUSH0 DUP1 REVERT JUMPDEST POP PUSH2 0x3FF PUSH2 0xDF2 JUMP JUMPDEST PUSH1 0x40 MLOAD PUSH2 0x40C SWAP2 SWAP1 PUSH2 0x3B5A JUMP JUMPDEST PUSH1 0x40 MLOAD DUP1 SWAP2 SUB SWAP1 RETURN JUMPDEST CALLVALUE DUP1 ISZERO PUSH2 0x420 JUMPI PUSH0 DUP1 REVERT JUMPDEST POP PUSH2 0x429 PUSH2 0xE04 JUMP JUMPDEST PUSH1 0x40 MLOAD PUSH2 0x436 SWAP2 SWAP1 PUSH2 0x3B73 JUMP JUMPDEST PUSH1 0x40 MLOAD DUP1 SWAP2 SUB SWAP1 RETURN JUMPDEST CALLVALUE DUP1 ISZERO PUSH2 0x44A JUMPI PUSH0 DUP1 REVERT JUMPDEST POP PUSH2 0x465 PUSH1 0x4 DUP1 CALLDATASIZE SUB DUP2 ADD SWAP1 PUSH2 0x460 SWAP2 SWAP1 PUSH2 0x3B8C JUMP JUMPDEST PUSH2 0xE0A JUMP JUMPDEST STOP JUMPDEST CALLVALUE DUP1 ISZERO PUSH2 0x472 JUMPI PUSH0 DUP1 REVERT JUMPDEST POP PUSH2 0x48D PUSH1 0x4 DUP1 CALLDATASIZE SUB DUP2 ADD SWAP1 PUSH2 0x488 SWAP2 SWAP1 PUSH2 0x36E8 JUMP JUMPDEST PUSH2 0x1123 JUMP JUMPDEST PUSH1 0x40 MLOAD PUSH2 0x49A SWAP2 SWAP1 PUSH2 0x3B3A JUMP JUMPDEST PUSH1 0x40 MLOAD DUP1 SWAP2 SUB SWAP1 RETURN JUMPDEST CALLVALUE DUP1 ISZERO PUSH2 0x4AE JUMPI PUSH0 DUP1 REVERT JUMPDEST POP PUSH2 0x4B7 PUSH2 0x11BE JUMP JUMPDEST PUSH1 0x40 MLOAD PUSH2 0x4C4 SWAP2 SWAP1 PUSH2 0x3B73 JUMP JUMPDEST PUSH1 0x40 MLOAD DUP1 SWAP2 SUB SWAP1 RETURN JUMPDEST CALLVALUE DUP1 ISZERO PUSH2 0x4D8 JUMPI PUSH0 DUP1 REVERT JUMPDEST POP PUSH2 0x4E1 PUSH2 0x11C3 JUMP JUMPDEST STOP JUMPDEST CALLVALUE DUP1 ISZERO PUSH2 0x4EE JUMPI PUSH0 DUP1 REVERT JUMPDEST POP PUSH2 0x4F7 PUSH2 0x11D6 JUMP JUMPDEST PUSH1 0x40 MLOAD PUSH2 0x504 SWAP2 SWAP1 PUSH2 0x3B73 JUMP JUMPDEST PUSH1 0x40 MLOAD DUP1 SWAP2 SUB SWAP1 RETURN JUMPDEST CALLVALUE DUP1 ISZERO PUSH2 0x518 JUMPI PUSH0 DUP1 REVERT JUMPDEST POP PUSH2 0x533 PUSH1 0x4 DUP1 CALLDATASIZE SUB DUP2 ADD SWAP1 PUSH2 0x52E SWAP2 SWAP1 PUSH2 0x36E8 JUMP JUMPDEST PUSH2 0x11DC JUMP JUMPDEST STOP JUMPDEST CALLVALUE DUP1 ISZERO PUSH2 0x540 JUMPI PUSH0 DUP1 REVERT JUMPDEST POP PUSH2 0x549 PUSH2 0x137F JUMP JUMPDEST PUSH1 0x40 MLOAD PUSH2 0x556 SWAP2 SWAP1 PUSH2 0x3B73 JUMP JUMPDEST PUSH1 0x40 MLOAD DUP1 SWAP2 SUB SWAP1 RETURN JUMPDEST CALLVALUE DUP1 ISZERO PUSH2 0x56A JUMPI PUSH0 DUP1 REVERT JUMPDEST POP PUSH2 0x573 PUSH2 0x1385 JUMP JUMPDEST PUSH1 0x40 MLOAD PUSH2 0x580 SWAP2 SWAP1 PUSH2 0x3A8D JUMP JUMPDEST PUSH1 0x40 MLOAD DUP1 SWAP2 SUB SWAP1 RETURN JUMPDEST CALLVALUE DUP1 ISZERO PUSH2 0x594 JUMPI PUSH0 DUP1 REVERT JUMPDEST POP PUSH2 0x59D PUSH2 0x13AD JUMP JUMPDEST STOP JUMPDEST PUSH2 0x5B9 PUSH1 0x4 DUP1 CALLDATASIZE SUB DUP2 ADD SWAP1 PUSH2 0x5B4 SWAP2 SWAP1 PUSH2 0x3BD7 JUMP JUMPDEST PUSH2 0x1717 JUMP JUMPDEST STOP JUMPDEST CALLVALUE DUP1 ISZERO PUSH2 0x5C6 JUMPI PUSH0 DUP1 REVERT JUMPDEST POP PUSH2 0x5CF PUSH2 0x1E83 JUMP JUMPDEST STOP JUMPDEST CALLVALUE DUP1 ISZERO PUSH2 0x5DC JUMPI PUSH0 DUP1 REVERT JUMPDEST POP PUSH2 0x5F7 PUSH1 0x4 DUP1 CALLDATASIZE SUB DUP2 ADD SWAP1 PUSH2 0x5F2 SWAP2 SWAP1 PUSH2 0x3C43 JUMP JUMPDEST PUSH2 0x1EB5 JUMP JUMPDEST STOP JUMPDEST CALLVALUE DUP1 ISZERO PUSH2 0x604 JUMPI PUSH0 DUP1 REVERT JUMPDEST POP PUSH2 0x61F PUSH1 0x4 DUP1 CALLDATASIZE SUB DUP2 ADD SWAP1 PUSH2 0x61A SWAP2 SWAP1 PUSH2 0x3B8C JUMP JUMPDEST PUSH2 0x1F40 JUMP JUMPDEST PUSH1 0x40 MLOAD PUSH2 0x62D SWAP3 SWAP2 SWAP1 PUSH2 0x3C6E JUMP JUMPDEST PUSH1 0x40 MLOAD DUP1 SWAP2 SUB SWAP1 RETURN JUMPDEST CALLVALUE DUP1 ISZERO PUSH2 0x641 JUMPI PUSH0 DUP1 REVERT JUMPDEST POP PUSH2 0x65C PUSH1 0x4 DUP1 CALLDATASIZE SUB DUP2 ADD SWAP1 PUSH2 0x657 SWAP2 SWAP1 PUSH2 0x38C4 JUMP JUMPDEST PUSH2 0x1FA8 JUMP JUMPDEST PUSH1 0x40 MLOAD PUSH2 0x669 SWAP2 SWAP1 PUSH2 0x3A8D JUMP JUMPDEST PUSH1 0x40 MLOAD DUP1 SWAP2 SUB SWAP1 RETURN JUMPDEST CALLVALUE DUP1 ISZERO PUSH2 0x67D JUMPI PUSH0 DUP1 REVERT JUMPDEST POP PUSH2 0x686 PUSH2 0x1FF0 JUMP JUMPDEST STOP JUMPDEST CALLVALUE DUP1 ISZERO PUSH2 0x693 JUMPI PUSH0 DUP1 REVERT JUMPDEST POP PUSH2 0x6AE PUSH1 0x4 DUP1 CALLDATASIZE SUB DUP2 ADD SWAP1 PUSH2 0x6A9 SWAP2 SWAP1 PUSH2 0x36E8 JUMP JUMPDEST PUSH2 0x22BC JUMP JUMPDEST PUSH1 0x40 MLOAD PUSH2 0x6BB SWAP2 SWAP1 PUSH2 0x3B5A JUMP JUMPDEST PUSH1 0x40 MLOAD DUP1 SWAP2 SUB SWAP1 RETURN JUMPDEST CALLVALUE DUP1 ISZERO PUSH2 0x6CF JUMPI PUSH0 DUP1 REVERT JUMPDEST POP PUSH2 0x6EA PUSH1 0x4 DUP1 CALLDATASIZE SUB DUP2 ADD SWAP1 PUSH2 0x6E5 SWAP2 SWAP1 PUSH2 0x3C95 JUMP JUMPDEST PUSH2 0x22D9 JUMP JUMPDEST PUSH1 0x40 MLOAD PUSH2 0x6F7 SWAP2 SWAP1 PUSH2 0x3B5A JUMP JUMPDEST PUSH1 0x40 MLOAD DUP1 SWAP2 SUB SWAP1 RETURN JUMPDEST CALLVALUE DUP1 ISZERO PUSH2 0x70B JUMPI PUSH0 DUP1 REVERT JUMPDEST POP PUSH2 0x714 PUSH2 0x231B JUMP JUMPDEST PUSH1 0x40 MLOAD PUSH2 0x721 SWAP2 SWAP1 PUSH2 0x3B73 JUMP JUMPDEST PUSH1 0x40 MLOAD DUP1 SWAP2 SUB SWAP1 RETURN JUMPDEST CALLVALUE DUP1 ISZERO PUSH2 0x735 JUMPI PUSH0 DUP1 REVERT JUMPDEST POP PUSH2 0x750 PUSH1 0x4 DUP1 CALLDATASIZE SUB DUP2 ADD SWAP1 PUSH2 0x74B SWAP2 SWAP1 PUSH2 0x3B8C JUMP JUMPDEST PUSH2 0x2321 JUMP JUMPDEST STOP JUMPDEST CALLVALUE DUP1 ISZERO PUSH2 0x75D JUMPI PUSH0 DUP1 REVERT JUMPDEST POP PUSH2 0x778 PUSH1 0x4 DUP1 CALLDATASIZE SUB DUP2 ADD SWAP1 PUSH2 0x773 SWAP2 SWAP1 PUSH2 0x36E8 JUMP JUMPDEST PUSH2 0x2828 JUMP JUMPDEST STOP JUMPDEST CALLVALUE DUP1 ISZERO PUSH2 0x785 JUMPI PUSH0 DUP1 REVERT JUMPDEST POP PUSH2 0x7A0 PUSH1 0x4 DUP1 CALLDATASIZE SUB DUP2 ADD SWAP1 PUSH2 0x79B SWAP2 SWAP1 PUSH2 0x3C43 JUMP JUMPDEST PUSH2 0x28AC JUMP JUMPDEST PUSH1 0x40 MLOAD PUSH2 0x7AD SWAP2 SWAP1 PUSH2 0x3B73 JUMP JUMPDEST PUSH1 0x40 MLOAD DUP1 SWAP2 SUB SWAP1 RETURN JUMPDEST CALLVALUE DUP1 ISZERO PUSH2 0x7C1 JUMPI PUSH0 DUP1 REVERT JUMPDEST POP PUSH2 0x7DC PUSH1 0x4 DUP1 CALLDATASIZE SUB DUP2 ADD SWAP1 PUSH2 0x7D7 SWAP2 SWAP1 PUSH2 0x36E8 JUMP JUMPDEST PUSH2 0x28C0 JUMP JUMPDEST PUSH1 0x40 MLOAD PUSH2 0x7EA SWAP3 SWAP2 SWAP1 PUSH2 0x3CEF JUMP JUMPDEST PUSH1 0x40 MLOAD DUP1 SWAP2 SUB SWAP1 RETURN JUMPDEST CALLVALUE DUP1 ISZERO PUSH2 0x7FE JUMPI PUSH0 DUP1 REVERT JUMPDEST POP PUSH2 0x807 PUSH2 0x29F0 JUMP JUMPDEST PUSH1 0x40 MLOAD PUSH2 0x814 SWAP2 SWAP1 PUSH2 0x3D78 JUMP JUMPDEST PUSH1 0x40 MLOAD DUP1 SWAP2 SUB SWAP1 RETURN JUMPDEST CALLVALUE DUP1 ISZERO PUSH2 0x828 JUMPI PUSH0 DUP1 REVERT JUMPDEST POP PUSH2 0x843 PUSH1 0x4 DUP1 CALLDATASIZE SUB DUP2 ADD SWAP1 PUSH2 0x83E SWAP2 SWAP1 PUSH2 0x3B8C JUMP JUMPDEST PUSH2 0x2A15 JUMP JUMPDEST STOP JUMPDEST CALLVALUE DUP1 ISZERO PUSH2 0x850 JUMPI PUSH0 DUP1 REVERT JUMPDEST POP PUSH2 0x859 PUSH2 0x2B03 JUMP JUMPDEST PUSH1 0x40 MLOAD PUSH2 0x86D SWAP9 SWAP8 SWAP7 SWAP6 SWAP5 SWAP4 SWAP3 SWAP2 SWAP1 PUSH2 0x3D91 JUMP JUMPDEST PUSH1 0x40 MLOAD DUP1 SWAP2 SUB SWAP1 RETURN JUMPDEST CALLVALUE DUP1 ISZERO PUSH2 0x881 JUMPI PUSH0 DUP1 REVERT JUMPDEST POP PUSH2 0x89C PUSH1 0x4 DUP1 CALLDATASIZE SUB DUP2 ADD SWAP1 PUSH2 0x897 SWAP2 SWAP1 PUSH2 0x3C43 JUMP JUMPDEST PUSH2 0x2DA6 JUMP JUMPDEST STOP JUMPDEST PUSH1 0xC PUSH1 0x20 MSTORE DUP1 PUSH0 MSTORE PUSH1 0x40 PUSH0 KECCAK256 PUSH0 SWAP2 POP SWAP1 POP DUP1 PUSH0 ADD SLOAD SWAP1 DUP1 PUSH1 0x1 ADD SLOAD SWAP1 DUP1 PUSH1 0x2 ADD SLOAD SWAP1 DUP1 PUSH1 0x3 ADD PUSH0 SWAP1 SLOAD SWAP1 PUSH2 0x100 EXP SWAP1 DIV PUSH1 0xFF AND SWAP1 POP DUP5 JUMP JUMPDEST PUSH1 0xE DUP2 DUP1 MLOAD PUSH1 0x20 DUP2 ADD DUP3 ADD DUP1 MLOAD DUP5 DUP3 MSTORE PUSH1 0x20 DUP4 ADD PUSH1 0x20 DUP6 ADD KECCAK256 DUP2 DUP4 MSTORE DUP1 SWAP6 POP POP POP POP POP POP PUSH0 SWAP2 POP SWAP1 POP DUP1 PUSH0 ADD SLOAD SWAP1 DUP1 PUSH1 0x1 ADD PUSH0 SWAP1 SLOAD SWAP1 PUSH2 0x100 EXP SWAP1 DIV PUSH1 0xFF AND SWAP1 POP DUP3 JUMP JUMPDEST PUSH2 0x922 PUSH2 0x2E31 JUMP JUMPDEST DUP1 PUSH1 0xD PUSH0 DUP5 PUSH20 0xFFFFFFFFFFFFFFFFFFFFFFFFFFFFFFFFFFFFFFFF AND PUSH20 0xFFFFFFFFFFFFFFFFFFFFFFFFFFFFFFFFFFFFFFFF AND DUP2 MSTORE PUSH1 0x20 ADD SWAP1 DUP2 MSTORE PUSH1 0x20 ADD PUSH0 KECCAK256 PUSH0 PUSH2 0x100 EXP DUP2 SLOAD DUP2 PUSH1 0xFF MUL NOT AND SWAP1 DUP4 ISZERO ISZERO MUL OR SWAP1 SSTORE POP DUP2 PUSH20 0xFFFFFFFFFFFFFFFFFFFFFFFFFFFFFFFFFFFFFFFF AND PUSH32 0x5B7EF9D8E7FD7FF1DAE13005391BC3AA7CC048C7BA41AF348E5DA4DCBE7323E0 DUP3 PUSH1 0x40 MLOAD PUSH2 0x9BC SWAP2 SWAP1 PUSH2 0x3B5A JUMP JUMPDEST PUSH1 0x40 MLOAD DUP1 SWAP2 SUB SWAP1 LOG2 POP POP JUMP JUMPDEST PUSH2 0x9D0 PUSH2 0x2E31 JUMP JUMPDEST PUSH0 DUP2 GT PUSH2 0xA12 JUMPI PUSH1 0x40 MLOAD PUSH32 0x8C379A000000000000000000000000000000000000000000000000000000000 DUP2 MSTORE PUSH1 0x4 ADD PUSH2 0xA09 SWAP1 PUSH2 0x3E65 JUMP JUMPDEST PUSH1 0x40 MLOAD DUP1 SWAP2 SUB SWAP1 REVERT JUMPDEST PUSH0 DUP4 DUP4 SWAP1 POP GT PUSH2 0xA57 JUMPI PUSH1 0x40 MLOAD PUSH32 0x8C379A000000000000000000000000000000000000000000000000000000000 DUP2 MSTORE PUSH1 0x4 ADD PUSH2 0xA4E SWAP1 PUSH2 0x3ECD JUMP JUMPDEST PUSH1 0x40 MLOAD DUP1 SWAP2 SUB SWAP1 REVERT JUMPDEST PUSH1 0x40 MLOAD DUP1 PUSH1 0x40 ADD PUSH1 0x40 MSTORE DUP1 DUP3 DUP2 MSTORE PUSH1 0x20 ADD PUSH1 0x1 ISZERO ISZERO DUP2 MSTORE POP PUSH1 0xE DUP5 DUP5 PUSH1 0x40 MLOAD PUSH2 0xA81 SWAP3 SWAP2 SWAP1 PUSH2 0x3F19 JUMP JUMPDEST SWAP1 DUP2 MSTORE PUSH1 0x20 ADD PUSH1 0x40 MLOAD DUP1 SWAP2 SUB SWAP1 KECCAK256 PUSH0 DUP3 ADD MLOAD DUP2 PUSH0 ADD SSTORE PUSH1 0x20 DUP3 ADD MLOAD DUP2 PUSH1 0x1 ADD PUSH0 PUSH2 0x100 EXP DUP2 SLOAD DUP2 PUSH1 0xFF MUL NOT AND SWAP1 DUP4 ISZERO ISZERO MUL OR SWAP1 SSTORE POP SWAP1 POP POP PUSH32 0x1031BB7A1B501870578513E45E918B1F07814B52EAB6BBF226EEC1457D3B7FD8 DUP4 DUP4 DUP4 PUSH1 0x40 MLOAD PUSH2 0xAEC SWAP4 SWAP3 SWAP2 SWAP1 PUSH2 0x3F5D JUMP JUMPDEST PUSH1 0x40 MLOAD DUP1 SWAP2 SUB SWAP1 LOG1 POP POP POP JUMP JUMPDEST PUSH0 DUP1 PUSH0 DUP1 PUSH0 PUSH1 0xC PUSH0 DUP8 PUSH20 0xFFFFFFFFFFFFFFFFFFFFFFFFFFFFFFFFFFFFFFFF AND PUSH20 0xFFFFFFFFFFFFFFFFFFFFFFFFFFFFFFFFFFFFFFFF AND DUP2 MSTORE PUSH1 0x20 ADD SWAP1 DUP2 MSTORE PUSH1 0x20 ADD PUSH0 KECCAK256 PUSH1 0x40 MLOAD DUP1 PUSH1 0x80 ADD PUSH1 0x40 MSTORE SWAP1 DUP2 PUSH0 DUP3 ADD SLOAD DUP2 MSTORE PUSH1 0x20 ADD PUSH1 0x1 DUP3 ADD SLOAD DUP2 MSTORE PUSH1 0x20 ADD PUSH1 0x2 DUP3 ADD SLOAD DUP2 MSTORE PUSH1 0x20 ADD PUSH1 0x3 DUP3 ADD PUSH0 SWAP1 SLOAD SWAP1 PUSH2 0x100 EXP SWAP1 DIV PUSH1 0xFF AND ISZERO ISZERO ISZERO ISZERO DUP2 MSTORE POP POP SWAP1 POP DUP1 PUSH0 ADD MLOAD DUP2 PUSH1 0x20 ADD MLOAD DUP3 PUSH1 0x40 ADD MLOAD DUP4 PUSH1 0x60 ADD MLOAD SWAP5 POP SWAP5 POP SWAP5 POP SWAP5 POP POP SWAP2 SWAP4 POP SWAP2 SWAP4 JUMP JUMPDEST PUSH2 0xBAA PUSH2 0x2E31 JUMP JUMPDEST PUSH0 PUSH1 0x2 PUSH0 SWAP1 SLOAD SWAP1 PUSH2 0x100 EXP SWAP1 DIV PUSH20 0xFFFFFFFFFFFFFFFFFFFFFFFFFFFFFFFFFFFFFFFF AND PUSH20 0xFFFFFFFFFFFFFFFFFFFFFFFFFFFFFFFFFFFFFFFF AND PUSH4 0x70A08231 ADDRESS PUSH1 0x40 MLOAD DUP3 PUSH4 0xFFFFFFFF AND PUSH1 0xE0 SHL DUP2 MSTORE PUSH1 0x4 ADD PUSH2 0xC05 SWAP2 SWAP1 PUSH2 0x3A8D JUMP JUMPDEST PUSH1 0x20 PUSH1 0x40 MLOAD DUP1 DUP4 SUB DUP2 DUP7 GAS STATICCALL ISZERO DUP1 ISZERO PUSH2 0xC20 JUMPI RETURNDATASIZE PUSH0 DUP1 RETURNDATACOPY RETURNDATASIZE PUSH0 REVERT JUMPDEST POP POP POP POP PUSH1 0x40 MLOAD RETURNDATASIZE PUSH1 0x1F NOT PUSH1 0x1F DUP3 ADD AND DUP3 ADD DUP1 PUSH1 0x40 MSTORE POP DUP2 ADD SWAP1 PUSH2 0xC44 SWAP2 SWAP1 PUSH2 0x3FA1 JUMP JUMPDEST SWAP1 POP PUSH0 DUP2 GT PUSH2 0xC88 JUMPI PUSH1 0x40 MLOAD PUSH32 0x8C379A000000000000000000000000000000000000000000000000000000000 DUP2 MSTORE PUSH1 0x4 ADD PUSH2 0xC7F SWAP1 PUSH2 0x4016 JUMP JUMPDEST PUSH1 0x40 MLOAD DUP1 SWAP2 SUB SWAP1 REVERT JUMPDEST PUSH2 0xCDB PUSH2 0xC93 PUSH2 0x1385 JUMP JUMPDEST DUP3 PUSH1 0x2 PUSH0 SWAP1 SLOAD SWAP1 PUSH2 0x100 EXP SWAP1 DIV PUSH20 0xFFFFFFFFFFFFFFFFFFFFFFFFFFFFFFFFFFFFFFFF AND PUSH20 0xFFFFFFFFFFFFFFFFFFFFFFFFFFFFFFFFFFFFFFFF AND PUSH2 0x2EB8 SWAP1 SWAP3 SWAP2 SWAP1 PUSH4 0xFFFFFFFF AND JUMP JUMPDEST PUSH32 0x9C6393F251205F9E03559951CAB4C9AE71767B6174F77944A5B0C2FA51FBDA9F DUP2 PUSH1 0x40 MLOAD PUSH2 0xD0A SWAP2 SWAP1 PUSH2 0x3B73 JUMP JUMPDEST PUSH1 0x40 MLOAD DUP1 SWAP2 SUB SWAP1 LOG1 POP JUMP JUMPDEST PUSH1 0xB PUSH1 0x20 MSTORE DUP1 PUSH0 MSTORE PUSH1 0x40 PUSH0 KECCAK256 PUSH0 SWAP2 POP SLOAD SWAP1 PUSH2 0x100 EXP SWAP1 DIV PUSH20 0xFFFFFFFFFFFFFFFFFFFFFFFFFFFFFFFFFFFFFFFF AND DUP2 JUMP JUMPDEST PUSH1 0x6 PUSH0 SWAP1 SLOAD SWAP1 PUSH2 0x100 EXP SWAP1 DIV PUSH1 0xFF AND DUP2 JUMP JUMPDEST PUSH1 0x10 PUSH1 0x20 MSTORE DUP1 PUSH0 MSTORE PUSH1 0x40 PUSH0 KECCAK256 PUSH0 SWAP2 POP SWAP1 POP DUP1 SLOAD PUSH2 0xD73 SWAP1 PUSH2 0x4061 JUMP JUMPDEST DUP1 PUSH1 0x1F ADD PUSH1 0x20 DUP1 SWAP2 DIV MUL PUSH1 0x20 ADD PUSH1 0x40 MLOAD SWAP1 DUP2 ADD PUSH1 0x40 MSTORE DUP1 SWAP3 SWAP2 SWAP1 DUP2 DUP2 MSTORE PUSH1 0x20 ADD DUP3 DUP1 SLOAD PUSH2 0xD9F SWAP1 PUSH2 0x4061 JUMP JUMPDEST DUP1 ISZERO PUSH2 0xDEA JUMPI DUP1 PUSH1 0x1F LT PUSH2 0xDC1 JUMPI PUSH2 0x100 DUP1 DUP4 SLOAD DIV MUL DUP4 MSTORE SWAP2 PUSH1 0x20 ADD SWAP2 PUSH2 0xDEA JUMP JUMPDEST DUP3 ADD SWAP2 SWAP1 PUSH0 MSTORE PUSH1 0x20 PUSH0 KECCAK256 SWAP1 JUMPDEST DUP2 SLOAD DUP2 MSTORE SWAP1 PUSH1 0x1 ADD SWAP1 PUSH1 0x20 ADD DUP1 DUP4 GT PUSH2 0xDCD JUMPI DUP3 SWAP1 SUB PUSH1 0x1F AND DUP3 ADD SWAP2 JUMPDEST POP POP POP POP POP DUP2 JUMP JUMPDEST PUSH1 0x8 PUSH0 SWAP1 SLOAD SWAP1 PUSH2 0x100 EXP SWAP1 DIV PUSH1 0xFF AND DUP2 JUMP JUMPDEST PUSH1 0x4 SLOAD DUP2 JUMP JUMPDEST PUSH1 0x8 PUSH0 SWAP1 SLOAD SWAP1 PUSH2 0x100 EXP SWAP1 DIV PUSH1 0xFF AND ISZERO PUSH2 0xE59 JUMPI PUSH1 0x40 MLOAD PUSH32 0x8C379A000000000000000000000000000000000000000000000000000000000 DUP2 MSTORE PUSH1 0x4 ADD PUSH2 0xE50 SWAP1 PUSH2 0x40DB JUMP JUMPDEST PUSH1 0x40 MLOAD DUP1 SWAP2 SUB SWAP1 REVERT JUMPDEST PUSH1 0xD PUSH0 CALLER PUSH20 0xFFFFFFFFFFFFFFFFFFFFFFFFFFFFFFFFFFFFFFFF AND PUSH20 0xFFFFFFFFFFFFFFFFFFFFFFFFFFFFFFFFFFFFFFFF AND DUP2 MSTORE PUSH1 0x20 ADD SWAP1 DUP2 MSTORE PUSH1 0x20 ADD PUSH0 KECCAK256 PUSH0 SWAP1 SLOAD SWAP1 PUSH2 0x100 EXP SWAP1 DIV PUSH1 0xFF AND ISZERO PUSH2 0xEE3 JUMPI PUSH1 0x40 MLOAD PUSH32 0x8C379A000000000000000000000000000000000000000000000000000000000 DUP2 MSTORE PUSH1 0x4 ADD PUSH2 0xEDA SWAP1 PUSH2 0x4143 JUMP JUMPDEST PUSH1 0x40 MLOAD DUP1 SWAP2 SUB SWAP1 REVERT JUMPDEST PUSH0 DUP3 DUP3 SWAP1 POP GT PUSH2 0xF28 JUMPI PUSH1 0x40 MLOAD PUSH32 0x8C379A000000000000000000000000000000000000000000000000000000000 DUP2 MSTORE PUSH1 0x4 ADD PUSH2 0xF1F SWAP1 PUSH2 0x41AB JUMP JUMPDEST PUSH1 0x40 MLOAD DUP1 SWAP2 SUB SWAP1 REVERT JUMPDEST PUSH0 PUSH20 0xFFFFFFFFFFFFFFFFFFFFFFFFFFFFFFFFFFFFFFFF AND PUSH1 0xA DUP4 DUP4 PUSH1 0x40 MLOAD PUSH2 0xF51 SWAP3 SWAP2 SWAP1 PUSH2 0x3F19 JUMP JUMPDEST SWAP1 DUP2 MSTORE PUSH1 0x20 ADD PUSH1 0x40 MLOAD DUP1 SWAP2 SUB SWAP1 KECCAK256 PUSH0 SWAP1 SLOAD SWAP1 PUSH2 0x100 EXP SWAP1 DIV PUSH20 0xFFFFFFFFFFFFFFFFFFFFFFFFFFFFFFFFFFFFFFFF AND PUSH20 0xFFFFFFFFFFFFFFFFFFFFFFFFFFFFFFFFFFFFFFFF AND SUB PUSH2 0xFD5 JUMPI PUSH1 0x40 MLOAD PUSH32 0x8C379A000000000000000000000000000000000000000000000000000000000 DUP2 MSTORE PUSH1 0x4 ADD PUSH2 0xFCC SWAP1 PUSH2 0x4213 JUMP JUMPDEST PUSH1 0x40 MLOAD DUP1 SWAP2 SUB SWAP1 REVERT JUMPDEST CALLER PUSH20 0xFFFFFFFFFFFFFFFFFFFFFFFFFFFFFFFFFFFFFFFF AND PUSH1 0xA DUP4 DUP4 PUSH1 0x40 MLOAD PUSH2 0xFFE SWAP3 SWAP2 SWAP1 PUSH2 0x3F19 JUMP JUMPDEST SWAP1 DUP2 MSTORE PUSH1 0x20 ADD PUSH1 0x40 MLOAD DUP1 SWAP2 SUB SWAP1 KECCAK256 PUSH0 SWAP1 SLOAD SWAP1 PUSH2 0x100 EXP SWAP1 DIV PUSH20 0xFFFFFFFFFFFFFFFFFFFFFFFFFFFFFFFFFFFFFFFF AND PUSH20 0xFFFFFFFFFFFFFFFFFFFFFFFFFFFFFFFFFFFFFFFF AND SUB PUSH2 0x1082 JUMPI PUSH1 0x40 MLOAD PUSH32 0x8C379A000000000000000000000000000000000000000000000000000000000 DUP2 MSTORE PUSH1 0x4 ADD PUSH2 0x1079 SWAP1 PUSH2 0x427B JUMP JUMPDEST PUSH1 0x40 MLOAD DUP1 SWAP2 SUB SWAP1 REVERT JUMPDEST DUP2 DUP2 PUSH1 0x10 PUSH0 CALLER PUSH20 0xFFFFFFFFFFFFFFFFFFFFFFFFFFFFFFFFFFFFFFFF AND PUSH20 0xFFFFFFFFFFFFFFFFFFFFFFFFFFFFFFFFFFFFFFFF AND DUP2 MSTORE PUSH1 0x20 ADD SWAP1 DUP2 MSTORE PUSH1 0x20 ADD PUSH0 KECCAK256 SWAP2 DUP3 PUSH2 0x10CE SWAP3 SWAP2 SWAP1 PUSH2 0x4437 JUMP JUMPDEST POP CALLER PUSH20 0xFFFFFFFFFFFFFFFFFFFFFFFFFFFFFFFFFFFFFFFF AND PUSH32 0x194B271AB069318DCCEB2B7072A4C72BE03E7E20F87D76CC43F3CF2F039681B0 DUP4 DUP4 PUSH1 0x40 MLOAD PUSH2 0x1117 SWAP3 SWAP2 SWAP1 PUSH2 0x4504 JUMP JUMPDEST PUSH1 0x40 MLOAD DUP1 SWAP2 SUB SWAP1 LOG2 POP POP JUMP JUMPDEST PUSH1 0x9 PUSH1 0x20 MSTORE DUP1 PUSH0 MSTORE PUSH1 0x40 PUSH0 KECCAK256 PUSH0 SWAP2 POP SWAP1 POP DUP1 SLOAD PUSH2 0x113F SWAP1 PUSH2 0x4061 JUMP JUMPDEST DUP1 PUSH1 0x1F ADD PUSH1 0x20 DUP1 SWAP2 DIV MUL PUSH1 0x20 ADD PUSH1 0x40 MLOAD SWAP1 DUP2 ADD PUSH1 0x40 MSTORE DUP1 SWAP3 SWAP2 SWAP1 DUP2 DUP2 MSTORE PUSH1 0x20 ADD DUP3 DUP1 SLOAD PUSH2 0x116B SWAP1 PUSH2 0x4061 JUMP JUMPDEST DUP1 ISZERO PUSH2 0x11B6 JUMPI DUP1 PUSH1 0x1F LT PUSH2 0x118D JUMPI PUSH2 0x100 DUP1 DUP4 SLOAD DIV MUL DUP4 MSTORE SWAP2 PUSH1 0x20 ADD SWAP2 PUSH2 0x11B6 JUMP JUMPDEST DUP3 ADD SWAP2 SWAP1 PUSH0 MSTORE PUSH1 0x20 PUSH0 KECCAK256 SWAP1 JUMPDEST DUP2 SLOAD DUP2 MSTORE SWAP1 PUSH1 0x1 ADD SWAP1 PUSH1 0x20 ADD DUP1 DUP4 GT PUSH2 0x1199 JUMPI DUP3 SWAP1 SUB PUSH1 0x1F AND DUP3 ADD SWAP2 JUMPDEST POP POP POP POP POP DUP2 JUMP JUMPDEST PUSH1 0x5 DUP2 JUMP JUMPDEST PUSH2 0x11CB PUSH2 0x2E31 JUMP JUMPDEST PUSH2 0x11D4 PUSH0 PUSH2 0x2F37 JUMP JUMPDEST JUMP JUMPDEST PUSH1 0x7 SLOAD DUP2 JUMP JUMPDEST PUSH2 0x11E4 PUSH2 0x2E31 JUMP JUMPDEST PUSH0 PUSH20 0xFFFFFFFFFFFFFFFFFFFFFFFFFFFFFFFFFFFFFFFF AND DUP2 PUSH20 0xFFFFFFFFFFFFFFFFFFFFFFFFFFFFFFFFFFFFFFFF AND SUB PUSH2 0x1252 JUMPI PUSH1 0x40 MLOAD PUSH32 0x8C379A000000000000000000000000000000000000000000000000000000000 DUP2 MSTORE PUSH1 0x4 ADD PUSH2 0x1249 SWAP1 PUSH2 0x4570 JUMP JUMPDEST PUSH1 0x40 MLOAD DUP1 SWAP2 SUB SWAP1 REVERT JUMPDEST DUP1 PUSH1 0x2 PUSH0 PUSH2 0x100 EXP DUP2 SLOAD DUP2 PUSH20 0xFFFFFFFFFFFFFFFFFFFFFFFFFFFFFFFFFFFFFFFF MUL NOT AND SWAP1 DUP4 PUSH20 0xFFFFFFFFFFFFFFFFFFFFFFFFFFFFFFFFFFFFFFFF AND MUL OR SWAP1 SSTORE POP PUSH1 0x2 PUSH0 SWAP1 SLOAD SWAP1 PUSH2 0x100 EXP SWAP1 DIV PUSH20 0xFFFFFFFFFFFFFFFFFFFFFFFFFFFFFFFFFFFFFFFF AND PUSH20 0xFFFFFFFFFFFFFFFFFFFFFFFFFFFFFFFFFFFFFFFF AND PUSH4 0x313CE567 PUSH1 0x40 MLOAD DUP2 PUSH4 0xFFFFFFFF AND PUSH1 0xE0 SHL DUP2 MSTORE PUSH1 0x4 ADD PUSH1 0x20 PUSH1 0x40 MLOAD DUP1 DUP4 SUB DUP2 DUP7 GAS STATICCALL ISZERO DUP1 ISZERO PUSH2 0x12FC JUMPI RETURNDATASIZE PUSH0 DUP1 RETURNDATACOPY RETURNDATASIZE PUSH0 REVERT JUMPDEST POP POP POP POP PUSH1 0x40 MLOAD RETURNDATASIZE PUSH1 0x1F NOT PUSH1 0x1F DUP3 ADD AND DUP3 ADD DUP1 PUSH1 0x40 MSTORE POP DUP2 ADD SWAP1 PUSH2 0x1320 SWAP2 SWAP1 PUSH2 0x45B8 JUMP JUMPDEST PUSH1 0x6 PUSH0 PUSH2 0x100 EXP DUP2 SLOAD DUP2 PUSH1 0xFF MUL NOT AND SWAP1 DUP4 PUSH1 0xFF AND MUL OR SWAP1 SSTORE POP DUP1 PUSH20 0xFFFFFFFFFFFFFFFFFFFFFFFFFFFFFFFFFFFFFFFF AND PUSH32 0x2F0C7F17BE551D1F4566672CD67ADBE50173E96632F56FF80D80ACC4AC00F328 PUSH1 0x40 MLOAD PUSH1 0x40 MLOAD DUP1 SWAP2 SUB SWAP1 LOG2 POP JUMP JUMPDEST PUSH1 0x5 SLOAD DUP2 JUMP JUMPDEST PUSH0 PUSH1 0x1 PUSH0 SWAP1 SLOAD SWAP1 PUSH2 0x100 EXP SWAP1 DIV PUSH20 0xFFFFFFFFFFFFFFFFFFFFFFFFFFFFFFFFFFFFFFFF AND SWAP1 POP SWAP1 JUMP JUMPDEST PUSH1 0x8 PUSH0 SWAP1 SLOAD SWAP1 PUSH2 0x100 EXP SWAP1 DIV PUSH1 0xFF AND ISZERO PUSH2 0x13FC JUMPI PUSH1 0x40 MLOAD PUSH32 0x8C379A000000000000000000000000000000000000000000000000000000000 DUP2 MSTORE PUSH1 0x4 ADD PUSH2 0x13F3 SWAP1 PUSH2 0x40DB JUMP JUMPDEST PUSH1 0x40 MLOAD DUP1 SWAP2 SUB SWAP1 REVERT JUMPDEST PUSH1 0xD PUSH0 CALLER PUSH20 0xFFFFFFFFFFFFFFFFFFFFFFFFFFFFFFFFFFFFFFFF AND PUSH20 0xFFFFFFFFFFFFFFFFFFFFFFFFFFFFFFFFFFFFFFFF AND DUP2 MSTORE PUSH1 0x20 ADD SWAP1 DUP2 MSTORE PUSH1 0x20 ADD PUSH0 KECCAK256 PUSH0 SWAP1 SLOAD SWAP1 PUSH2 0x100 EXP SWAP1 DIV PUSH1 0xFF AND ISZERO PUSH2 0x1486 JUMPI PUSH1 0x40 MLOAD PUSH32 0x8C379A000000000000000000000000000000000000000000000000000000000 DUP2 MSTORE PUSH1 0x4 ADD PUSH2 0x147D SWAP1 PUSH2 0x4143 JUMP JUMPDEST PUSH1 0x40 MLOAD DUP1 SWAP2 SUB SWAP1 REVERT JUMPDEST PUSH0 PUSH1 0x9 PUSH0 CALLER PUSH20 0xFFFFFFFFFFFFFFFFFFFFFFFFFFFFFFFFFFFFFFFF AND PUSH20 0xFFFFFFFFFFFFFFFFFFFFFFFFFFFFFFFFFFFFFFFF AND DUP2 MSTORE PUSH1 0x20 ADD SWAP1 DUP2 MSTORE PUSH1 0x20 ADD PUSH0 KECCAK256 DUP1 SLOAD PUSH2 0x14CF SWAP1 PUSH2 0x4061 JUMP JUMPDEST SWAP1 POP EQ PUSH2 0x1511 JUMPI PUSH1 0x40 MLOAD PUSH32 0x8C379A000000000000000000000000000000000000000000000000000000000 DUP2 MSTORE PUSH1 0x4 ADD PUSH2 0x1508 SWAP1 PUSH2 0x462D JUMP JUMPDEST PUSH1 0x40 MLOAD DUP1 SWAP2 SUB SWAP1 REVERT JUMPDEST PUSH0 PUSH2 0x151A PUSH2 0x2FFA JUMP JUMPDEST SWAP1 POP PUSH0 PUSH20 0xFFFFFFFFFFFFFFFFFFFFFFFFFFFFFFFFFFFFFFFF AND PUSH1 0xA DUP3 PUSH1 0x40 MLOAD PUSH2 0x1543 SWAP2 SWAP1 PUSH2 0x467B JUMP JUMPDEST SWAP1 DUP2 MSTORE PUSH1 0x20 ADD PUSH1 0x40 MLOAD DUP1 SWAP2 SUB SWAP1 KECCAK256 PUSH0 SWAP1 SLOAD SWAP1 PUSH2 0x100 EXP SWAP1 DIV PUSH20 0xFFFFFFFFFFFFFFFFFFFFFFFFFFFFFFFFFFFFFFFF AND PUSH20 0xFFFFFFFFFFFFFFFFFFFFFFFFFFFFFFFFFFFFFFFF AND EQ PUSH2 0x15C7 JUMPI PUSH1 0x40 MLOAD PUSH32 0x8C379A000000000000000000000000000000000000000000000000000000000 DUP2 MSTORE PUSH1 0x4 ADD PUSH2 0x15BE SWAP1 PUSH2 0x46DB JUMP JUMPDEST PUSH1 0x40 MLOAD DUP1 SWAP2 SUB SWAP1 REVERT JUMPDEST DUP1 PUSH1 0x9 PUSH0 CALLER PUSH20 0xFFFFFFFFFFFFFFFFFFFFFFFFFFFFFFFFFFFFFFFF AND PUSH20 0xFFFFFFFFFFFFFFFFFFFFFFFFFFFFFFFFFFFFFFFF AND DUP2 MSTORE PUSH1 0x20 ADD SWAP1 DUP2 MSTORE PUSH1 0x20 ADD PUSH0 KECCAK256 SWAP1 DUP2 PUSH2 0x1611 SWAP2 SWAP1 PUSH2 0x46F9 JUMP JUMPDEST POP CALLER PUSH1 0xA DUP3 PUSH1 0x40 MLOAD PUSH2 0x1623 SWAP2 SWAP1 PUSH2 0x467B JUMP JUMPDEST SWAP1 DUP2 MSTORE PUSH1 0x20 ADD PUSH1 0x40 MLOAD DUP1 SWAP2 SUB SWAP1 KECCAK256 PUSH0 PUSH2 0x100 EXP DUP2 SLOAD DUP2 PUSH20 0xFFFFFFFFFFFFFFFFFFFFFFFFFFFFFFFFFFFFFFFF MUL NOT AND SWAP1 DUP4 PUSH20 0xFFFFFFFFFFFFFFFFFFFFFFFFFFFFFFFFFFFFFFFF AND MUL OR SWAP1 SSTORE POP PUSH1 0x1 PUSH1 0xC PUSH0 CALLER PUSH20 0xFFFFFFFFFFFFFFFFFFFFFFFFFFFFFFFFFFFFFFFF AND PUSH20 0xFFFFFFFFFFFFFFFFFFFFFFFFFFFFFFFFFFFFFFFF AND DUP2 MSTORE PUSH1 0x20 ADD SWAP1 DUP2 MSTORE PUSH1 0x20 ADD PUSH0 KECCAK256 PUSH1 0x3 ADD PUSH0 PUSH2 0x100 EXP DUP2 SLOAD DUP2 PUSH1 0xFF MUL NOT AND SWAP1 DUP4 ISZERO ISZERO MUL OR SWAP1 SSTORE POP CALLER PUSH20 0xFFFFFFFFFFFFFFFFFFFFFFFFFFFFFFFFFFFFFFFF AND PUSH32 0x86D606287C9D4F3A350B0E6EA78A04D97425FFF091713F4A433942578DC6F161 DUP3 PUSH1 0x40 MLOAD PUSH2 0x170C SWAP2 SWAP1 PUSH2 0x3B3A JUMP JUMPDEST PUSH1 0x40 MLOAD DUP1 SWAP2 SUB SWAP1 LOG2 POP JUMP JUMPDEST PUSH2 0x171F PUSH2 0x3154 JUMP JUMPDEST PUSH1 0x8 PUSH0 SWAP1 SLOAD SWAP1 PUSH2 0x100 EXP SWAP1 DIV PUSH1 0xFF AND ISZERO PUSH2 0x176E JUMPI PUSH1 0x40 MLOAD PUSH32 0x8C379A000000000000000000000000000000000000000000000000000000000 DUP2 MSTORE PUSH1 0x4 ADD PUSH2 0x1765 SWAP1 PUSH2 0x40DB JUMP JUMPDEST PUSH1 0x40 MLOAD DUP1 SWAP2 SUB SWAP1 REVERT JUMPDEST PUSH1 0xD PUSH0 CALLER PUSH20 0xFFFFFFFFFFFFFFFFFFFFFFFFFFFFFFFFFFFFFFFF AND PUSH20 0xFFFFFFFFFFFFFFFFFFFFFFFFFFFFFFFFFFFFFFFF AND DUP2 MSTORE PUSH1 0x20 ADD SWAP1 DUP2 MSTORE PUSH1 0x20 ADD PUSH0 KECCAK256 PUSH0 SWAP1 SLOAD SWAP1 PUSH2 0x100 EXP SWAP1 DIV PUSH1 0xFF AND ISZERO PUSH2 0x17F8 JUMPI PUSH1 0x40 MLOAD PUSH32 0x8C379A000000000000000000000000000000000000000000000000000000000 DUP2 MSTORE PUSH1 0x4 ADD PUSH2 0x17EF SWAP1 PUSH2 0x4143 JUMP JUMPDEST PUSH1 0x40 MLOAD DUP1 SWAP2 SUB SWAP1 REVERT JUMPDEST PUSH0 DUP4 GT PUSH2 0x183A JUMPI PUSH1 0x40 MLOAD PUSH32 0x8C379A000000000000000000000000000000000000000000000000000000000 DUP2 MSTORE PUSH1 0x4 ADD PUSH2 0x1831 SWAP1 PUSH2 0x4838 JUMP JUMPDEST PUSH1 0x40 MLOAD DUP1 SWAP2 SUB SWAP1 REVERT JUMPDEST PUSH1 0x5 SLOAD CALLVALUE LT ISZERO PUSH2 0x184B PUSH1 0x5 SLOAD PUSH2 0x3198 JUMP JUMPDEST PUSH1 0x40 MLOAD PUSH1 0x20 ADD PUSH2 0x185B SWAP2 SWAP1 PUSH2 0x4910 JUMP JUMPDEST PUSH1 0x40 MLOAD PUSH1 0x20 DUP2 DUP4 SUB SUB DUP2 MSTORE SWAP1 PUSH1 0x40 MSTORE SWAP1 PUSH2 0x18AB JUMPI PUSH1 0x40 MLOAD PUSH32 0x8C379A000000000000000000000000000000000000000000000000000000000 DUP2 MSTORE PUSH1 0x4 ADD PUSH2 0x18A2 SWAP2 SWAP1 PUSH2 0x3B3A JUMP JUMPDEST PUSH1 0x40 MLOAD DUP1 SWAP2 SUB SWAP1 REVERT JUMPDEST POP PUSH0 PUSH2 0x18B6 DUP5 PUSH2 0x28AC JUMP JUMPDEST SWAP1 POP PUSH0 PUSH1 0x64 DUP3 PUSH2 0x18C6 SWAP2 SWAP1 PUSH2 0x4996 JUMP JUMPDEST SWAP1 POP DUP2 CALLVALUE LT ISZERO DUP1 ISZERO PUSH2 0x18E3 JUMPI POP DUP1 DUP3 PUSH2 0x18DF SWAP2 SWAP1 PUSH2 0x49C6 JUMP JUMPDEST CALLVALUE GT ISZERO JUMPDEST PUSH2 0x18EC DUP4 PUSH2 0x3198 JUMP JUMPDEST PUSH2 0x18F5 CALLVALUE PUSH2 0x3198 JUMP JUMPDEST PUSH1 0x40 MLOAD PUSH1 0x20 ADD PUSH2 0x1906 SWAP3 SWAP2 SWAP1 PUSH2 0x4AB3 JUMP JUMPDEST PUSH1 0x40 MLOAD PUSH1 0x20 DUP2 DUP4 SUB SUB DUP2 MSTORE SWAP1 PUSH1 0x40 MSTORE SWAP1 PUSH2 0x1956 JUMPI PUSH1 0x40 MLOAD PUSH32 0x8C379A000000000000000000000000000000000000000000000000000000000 DUP2 MSTORE PUSH1 0x4 ADD PUSH2 0x194D SWAP2 SWAP1 PUSH2 0x3B3A JUMP JUMPDEST PUSH1 0x40 MLOAD DUP1 SWAP2 SUB SWAP1 REVERT JUMPDEST POP PUSH0 PUSH1 0x6 PUSH0 SWAP1 SLOAD SWAP1 PUSH2 0x100 EXP SWAP1 DIV PUSH1 0xFF AND PUSH1 0xA PUSH2 0x1973 SWAP2 SWAP1 PUSH2 0x4C26 JUMP JUMPDEST DUP7 PUSH2 0x197E SWAP2 SWAP1 PUSH2 0x4C70 JUMP JUMPDEST SWAP1 POP PUSH1 0x2 PUSH0 SWAP1 SLOAD SWAP1 PUSH2 0x100 EXP SWAP1 DIV PUSH20 0xFFFFFFFFFFFFFFFFFFFFFFFFFFFFFFFFFFFFFFFF AND PUSH20 0xFFFFFFFFFFFFFFFFFFFFFFFFFFFFFFFFFFFFFFFF AND PUSH4 0x70A08231 ADDRESS PUSH1 0x40 MLOAD DUP3 PUSH4 0xFFFFFFFF AND PUSH1 0xE0 SHL DUP2 MSTORE PUSH1 0x4 ADD PUSH2 0x19DA SWAP2 SWAP1 PUSH2 0x3A8D JUMP JUMPDEST PUSH1 0x20 PUSH1 0x40 MLOAD DUP1 DUP4 SUB DUP2 DUP7 GAS STATICCALL ISZERO DUP1 ISZERO PUSH2 0x19F5 JUMPI RETURNDATASIZE PUSH0 DUP1 RETURNDATACOPY RETURNDATASIZE PUSH0 REVERT JUMPDEST POP POP POP POP PUSH1 0x40 MLOAD RETURNDATASIZE PUSH1 0x1F NOT PUSH1 0x1F DUP3 ADD AND DUP3 ADD DUP1 PUSH1 0x40 MSTORE POP DUP2 ADD SWAP1 PUSH2 0x1A19 SWAP2 SWAP1 PUSH2 0x3FA1 JUMP JUMPDEST DUP2 GT ISZERO PUSH2 0x1A5B JUMPI PUSH1 0x40 MLOAD PUSH32 0x8C379A000000000000000000000000000000000000000000000000000000000 DUP2 MSTORE PUSH1 0x4 ADD PUSH2 0x1A52 SWAP1 PUSH2 0x4D21 JUMP JUMPDEST PUSH1 0x40 MLOAD DUP1 SWAP2 SUB SWAP1 REVERT JUMPDEST PUSH0 PUSH1 0x6 PUSH0 SWAP1 SLOAD SWAP1 PUSH2 0x100 EXP SWAP1 DIV PUSH1 0xFF AND PUSH1 0xA PUSH2 0x1A77 SWAP2 SWAP1 PUSH2 0x4C26 JUMP JUMPDEST DUP8 PUSH2 0x1A82 SWAP2 SWAP1 PUSH2 0x4C70 JUMP JUMPDEST SWAP1 POP PUSH0 DUP1 DUP8 MLOAD GT ISZERO PUSH2 0x1C85 JUMPI PUSH0 PUSH1 0xE DUP9 PUSH1 0x40 MLOAD PUSH2 0x1A9F SWAP2 SWAP1 PUSH2 0x467B JUMP JUMPDEST SWAP1 DUP2 MSTORE PUSH1 0x20 ADD PUSH1 0x40 MLOAD DUP1 SWAP2 SUB SWAP1 KECCAK256 SWAP1 POP DUP1 PUSH1 0x1 ADD PUSH0 SWAP1 SLOAD SWAP1 PUSH2 0x100 EXP SWAP1 DIV PUSH1 0xFF AND PUSH2 0x1AFF JUMPI PUSH1 0x40 MLOAD PUSH32 0x8C379A000000000000000000000000000000000000000000000000000000000 DUP2 MSTORE PUSH1 0x4 ADD PUSH2 0x1AF6 SWAP1 PUSH2 0x4D89 JUMP JUMPDEST PUSH1 0x40 MLOAD DUP1 SWAP2 SUB SWAP1 REVERT JUMPDEST PUSH1 0xF PUSH0 CALLER PUSH20 0xFFFFFFFFFFFFFFFFFFFFFFFFFFFFFFFFFFFFFFFF AND PUSH20 0xFFFFFFFFFFFFFFFFFFFFFFFFFFFFFFFFFFFFFFFF AND DUP2 MSTORE PUSH1 0x20 ADD SWAP1 DUP2 MSTORE PUSH1 0x20 ADD PUSH0 KECCAK256 DUP9 PUSH1 0x40 MLOAD PUSH2 0x1B4A SWAP2 SWAP1 PUSH2 0x467B JUMP JUMPDEST SWAP1 DUP2 MSTORE PUSH1 0x20 ADD PUSH1 0x40 MLOAD DUP1 SWAP2 SUB SWAP1 KECCAK256 PUSH0 SWAP1 SLOAD SWAP1 PUSH2 0x100 EXP SWAP1 DIV PUSH1 0xFF AND ISZERO PUSH2 0x1BA5 JUMPI PUSH1 0x40 MLOAD PUSH32 0x8C379A000000000000000000000000000000000000000000000000000000000 DUP2 MSTORE PUSH1 0x4 ADD PUSH2 0x1B9C SWAP1 PUSH2 0x4DF1 JUMP JUMPDEST PUSH1 0x40 MLOAD DUP1 SWAP2 SUB SWAP1 REVERT JUMPDEST PUSH1 0x64 DUP2 PUSH0 ADD SLOAD DUP5 PUSH2 0x1BB6 SWAP2 SWAP1 PUSH2 0x4C70 JUMP JUMPDEST PUSH2 0x1BC0 SWAP2 SWAP1 PUSH2 0x4996 JUMP JUMPDEST SWAP2 POP PUSH1 0x1 PUSH1 0xF PUSH0 CALLER PUSH20 0xFFFFFFFFFFFFFFFFFFFFFFFFFFFFFFFFFFFFFFFF AND PUSH20 0xFFFFFFFFFFFFFFFFFFFFFFFFFFFFFFFFFFFFFFFF AND DUP2 MSTORE PUSH1 0x20 ADD SWAP1 DUP2 MSTORE PUSH1 0x20 ADD PUSH0 KECCAK256 DUP10 PUSH1 0x40 MLOAD PUSH2 0x1C0F SWAP2 SWAP1 PUSH2 0x467B JUMP JUMPDEST SWAP1 DUP2 MSTORE PUSH1 0x20 ADD PUSH1 0x40 MLOAD DUP1 SWAP2 SUB SWAP1 KECCAK256 PUSH0 PUSH2 0x100 EXP DUP2 SLOAD DUP2 PUSH1 0xFF MUL NOT AND SWAP1 DUP4 ISZERO ISZERO MUL OR SWAP1 SSTORE POP CALLER PUSH20 0xFFFFFFFFFFFFFFFFFFFFFFFFFFFFFFFFFFFFFFFF AND PUSH32 0x41B508F10DBB6E563911EEBBF61C7B5DC2E5914A9481917B3CAE6C1C4F0369DC DUP10 DUP5 PUSH1 0x40 MLOAD PUSH2 0x1C7B SWAP3 SWAP2 SWAP1 PUSH2 0x4E0F JUMP JUMPDEST PUSH1 0x40 MLOAD DUP1 SWAP2 SUB SWAP1 LOG2 POP JUMPDEST PUSH0 DUP2 DUP4 PUSH2 0x1C92 SWAP2 SWAP1 PUSH2 0x49C6 JUMP JUMPDEST SWAP1 POP PUSH2 0x1CE0 CALLER DUP3 PUSH1 0x2 PUSH0 SWAP1 SLOAD SWAP1 PUSH2 0x100 EXP SWAP1 DIV PUSH20 0xFFFFFFFFFFFFFFFFFFFFFFFFFFFFFFFFFFFFFFFF AND PUSH20 0xFFFFFFFFFFFFFFFFFFFFFFFFFFFFFFFFFFFFFFFF AND PUSH2 0x2EB8 SWAP1 SWAP3 SWAP2 SWAP1 PUSH4 0xFFFFFFFF AND JUMP JUMPDEST PUSH1 0x7 PUSH0 DUP2 SLOAD DUP1 SWAP3 SWAP2 SWAP1 PUSH2 0x1CF2 SWAP1 PUSH2 0x4E3D JUMP JUMPDEST SWAP2 SWAP1 POP SSTORE POP DUP9 PUSH1 0x4 PUSH0 DUP3 DUP3 SLOAD PUSH2 0x1D08 SWAP2 SWAP1 PUSH2 0x49C6 JUMP JUMPDEST SWAP3 POP POP DUP2 SWAP1 SSTORE POP PUSH2 0x1D19 DUP8 DUP11 PUSH2 0x32F1 JUMP JUMPDEST CALLER PUSH20 0xFFFFFFFFFFFFFFFFFFFFFFFFFFFFFFFFFFFFFFFF AND PUSH32 0x1194345466E1634BE30DE2B1F42FF3942B5D68D85CF8776AF6DD47F3D45E4FE4 CALLVALUE DUP12 DUP6 PUSH1 0x40 MLOAD PUSH2 0x1D63 SWAP4 SWAP3 SWAP2 SWAP1 PUSH2 0x4E84 JUMP JUMPDEST PUSH1 0x40 MLOAD DUP1 SWAP2 SUB SWAP1 LOG2 PUSH0 PUSH2 0x1D74 PUSH2 0x1385 JUMP JUMPDEST PUSH20 0xFFFFFFFFFFFFFFFFFFFFFFFFFFFFFFFFFFFFFFFF AND CALLVALUE PUSH1 0x40 MLOAD PUSH2 0x1D97 SWAP1 PUSH2 0x4EE6 JUMP JUMPDEST PUSH0 PUSH1 0x40 MLOAD DUP1 DUP4 SUB DUP2 DUP6 DUP8 GAS CALL SWAP3 POP POP POP RETURNDATASIZE DUP1 PUSH0 DUP2 EQ PUSH2 0x1DD1 JUMPI PUSH1 0x40 MLOAD SWAP2 POP PUSH1 0x1F NOT PUSH1 0x3F RETURNDATASIZE ADD AND DUP3 ADD PUSH1 0x40 MSTORE RETURNDATASIZE DUP3 MSTORE RETURNDATASIZE PUSH0 PUSH1 0x20 DUP5 ADD RETURNDATACOPY PUSH2 0x1DD6 JUMP JUMPDEST PUSH1 0x60 SWAP2 POP JUMPDEST POP POP SWAP1 POP DUP1 PUSH2 0x1E1A JUMPI PUSH1 0x40 MLOAD PUSH32 0x8C379A000000000000000000000000000000000000000000000000000000000 DUP2 MSTORE PUSH1 0x4 ADD PUSH2 0x1E11 SWAP1 PUSH2 0x4F44 JUMP JUMPDEST PUSH1 0x40 MLOAD DUP1 SWAP2 SUB SWAP1 REVERT JUMPDEST PUSH2 0x1E22 PUSH2 0x1385 JUMP JUMPDEST PUSH20 0xFFFFFFFFFFFFFFFFFFFFFFFFFFFFFFFFFFFFFFFF AND PUSH32 0x2FD921D3A3BEAD9530D596890C4B7F7A45DB5150FF0090311398140652F57759 CALLVALUE PUSH1 0x40 MLOAD PUSH2 0x1E67 SWAP2 SWAP1 PUSH2 0x3B73 JUMP JUMPDEST PUSH1 0x40 MLOAD DUP1 SWAP2 SUB SWAP1 LOG2 POP POP POP POP POP POP POP PUSH2 0x1E7E PUSH2 0x3566 JUMP JUMPDEST POP POP POP JUMP JUMPDEST PUSH2 0x1E8B PUSH2 0x2E31 JUMP JUMPDEST PUSH1 0x8 PUSH0 SWAP1 SLOAD SWAP1 PUSH2 0x100 EXP SWAP1 DIV PUSH1 0xFF AND ISZERO PUSH1 0x8 PUSH0 PUSH2 0x100 EXP DUP2 SLOAD DUP2 PUSH1 0xFF MUL NOT AND SWAP1 DUP4 ISZERO ISZERO MUL OR SWAP1 SSTORE POP JUMP JUMPDEST PUSH2 0x1EBD PUSH2 0x2E31 JUMP JUMPDEST PUSH0 DUP2 GT PUSH2 0x1EFF JUMPI PUSH1 0x40 MLOAD PUSH32 0x8C379A000000000000000000000000000000000000000000000000000000000 DUP2 MSTORE PUSH1 0x4 ADD PUSH2 0x1EF6 SWAP1 PUSH2 0x4FAC JUMP JUMPDEST PUSH1 0x40 MLOAD DUP1 SWAP2 SUB SWAP1 REVERT JUMPDEST DUP1 PUSH1 0x5 DUP2 SWAP1 SSTORE POP PUSH32 0x6E5D302F0C4DCA55E2CFD7FF5FF1AAA9CD23FC83231AFC33DE77D9E5E6351183 DUP2 PUSH1 0x40 MLOAD PUSH2 0x1F35 SWAP2 SWAP1 PUSH2 0x3B73 JUMP JUMPDEST PUSH1 0x40 MLOAD DUP1 SWAP2 SUB SWAP1 LOG1 POP JUMP JUMPDEST PUSH0 DUP1 PUSH0 PUSH1 0xE DUP6 DUP6 PUSH1 0x40 MLOAD PUSH2 0x1F55 SWAP3 SWAP2 SWAP1 PUSH2 0x3F19 JUMP JUMPDEST SWAP1 DUP2 MSTORE PUSH1 0x20 ADD PUSH1 0x40 MLOAD DUP1 SWAP2 SUB SWAP1 KECCAK256 PUSH1 0x40 MLOAD DUP1 PUSH1 0x40 ADD PUSH1 0x40 MSTORE SWAP1 DUP2 PUSH0 DUP3 ADD SLOAD DUP2 MSTORE PUSH1 0x20 ADD PUSH1 0x1 DUP3 ADD PUSH0 SWAP1 SLOAD SWAP1 PUSH2 0x100 EXP SWAP1 DIV PUSH1 0xFF AND ISZERO ISZERO ISZERO ISZERO DUP2 MSTORE POP POP SWAP1 POP DUP1 PUSH1 0x20 ADD MLOAD DUP2 PUSH0 ADD MLOAD SWAP3 POP SWAP3 POP POP SWAP3 POP SWAP3 SWAP1 POP JUMP JUMPDEST PUSH1 0xA DUP2 DUP1 MLOAD PUSH1 0x20 DUP2 ADD DUP3 ADD DUP1 MLOAD DUP5 DUP3 MSTORE PUSH1 0x20 DUP4 ADD PUSH1 0x20 DUP6 ADD KECCAK256 DUP2 DUP4 MSTORE DUP1 SWAP6 POP POP POP POP POP POP PUSH0 SWAP2 POP SLOAD SWAP1 PUSH2 0x100 EXP SWAP1 DIV PUSH20 0xFFFFFFFFFFFFFFFFFFFFFFFFFFFFFFFFFFFFFFFF AND DUP2 JUMP JUMPDEST PUSH2 0x1FF8 PUSH2 0x2E31 JUMP JUMPDEST PUSH1 0x8 PUSH0 SWAP1 SLOAD SWAP1 PUSH2 0x100 EXP SWAP1 DIV PUSH1 0xFF AND PUSH2 0x2046 JUMPI PUSH1 0x40 MLOAD PUSH32 0x8C379A000000000000000000000000000000000000000000000000000000000 DUP2 MSTORE PUSH1 0x4 ADD PUSH2 0x203D SWAP1 PUSH2 0x5014 JUMP JUMPDEST PUSH1 0x40 MLOAD DUP1 SWAP2 SUB SWAP1 REVERT JUMPDEST PUSH0 PUSH1 0x2 PUSH0 SWAP1 SLOAD SWAP1 PUSH2 0x100 EXP SWAP1 DIV PUSH20 0xFFFFFFFFFFFFFFFFFFFFFFFFFFFFFFFFFFFFFFFF AND PUSH20 0xFFFFFFFFFFFFFFFFFFFFFFFFFFFFFFFFFFFFFFFF AND PUSH4 0x70A08231 ADDRESS PUSH1 0x40 MLOAD DUP3 PUSH4 0xFFFFFFFF AND PUSH1 0xE0 SHL DUP2 MSTORE PUSH1 0x4 ADD PUSH2 0x20A1 SWAP2 SWAP1 PUSH2 0x3A8D JUMP JUMPDEST PUSH1 0x20 PUSH1 0x40 MLOAD DUP1 DUP4 SUB DUP2 DUP7 GAS STATICCALL ISZERO DUP1 ISZERO PUSH2 0x20BC JUMPI RETURNDATASIZE PUSH0 DUP1 RETURNDATACOPY RETURNDATASIZE PUSH0 REVERT JUMPDEST POP POP POP POP PUSH1 0x40 MLOAD RETURNDATASIZE PUSH1 0x1F NOT PUSH1 0x1F DUP3 ADD AND DUP3 ADD DUP1 PUSH1 0x40 MSTORE POP DUP2 ADD SWAP1 PUSH2 0x20E0 SWAP2 SWAP1 PUSH2 0x3FA1 JUMP JUMPDEST SWAP1 POP PUSH0 SELFBALANCE SWAP1 POP PUSH0 DUP3 GT ISZERO PUSH2 0x21B1 JUMPI PUSH2 0x2141 PUSH2 0x20F9 PUSH2 0x1385 JUMP JUMPDEST DUP4 PUSH1 0x2 PUSH0 SWAP1 SLOAD SWAP1 PUSH2 0x100 EXP SWAP1 DIV PUSH20 0xFFFFFFFFFFFFFFFFFFFFFFFFFFFFFFFFFFFFFFFF AND PUSH20 0xFFFFFFFFFFFFFFFFFFFFFFFFFFFFFFFFFFFFFFFF AND PUSH2 0x2EB8 SWAP1 SWAP3 SWAP2 SWAP1 PUSH4 0xFFFFFFFF AND JUMP JUMPDEST PUSH1 0x2 PUSH0 SWAP1 SLOAD SWAP1 PUSH2 0x100 EXP SWAP1 DIV PUSH20 0xFFFFFFFFFFFFFFFFFFFFFFFFFFFFFFFFFFFFFFFF AND PUSH20 0xFFFFFFFFFFFFFFFFFFFFFFFFFFFFFFFFFFFFFFFF AND PUSH32 0x5FAFA99D0643513820BE26656B45130B01E1C03062E1266BF36F88CBD3BD9695 DUP4 PUSH1 0x40 MLOAD PUSH2 0x21A8 SWAP2 SWAP1 PUSH2 0x3B73 JUMP JUMPDEST PUSH1 0x40 MLOAD DUP1 SWAP2 SUB SWAP1 LOG2 JUMPDEST PUSH0 DUP2 GT ISZERO PUSH2 0x22B8 JUMPI PUSH0 PUSH2 0x21C2 PUSH2 0x1385 JUMP JUMPDEST PUSH20 0xFFFFFFFFFFFFFFFFFFFFFFFFFFFFFFFFFFFFFFFF AND DUP3 PUSH1 0x40 MLOAD PUSH2 0x21E5 SWAP1 PUSH2 0x4EE6 JUMP JUMPDEST PUSH0 PUSH1 0x40 MLOAD DUP1 DUP4 SUB DUP2 DUP6 DUP8 GAS CALL SWAP3 POP POP POP RETURNDATASIZE DUP1 PUSH0 DUP2 EQ PUSH2 0x221F JUMPI PUSH1 0x40 MLOAD SWAP2 POP PUSH1 0x1F NOT PUSH1 0x3F RETURNDATASIZE ADD AND DUP3 ADD PUSH1 0x40 MSTORE RETURNDATASIZE DUP3 MSTORE RETURNDATASIZE PUSH0 PUSH1 0x20 DUP5 ADD RETURNDATACOPY PUSH2 0x2224 JUMP JUMPDEST PUSH1 0x60 SWAP2 POP JUMPDEST POP POP SWAP1 POP DUP1 PUSH2 0x2268 JUMPI PUSH1 0x40 MLOAD PUSH32 0x8C379A000000000000000000000000000000000000000000000000000000000 DUP2 MSTORE PUSH1 0x4 ADD PUSH2 0x225F SWAP1 PUSH2 0x4F44 JUMP JUMPDEST PUSH1 0x40 MLOAD DUP1 SWAP2 SUB SWAP1 REVERT JUMPDEST PUSH0 PUSH20 0xFFFFFFFFFFFFFFFFFFFFFFFFFFFFFFFFFFFFFFFF AND PUSH32 0x5FAFA99D0643513820BE26656B45130B01E1C03062E1266BF36F88CBD3BD9695 DUP4 PUSH1 0x40 MLOAD PUSH2 0x22AE SWAP2 SWAP1 PUSH2 0x3B73 JUMP JUMPDEST PUSH1 0x40 MLOAD DUP1 SWAP2 SUB SWAP1 LOG2 POP JUMPDEST POP POP JUMP JUMPDEST PUSH1 0xD PUSH1 0x20 MSTORE DUP1 PUSH0 MSTORE PUSH1 0x40 PUSH0 KECCAK256 PUSH0 SWAP2 POP SLOAD SWAP1 PUSH2 0x100 EXP SWAP1 DIV PUSH1 0xFF AND DUP2 JUMP JUMPDEST PUSH1 0xF PUSH1 0x20 MSTORE DUP2 PUSH0 MSTORE PUSH1 0x40 PUSH0 KECCAK256 DUP2 DUP1 MLOAD PUSH1 0x20 DUP2 ADD DUP3 ADD DUP1 MLOAD DUP5 DUP3 MSTORE PUSH1 0x20 DUP4 ADD PUSH1 0x20 DUP6 ADD KECCAK256 DUP2 DUP4 MSTORE DUP1 SWAP6 POP POP POP POP POP POP PUSH0 SWAP2 POP SWAP2 POP SWAP1 SLOAD SWAP1 PUSH2 0x100 EXP SWAP1 DIV PUSH1 0xFF AND DUP2 JUMP JUMPDEST PUSH1 0x3 SLOAD DUP2 JUMP JUMPDEST PUSH1 0x8 PUSH0 SWAP1 SLOAD SWAP1 PUSH2 0x100 EXP SWAP1 DIV PUSH1 0xFF AND ISZERO PUSH2 0x2370 JUMPI PUSH1 0x40 MLOAD PUSH32 0x8C379A000000000000000000000000000000000000000000000000000000000 DUP2 MSTORE PUSH1 0x4 ADD PUSH2 0x2367 SWAP1 PUSH2 0x40DB JUMP JUMPDEST PUSH1 0x40 MLOAD DUP1 SWAP2 SUB SWAP1 REVERT JUMPDEST PUSH1 0xD PUSH0 CALLER PUSH20 0xFFFFFFFFFFFFFFFFFFFFFFFFFFFFFFFFFFFFFFFF AND PUSH20 0xFFFFFFFFFFFFFFFFFFFFFFFFFFFFFFFFFFFFFFFF AND DUP2 MSTORE PUSH1 0x20 ADD SWAP1 DUP2 MSTORE PUSH1 0x20 ADD PUSH0 KECCAK256 PUSH0 SWAP1 SLOAD SWAP1 PUSH2 0x100 EXP SWAP1 DIV PUSH1 0xFF AND ISZERO PUSH2 0x23FA JUMPI PUSH1 0x40 MLOAD PUSH32 0x8C379A000000000000000000000000000000000000000000000000000000000 DUP2 MSTORE PUSH1 0x4 ADD PUSH2 0x23F1 SWAP1 PUSH2 0x4143 JUMP JUMPDEST PUSH1 0x40 MLOAD DUP1 SWAP2 SUB SWAP1 REVERT JUMPDEST PUSH0 PUSH1 0x9 PUSH0 CALLER PUSH20 0xFFFFFFFFFFFFFFFFFFFFFFFFFFFFFFFFFFFFFFFF AND PUSH20 0xFFFFFFFFFFFFFFFFFFFFFFFFFFFFFFFFFFFFFFFF AND DUP2 MSTORE PUSH1 0x20 ADD SWAP1 DUP2 MSTORE PUSH1 0x20 ADD PUSH0 KECCAK256 DUP1 SLOAD PUSH2 0x2443 SWAP1 PUSH2 0x4061 JUMP JUMPDEST SWAP1 POP EQ PUSH2 0x2485 JUMPI PUSH1 0x40 MLOAD PUSH32 0x8C379A000000000000000000000000000000000000000000000000000000000 DUP2 MSTORE PUSH1 0x4 ADD PUSH2 0x247C SWAP1 PUSH2 0x507C JUMP JUMPDEST PUSH1 0x40 MLOAD DUP1 SWAP2 SUB SWAP1 REVERT JUMPDEST PUSH0 PUSH20 0xFFFFFFFFFFFFFFFFFFFFFFFFFFFFFFFFFFFFFFFF AND PUSH1 0xB PUSH0 CALLER PUSH20 0xFFFFFFFFFFFFFFFFFFFFFFFFFFFFFFFFFFFFFFFF AND PUSH20 0xFFFFFFFFFFFFFFFFFFFFFFFFFFFFFFFFFFFFFFFF AND DUP2 MSTORE PUSH1 0x20 ADD SWAP1 DUP2 MSTORE PUSH1 0x20 ADD PUSH0 KECCAK256 PUSH0 SWAP1 SLOAD SWAP1 PUSH2 0x100 EXP SWAP1 DIV PUSH20 0xFFFFFFFFFFFFFFFFFFFFFFFFFFFFFFFFFFFFFFFF AND PUSH20 0xFFFFFFFFFFFFFFFFFFFFFFFFFFFFFFFFFFFFFFFF AND EQ PUSH2 0x254F JUMPI PUSH1 0x40 MLOAD PUSH32 0x8C379A000000000000000000000000000000000000000000000000000000000 DUP2 MSTORE PUSH1 0x4 ADD PUSH2 0x2546 SWAP1 PUSH2 0x50E4 JUMP JUMPDEST PUSH1 0x40 MLOAD DUP1 SWAP2 SUB SWAP1 REVERT JUMPDEST PUSH0 PUSH1 0xA DUP4 DUP4 PUSH1 0x40 MLOAD PUSH2 0x2562 SWAP3 SWAP2 SWAP1 PUSH2 0x3F19 JUMP JUMPDEST SWAP1 DUP2 MSTORE PUSH1 0x20 ADD PUSH1 0x40 MLOAD DUP1 SWAP2 SUB SWAP1 KECCAK256 PUSH0 SWAP1 SLOAD SWAP1 PUSH2 0x100 EXP SWAP1 DIV PUSH20 0xFFFFFFFFFFFFFFFFFFFFFFFFFFFFFFFFFFFFFFFF AND SWAP1 POP PUSH0 PUSH20 0xFFFFFFFFFFFFFFFFFFFFFFFFFFFFFFFFFFFFFFFF AND DUP2 PUSH20 0xFFFFFFFFFFFFFFFFFFFFFFFFFFFFFFFFFFFFFFFF AND SUB PUSH2 0x2600 JUMPI PUSH1 0x40 MLOAD PUSH32 0x8C379A000000000000000000000000000000000000000000000000000000000 DUP2 MSTORE PUSH1 0x4 ADD PUSH2 0x25F7 SWAP1 PUSH2 0x3ECD JUMP JUMPDEST PUSH1 0x40 MLOAD DUP1 SWAP2 SUB SWAP1 REVERT JUMPDEST CALLER PUSH20 0xFFFFFFFFFFFFFFFFFFFFFFFFFFFFFFFFFFFFFFFF AND DUP2 PUSH20 0xFFFFFFFFFFFFFFFFFFFFFFFFFFFFFFFFFFFFFFFF AND SUB PUSH2 0x266E JUMPI PUSH1 0x40 MLOAD PUSH32 0x8C379A000000000000000000000000000000000000000000000000000000000 DUP2 MSTORE PUSH1 0x4 ADD PUSH2 0x2665 SWAP1 PUSH2 0x514C JUMP JUMPDEST PUSH1 0x40 MLOAD DUP1 SWAP2 SUB SWAP1 REVERT JUMPDEST PUSH1 0xC PUSH0 DUP3 PUSH20 0xFFFFFFFFFFFFFFFFFFFFFFFFFFFFFFFFFFFFFFFF AND PUSH20 0xFFFFFFFFFFFFFFFFFFFFFFFFFFFFFFFFFFFFFFFF AND DUP2 MSTORE PUSH1 0x20 ADD SWAP1 DUP2 MSTORE PUSH1 0x20 ADD PUSH0 KECCAK256 PUSH1 0x3 ADD PUSH0 SWAP1 SLOAD SWAP1 PUSH2 0x100 EXP SWAP1 DIV PUSH1 0xFF AND PUSH2 0x26FA JUMPI PUSH1 0x40 MLOAD PUSH32 0x8C379A000000000000000000000000000000000000000000000000000000000 DUP2 MSTORE PUSH1 0x4 ADD PUSH2 0x26F1 SWAP1 PUSH2 0x51B4 JUMP JUMPDEST PUSH1 0x40 MLOAD DUP1 SWAP2 SUB SWAP1 REVERT JUMPDEST DUP1 PUSH1 0xB PUSH0 CALLER PUSH20 0xFFFFFFFFFFFFFFFFFFFFFFFFFFFFFFFFFFFFFFFF AND PUSH20 0xFFFFFFFFFFFFFFFFFFFFFFFFFFFFFFFFFFFFFFFF AND DUP2 MSTORE PUSH1 0x20 ADD SWAP1 DUP2 MSTORE PUSH1 0x20 ADD PUSH0 KECCAK256 PUSH0 PUSH2 0x100 EXP DUP2 SLOAD DUP2 PUSH20 0xFFFFFFFFFFFFFFFFFFFFFFFFFFFFFFFFFFFFFFFF MUL NOT AND SWAP1 DUP4 PUSH20 0xFFFFFFFFFFFFFFFFFFFFFFFFFFFFFFFFFFFFFFFF AND MUL OR SWAP1 SSTORE POP PUSH1 0xC PUSH0 DUP3 PUSH20 0xFFFFFFFFFFFFFFFFFFFFFFFFFFFFFFFFFFFFFFFF AND PUSH20 0xFFFFFFFFFFFFFFFFFFFFFFFFFFFFFFFFFFFFFFFF AND DUP2 MSTORE PUSH1 0x20 ADD SWAP1 DUP2 MSTORE PUSH1 0x20 ADD PUSH0 KECCAK256 PUSH0 ADD PUSH0 DUP2 SLOAD DUP1 SWAP3 SWAP2 SWAP1 PUSH2 0x27C4 SWAP1 PUSH2 0x4E3D JUMP JUMPDEST SWAP2 SWAP1 POP SSTORE POP DUP1 PUSH20 0xFFFFFFFFFFFFFFFFFFFFFFFFFFFFFFFFFFFFFFFF AND CALLER PUSH20 0xFFFFFFFFFFFFFFFFFFFFFFFFFFFFFFFFFFFFFFFF AND PUSH32 0x5F1CA2FCC108B751843A763E60D2201F593516109D7DBB1B700468F2D4190BB7 PUSH1 0x40 MLOAD PUSH1 0x40 MLOAD DUP1 SWAP2 SUB SWAP1 LOG3 POP POP POP JUMP JUMPDEST PUSH2 0x2830 PUSH2 0x2E31 JUMP JUMPDEST PUSH0 PUSH20 0xFFFFFFFFFFFFFFFFFFFFFFFFFFFFFFFFFFFFFFFF AND DUP2 PUSH20 0xFFFFFFFFFFFFFFFFFFFFFFFFFFFFFFFFFFFFFFFF AND SUB PUSH2 0x28A0 JUMPI PUSH0 PUSH1 0x40 MLOAD PUSH32 0x1E4FBDF700000000000000000000000000000000000000000000000000000000 DUP2 MSTORE PUSH1 0x4 ADD PUSH2 0x2897 SWAP2 SWAP1 PUSH2 0x3A8D JUMP JUMPDEST PUSH1 0x40 MLOAD DUP1 SWAP2 SUB SWAP1 REVERT JUMPDEST PUSH2 0x28A9 DUP2 PUSH2 0x2F37 JUMP JUMPDEST POP JUMP JUMPDEST PUSH0 PUSH2 0x28B9 DUP3 PUSH1 0x3 SLOAD PUSH2 0x356F JUMP JUMPDEST SWAP1 POP SWAP2 SWAP1 POP JUMP JUMPDEST PUSH0 PUSH1 0x60 PUSH1 0xB PUSH0 DUP5 PUSH20 0xFFFFFFFFFFFFFFFFFFFFFFFFFFFFFFFFFFFFFFFF AND PUSH20 0xFFFFFFFFFFFFFFFFFFFFFFFFFFFFFFFFFFFFFFFF AND DUP2 MSTORE PUSH1 0x20 ADD SWAP1 DUP2 MSTORE PUSH1 0x20 ADD PUSH0 KECCAK256 PUSH0 SWAP1 SLOAD SWAP1 PUSH2 0x100 EXP SWAP1 DIV PUSH20 0xFFFFFFFFFFFFFFFFFFFFFFFFFFFFFFFFFFFFFFFF AND PUSH1 0x10 PUSH0 DUP6 PUSH20 0xFFFFFFFFFFFFFFFFFFFFFFFFFFFFFFFFFFFFFFFF AND PUSH20 0xFFFFFFFFFFFFFFFFFFFFFFFFFFFFFFFFFFFFFFFF AND DUP2 MSTORE PUSH1 0x20 ADD SWAP1 DUP2 MSTORE PUSH1 0x20 ADD PUSH0 KECCAK256 DUP1 DUP1 SLOAD PUSH2 0x2969 SWAP1 PUSH2 0x4061 JUMP JUMPDEST DUP1 PUSH1 0x1F ADD PUSH1 0x20 DUP1 SWAP2 DIV MUL PUSH1 0x20 ADD PUSH1 0x40 MLOAD SWAP1 DUP2 ADD PUSH1 0x40 MSTORE DUP1 SWAP3 SWAP2 SWAP1 DUP2 DUP2 MSTORE PUSH1 0x20 ADD DUP3 DUP1 SLOAD PUSH2 0x2995 SWAP1 PUSH2 0x4061 JUMP JUMPDEST DUP1 ISZERO PUSH2 0x29E0 JUMPI DUP1 PUSH1 0x1F LT PUSH2 0x29B7 JUMPI PUSH2 0x100 DUP1 DUP4 SLOAD DIV MUL DUP4 MSTORE SWAP2 PUSH1 0x20 ADD SWAP2 PUSH2 0x29E0 JUMP JUMPDEST DUP3 ADD SWAP2 SWAP1 PUSH0 MSTORE PUSH1 0x20 PUSH0 KECCAK256 SWAP1 JUMPDEST DUP2 SLOAD DUP2 MSTORE SWAP1 PUSH1 0x1 ADD SWAP1 PUSH1 0x20 ADD DUP1 DUP4 GT PUSH2 0x29C3 JUMPI DUP3 SWAP1 SUB PUSH1 0x1F AND DUP3 ADD SWAP2 JUMPDEST POP POP POP POP POP SWAP1 POP SWAP2 POP SWAP2 POP SWAP2 POP SWAP2 JUMP JUMPDEST PUSH1 0x2 PUSH0 SWAP1 SLOAD SWAP1 PUSH2 0x100 EXP SWAP1 DIV PUSH20 0xFFFFFFFFFFFFFFFFFFFFFFFFFFFFFFFFFFFFFFFF AND DUP2 JUMP JUMPDEST PUSH2 0x2A1D PUSH2 0x2E31 JUMP JUMPDEST PUSH1 0xE DUP3 DUP3 PUSH1 0x40 MLOAD PUSH2 0x2A2F SWAP3 SWAP2 SWAP1 PUSH2 0x3F19 JUMP JUMPDEST SWAP1 DUP2 MSTORE PUSH1 0x20 ADD PUSH1 0x40 MLOAD DUP1 SWAP2 SUB SWAP1 KECCAK256 PUSH1 0x1 ADD PUSH0 SWAP1 SLOAD SWAP1 PUSH2 0x100 EXP SWAP1 DIV PUSH1 0xFF AND PUSH2 0x2A8C JUMPI PUSH1 0x40 MLOAD PUSH32 0x8C379A000000000000000000000000000000000000000000000000000000000 DUP2 MSTORE PUSH1 0x4 ADD PUSH2 0x2A83 SWAP1 PUSH2 0x521C JUMP JUMPDEST PUSH1 0x40 MLOAD DUP1 SWAP2 SUB SWAP1 REVERT JUMPDEST PUSH0 PUSH1 0xE DUP4 DUP4 PUSH1 0x40 MLOAD PUSH2 0x2A9F SWAP3 SWAP2 SWAP1 PUSH2 0x3F19 JUMP JUMPDEST SWAP1 DUP2 MSTORE PUSH1 0x20 ADD PUSH1 0x40 MLOAD DUP1 SWAP2 SUB SWAP1 KECCAK256 PUSH1 0x1 ADD PUSH0 PUSH2 0x100 EXP DUP2 SLOAD DUP2 PUSH1 0xFF MUL NOT AND SWAP1 DUP4 ISZERO ISZERO MUL OR SWAP1 SSTORE POP PUSH32 0xCDFAD879AEB1FB49862F7E42C82487A957432482BF2FF2D25417613C3EADC135 DUP3 DUP3 PUSH1 0x40 MLOAD PUSH2 0x2AF7 SWAP3 SWAP2 SWAP1 PUSH2 0x4504 JUMP JUMPDEST PUSH1 0x40 MLOAD DUP1 SWAP2 SUB SWAP1 LOG1 POP POP JUMP JUMPDEST PUSH1 0x60 DUP1 PUSH0 DUP1 PUSH0 DUP1 PUSH0 DUP1 PUSH1 0x2 PUSH0 SWAP1 SLOAD SWAP1 PUSH2 0x100 EXP SWAP1 DIV PUSH20 0xFFFFFFFFFFFFFFFFFFFFFFFFFFFFFFFFFFFFFFFF AND PUSH20 0xFFFFFFFFFFFFFFFFFFFFFFFFFFFFFFFFFFFFFFFF AND PUSH4 0x6FDDE03 PUSH1 0x40 MLOAD DUP2 PUSH4 0xFFFFFFFF AND PUSH1 0xE0 SHL DUP2 MSTORE PUSH1 0x4 ADD PUSH0 PUSH1 0x40 MLOAD DUP1 DUP4 SUB DUP2 DUP7 GAS STATICCALL ISZERO DUP1 ISZERO PUSH2 0x2B75 JUMPI RETURNDATASIZE PUSH0 DUP1 RETURNDATACOPY RETURNDATASIZE PUSH0 REVERT JUMPDEST POP POP POP POP PUSH1 0x40 MLOAD RETURNDATASIZE PUSH0 DUP3 RETURNDATACOPY RETURNDATASIZE PUSH1 0x1F NOT PUSH1 0x1F DUP3 ADD AND DUP3 ADD DUP1 PUSH1 0x40 MSTORE POP DUP2 ADD SWAP1 PUSH2 0x2B9D SWAP2 SWAP1 PUSH2 0x52A8 JUMP JUMPDEST PUSH1 0x2 PUSH0 SWAP1 SLOAD SWAP1 PUSH2 0x100 EXP SWAP1 DIV PUSH20 0xFFFFFFFFFFFFFFFFFFFFFFFFFFFFFFFFFFFFFFFF AND PUSH20 0xFFFFFFFFFFFFFFFFFFFFFFFFFFFFFFFFFFFFFFFF AND PUSH4 0x95D89B41 PUSH1 0x40 MLOAD DUP2 PUSH4 0xFFFFFFFF AND PUSH1 0xE0 SHL DUP2 MSTORE PUSH1 0x4 ADD PUSH0 PUSH1 0x40 MLOAD DUP1 DUP4 SUB DUP2 DUP7 GAS STATICCALL ISZERO DUP1 ISZERO PUSH2 0x2C06 JUMPI RETURNDATASIZE PUSH0 DUP1 RETURNDATACOPY RETURNDATASIZE PUSH0 REVERT JUMPDEST POP POP POP POP PUSH1 0x40 MLOAD RETURNDATASIZE PUSH0 DUP3 RETURNDATACOPY RETURNDATASIZE PUSH1 0x1F NOT PUSH1 0x1F DUP3 ADD AND DUP3 ADD DUP1 PUSH1 0x40 MSTORE POP DUP2 ADD SWAP1 PUSH2 0x2C2E SWAP2 SWAP1 PUSH2 0x52A8 JUMP JUMPDEST PUSH1 0x2 PUSH0 SWAP1 SLOAD SWAP1 PUSH2 0x100 EXP SWAP1 DIV PUSH20 0xFFFFFFFFFFFFFFFFFFFFFFFFFFFFFFFFFFFFFFFF AND PUSH20 0xFFFFFFFFFFFFFFFFFFFFFFFFFFFFFFFFFFFFFFFF AND PUSH4 0x70A08231 ADDRESS PUSH1 0x40 MLOAD DUP3 PUSH4 0xFFFFFFFF AND PUSH1 0xE0 SHL DUP2 MSTORE PUSH1 0x4 ADD PUSH2 0x2C88 SWAP2 SWAP1 PUSH2 0x3A8D JUMP JUMPDEST PUSH1 0x20 PUSH1 0x40 MLOAD DUP1 DUP4 SUB DUP2 DUP7 GAS STATICCALL ISZERO DUP1 ISZERO PUSH2 0x2CA3 JUMPI RETURNDATASIZE PUSH0 DUP1 RETURNDATACOPY RETURNDATASIZE PUSH0 REVERT JUMPDEST POP POP POP POP PUSH1 0x40 MLOAD RETURNDATASIZE PUSH1 0x1F NOT PUSH1 0x1F DUP3 ADD AND DUP3 ADD DUP1 PUSH1 0x40 MSTORE POP DUP2 ADD SWAP1 PUSH2 0x2CC7 SWAP2 SWAP1 PUSH2 0x3FA1 JUMP JUMPDEST PUSH1 0x2 PUSH0 SWAP1 SLOAD SWAP1 PUSH2 0x100 EXP SWAP1 DIV PUSH20 0xFFFFFFFFFFFFFFFFFFFFFFFFFFFFFFFFFFFFFFFF AND PUSH20 0xFFFFFFFFFFFFFFFFFFFFFFFFFFFFFFFFFFFFFFFF AND PUSH4 0x18160DDD PUSH1 0x40 MLOAD DUP2 PUSH4 0xFFFFFFFF AND PUSH1 0xE0 SHL DUP2 MSTORE PUSH1 0x4 ADD PUSH1 0x20 PUSH1 0x40 MLOAD DUP1 DUP4 SUB DUP2 DUP7 GAS STATICCALL ISZERO DUP1 ISZERO PUSH2 0x2D31 JUMPI RETURNDATASIZE PUSH0 DUP1 RETURNDATACOPY RETURNDATASIZE PUSH0 REVERT JUMPDEST POP POP POP POP PUSH1 0x40 MLOAD RETURNDATASIZE PUSH1 0x1F NOT PUSH1 0x1F DUP3 ADD AND DUP3 ADD DUP1 PUSH1 0x40 MSTORE POP DUP2 ADD SWAP1 PUSH2 0x2D55 SWAP2 SWAP1 PUSH2 0x3FA1 JUMP JUMPDEST PUSH1 0x3 SLOAD PUSH1 0x2 PUSH0 SWAP1 SLOAD SWAP1 PUSH2 0x100 EXP SWAP1 DIV PUSH20 0xFFFFFFFFFFFFFFFFFFFFFFFFFFFFFFFFFFFFFFFF AND PUSH1 0x6 PUSH0 SWAP1 SLOAD SWAP1 PUSH2 0x100 EXP SWAP1 DIV PUSH1 0xFF AND PUSH1 0x5 SLOAD SWAP8 POP SWAP8 POP SWAP8 POP SWAP8 POP SWAP8 POP SWAP8 POP SWAP8 POP SWAP8 POP SWAP1 SWAP2 SWAP3 SWAP4 SWAP5 SWAP6 SWAP7 SWAP8 JUMP JUMPDEST PUSH2 0x2DAE PUSH2 0x2E31 JUMP JUMPDEST PUSH0 DUP2 GT PUSH2 0x2DF0 JUMPI PUSH1 0x40 MLOAD PUSH32 0x8C379A000000000000000000000000000000000000000000000000000000000 DUP2 MSTORE PUSH1 0x4 ADD PUSH2 0x2DE7 SWAP1 PUSH2 0x5339 JUMP JUMPDEST PUSH1 0x40 MLOAD DUP1 SWAP2 SUB SWAP1 REVERT JUMPDEST DUP1 PUSH1 0x3 DUP2 SWAP1 SSTORE POP PUSH32 0x6077DC80C2821385DFC3C16EEAD1EDCB74A10FB2AE6985541C2486429C26A77F DUP2 PUSH1 0x40 MLOAD PUSH2 0x2E26 SWAP2 SWAP1 PUSH2 0x3B73 JUMP JUMPDEST PUSH1 0x40 MLOAD DUP1 SWAP2 SUB SWAP1 LOG1 POP JUMP JUMPDEST PUSH2 0x2E39 PUSH2 0x35DB JUMP JUMPDEST PUSH20 0xFFFFFFFFFFFFFFFFFFFFFFFFFFFFFFFFFFFFFFFF AND PUSH2 0x2E57 PUSH2 0x1385 JUMP JUMPDEST PUSH20 0xFFFFFFFFFFFFFFFFFFFFFFFFFFFFFFFFFFFFFFFF AND EQ PUSH2 0x2EB6 JUMPI PUSH2 0x2E7A PUSH2 0x35DB JUMP JUMPDEST PUSH1 0x40 MLOAD PUSH32 0x118CDAA700000000000000000000000000000000000000000000000000000000 DUP2 MSTORE PUSH1 0x4 ADD PUSH2 0x2EAD SWAP2 SWAP1 PUSH2 0x3A8D JUMP JUMPDEST PUSH1 0x40 MLOAD DUP1 SWAP2 SUB SWAP1 REVERT JUMPDEST JUMP JUMPDEST PUSH2 0x2F32 DUP4 DUP5 PUSH20 0xFFFFFFFFFFFFFFFFFFFFFFFFFFFFFFFFFFFFFFFF AND PUSH4 0xA9059CBB DUP6 DUP6 PUSH1 0x40 MLOAD PUSH1 0x24 ADD PUSH2 0x2EEB SWAP3 SWAP2 SWAP1 PUSH2 0x5357 JUMP JUMPDEST PUSH1 0x40 MLOAD PUSH1 0x20 DUP2 DUP4 SUB SUB DUP2 MSTORE SWAP1 PUSH1 0x40 MSTORE SWAP2 POP PUSH1 0xE0 SHL PUSH1 0x20 DUP3 ADD DUP1 MLOAD PUSH28 0xFFFFFFFFFFFFFFFFFFFFFFFFFFFFFFFFFFFFFFFFFFFFFFFFFFFFFFFF DUP4 DUP2 DUP4 AND OR DUP4 MSTORE POP POP POP POP PUSH2 0x35E2 JUMP JUMPDEST POP POP POP JUMP JUMPDEST PUSH0 PUSH1 0x1 PUSH0 SWAP1 SLOAD SWAP1 PUSH2 0x100 EXP SWAP1 DIV PUSH20 0xFFFFFFFFFFFFFFFFFFFFFFFFFFFFFFFFFFFFFFFF AND SWAP1 POP DUP2 PUSH1 0x1 PUSH0 PUSH2 0x100 EXP DUP2 SLOAD DUP2 PUSH20 0xFFFFFFFFFFFFFFFFFFFFFFFFFFFFFFFFFFFFFFFF MUL NOT AND SWAP1 DUP4 PUSH20 0xFFFFFFFFFFFFFFFFFFFFFFFFFFFFFFFFFFFFFFFF AND MUL OR SWAP1 SSTORE POP DUP2 PUSH20 0xFFFFFFFFFFFFFFFFFFFFFFFFFFFFFFFFFFFFFFFF AND DUP2 PUSH20 0xFFFFFFFFFFFFFFFFFFFFFFFFFFFFFFFFFFFFFFFF AND PUSH32 0x8BE0079C531659141344CD1FD0A4F28419497F9722A3DAAFE3B4186F6B6457E0 PUSH1 0x40 MLOAD PUSH1 0x40 MLOAD DUP1 SWAP2 SUB SWAP1 LOG3 POP POP JUMP JUMPDEST PUSH1 0x60 PUSH0 TIMESTAMP PREVRANDAO CALLER PUSH1 0x1 NUMBER PUSH2 0x300D SWAP2 SWAP1 PUSH2 0x537E JUMP JUMPDEST BLOCKHASH PUSH1 0x40 MLOAD PUSH1 0x20 ADD PUSH2 0x3021 SWAP5 SWAP4 SWAP3 SWAP2 SWAP1 PUSH2 0x543F JUMP JUMPDEST PUSH1 0x40 MLOAD PUSH1 0x20 DUP2 DUP4 SUB SUB DUP2 MSTORE SWAP1 PUSH1 0x40 MSTORE DUP1 MLOAD SWAP1 PUSH1 0x20 ADD KECCAK256 SWAP1 POP PUSH0 PUSH1 0x40 MLOAD DUP1 PUSH1 0x60 ADD PUSH1 0x40 MSTORE DUP1 PUSH1 0x24 DUP2 MSTORE PUSH1 0x20 ADD PUSH2 0x5582 PUSH1 0x24 SWAP2 CODECOPY SWAP1 POP PUSH0 PUSH1 0x8 PUSH8 0xFFFFFFFFFFFFFFFF DUP2 GT ISZERO PUSH2 0x3071 JUMPI PUSH2 0x3070 PUSH2 0x37A0 JUMP JUMPDEST JUMPDEST PUSH1 0x40 MLOAD SWAP1 DUP1 DUP3 MSTORE DUP1 PUSH1 0x1F ADD PUSH1 0x1F NOT AND PUSH1 0x20 ADD DUP3 ADD PUSH1 0x40 MSTORE DUP1 ISZERO PUSH2 0x30A3 JUMPI DUP2 PUSH1 0x20 ADD PUSH1 0x1 DUP3 MUL DUP1 CALLDATASIZE DUP4 CALLDATACOPY DUP1 DUP3 ADD SWAP2 POP POP SWAP1 POP JUMPDEST POP SWAP1 POP PUSH0 JUMPDEST PUSH1 0x8 DUP2 LT ISZERO PUSH2 0x314A JUMPI PUSH0 DUP4 MLOAD DUP6 DUP4 PUSH1 0x20 DUP2 LT PUSH2 0x30C7 JUMPI PUSH2 0x30C6 PUSH2 0x548C JUMP JUMPDEST JUMPDEST BYTE PUSH1 0xF8 SHL PUSH1 0xF8 SHR PUSH2 0x30D8 SWAP2 SWAP1 PUSH2 0x54B9 JUMP JUMPDEST SWAP1 POP DUP4 DUP2 PUSH1 0xFF AND DUP2 MLOAD DUP2 LT PUSH2 0x30F0 JUMPI PUSH2 0x30EF PUSH2 0x548C JUMP JUMPDEST JUMPDEST PUSH1 0x20 ADD ADD MLOAD PUSH1 0xF8 SHR PUSH1 0xF8 SHL DUP4 DUP4 DUP2 MLOAD DUP2 LT PUSH2 0x310E JUMPI PUSH2 0x310D PUSH2 0x548C JUMP JUMPDEST JUMPDEST PUSH1 0x20 ADD ADD SWAP1 PUSH31 0xFFFFFFFFFFFFFFFFFFFFFFFFFFFFFFFFFFFFFFFFFFFFFFFFFFFFFFFFFFFFFF NOT AND SWAP1 DUP2 PUSH0 BYTE SWAP1 MSTORE8 POP POP DUP1 DUP1 PUSH1 0x1 ADD SWAP2 POP POP PUSH2 0x30A8 JUMP JUMPDEST POP DUP1 SWAP4 POP POP POP POP SWAP1 JUMP JUMPDEST PUSH1 0x2 PUSH0 SLOAD SUB PUSH2 0x318F JUMPI PUSH1 0x40 MLOAD PUSH32 0x3EE5AEB500000000000000000000000000000000000000000000000000000000 DUP2 MSTORE PUSH1 0x4 ADD PUSH1 0x40 MLOAD DUP1 SWAP2 SUB SWAP1 REVERT JUMPDEST PUSH1 0x2 PUSH0 DUP2 SWAP1 SSTORE POP JUMP JUMPDEST PUSH1 0x60 PUSH0 DUP3 SUB PUSH2 0x31DE JUMPI PUSH1 0x40 MLOAD DUP1 PUSH1 0x40 ADD PUSH1 0x40 MSTORE DUP1 PUSH1 0x1 DUP2 MSTORE PUSH1 0x20 ADD PUSH32 0x3000000000000000000000000000000000000000000000000000000000000000 DUP2 MSTORE POP SWAP1 POP PUSH2 0x32EC JUMP JUMPDEST PUSH0 DUP3 SWAP1 POP PUSH0 JUMPDEST PUSH0 DUP3 EQ PUSH2 0x320D JUMPI DUP1 DUP1 PUSH2 0x31F6 SWAP1 PUSH2 0x4E3D JUMP JUMPDEST SWAP2 POP POP PUSH1 0xA DUP3 PUSH2 0x3206 SWAP2 SWAP1 PUSH2 0x4996 JUMP JUMPDEST SWAP2 POP PUSH2 0x31E4 JUMP JUMPDEST PUSH0 DUP2 PUSH8 0xFFFFFFFFFFFFFFFF DUP2 GT ISZERO PUSH2 0x3228 JUMPI PUSH2 0x3227 PUSH2 0x37A0 JUMP JUMPDEST JUMPDEST PUSH1 0x40 MLOAD SWAP1 DUP1 DUP3 MSTORE DUP1 PUSH1 0x1F ADD PUSH1 0x1F NOT AND PUSH1 0x20 ADD DUP3 ADD PUSH1 0x40 MSTORE DUP1 ISZERO PUSH2 0x325A JUMPI DUP2 PUSH1 0x20 ADD PUSH1 0x1 DUP3 MUL DUP1 CALLDATASIZE DUP4 CALLDATACOPY DUP1 DUP3 ADD SWAP2 POP POP SWAP1 POP JUMPDEST POP SWAP1 POP JUMPDEST PUSH0 DUP6 EQ PUSH2 0x32E5 JUMPI PUSH1 0x1 DUP3 PUSH2 0x3272 SWAP2 SWAP1 PUSH2 0x537E JUMP JUMPDEST SWAP2 POP PUSH1 0xA DUP6 PUSH2 0x3281 SWAP2 SWAP1 PUSH2 0x54E9 JUMP JUMPDEST PUSH1 0x30 PUSH2 0x328D SWAP2 SWAP1 PUSH2 0x49C6 JUMP JUMPDEST PUSH1 0xF8 SHL DUP2 DUP4 DUP2 MLOAD DUP2 LT PUSH2 0x32A3 JUMPI PUSH2 0x32A2 PUSH2 0x548C JUMP JUMPDEST JUMPDEST PUSH1 0x20 ADD ADD SWAP1 PUSH31 0xFFFFFFFFFFFFFFFFFFFFFFFFFFFFFFFFFFFFFFFFFFFFFFFFFFFFFFFFFFFFFF NOT AND SWAP1 DUP2 PUSH0 BYTE SWAP1 MSTORE8 POP PUSH1 0xA DUP6 PUSH2 0x32DE SWAP2 SWAP1 PUSH2 0x4996 JUMP JUMPDEST SWAP5 POP PUSH2 0x325E JUMP JUMPDEST DUP1 SWAP4 POP POP POP POP JUMPDEST SWAP2 SWAP1 POP JUMP JUMPDEST PUSH0 PUSH20 0xFFFFFFFFFFFFFFFFFFFFFFFFFFFFFFFFFFFFFFFF AND DUP3 PUSH20 0xFFFFFFFFFFFFFFFFFFFFFFFFFFFFFFFFFFFFFFFF AND EQ ISZERO DUP1 ISZERO PUSH2 0x3374 JUMPI POP PUSH1 0xD PUSH0 DUP4 PUSH20 0xFFFFFFFFFFFFFFFFFFFFFFFFFFFFFFFFFFFFFFFF AND PUSH20 0xFFFFFFFFFFFFFFFFFFFFFFFFFFFFFFFFFFFFFFFF AND DUP2 MSTORE PUSH1 0x20 ADD SWAP1 DUP2 MSTORE PUSH1 0x20 ADD PUSH0 KECCAK256 PUSH0 SWAP1 SLOAD SWAP1 PUSH2 0x100 EXP SWAP1 DIV PUSH1 0xFF AND ISZERO JUMPDEST ISZERO PUSH2 0x3562 JUMPI PUSH0 PUSH1 0x6 PUSH0 SWAP1 SLOAD SWAP1 PUSH2 0x100 EXP SWAP1 DIV PUSH1 0xFF AND PUSH1 0xA PUSH2 0x3395 SWAP2 SWAP1 PUSH2 0x4C26 JUMP JUMPDEST DUP3 PUSH2 0x33A0 SWAP2 SWAP1 PUSH2 0x4C70 JUMP JUMPDEST SWAP1 POP PUSH0 PUSH2 0x2710 PUSH1 0x64 PUSH1 0x5 DUP5 PUSH2 0x33B5 SWAP2 SWAP1 PUSH2 0x4C70 JUMP JUMPDEST PUSH2 0x33BF SWAP2 SWAP1 PUSH2 0x4C70 JUMP JUMPDEST PUSH2 0x33C9 SWAP2 SWAP1 PUSH2 0x4996 JUMP JUMPDEST SWAP1 POP PUSH32 0x9BDA918224F828A5434FF9DB6B342A5317E87D94BCB75B1995AC3D8E6C4F27E DUP2 PUSH1 0x40 MLOAD PUSH2 0x33FA SWAP2 SWAP1 PUSH2 0x3B73 JUMP JUMPDEST PUSH1 0x40 MLOAD DUP1 SWAP2 SUB SWAP1 LOG1 PUSH2 0x344E DUP5 DUP3 PUSH1 0x2 PUSH0 SWAP1 SLOAD SWAP1 PUSH2 0x100 EXP SWAP1 DIV PUSH20 0xFFFFFFFFFFFFFFFFFFFFFFFFFFFFFFFFFFFFFFFF AND PUSH20 0xFFFFFFFFFFFFFFFFFFFFFFFFFFFFFFFFFFFFFFFF AND PUSH2 0x2EB8 SWAP1 SWAP3 SWAP2 SWAP1 PUSH4 0xFFFFFFFF AND JUMP JUMPDEST DUP1 PUSH1 0xC PUSH0 DUP7 PUSH20 0xFFFFFFFFFFFFFFFFFFFFFFFFFFFFFFFFFFFFFFFF AND PUSH20 0xFFFFFFFFFFFFFFFFFFFFFFFFFFFFFFFFFFFFFFFF AND DUP2 MSTORE PUSH1 0x20 ADD SWAP1 DUP2 MSTORE PUSH1 0x20 ADD PUSH0 KECCAK256 PUSH1 0x1 ADD PUSH0 DUP3 DUP3 SLOAD PUSH2 0x349D SWAP2 SWAP1 PUSH2 0x49C6 JUMP JUMPDEST SWAP3 POP POP DUP2 SWAP1 SSTORE POP DUP3 PUSH1 0xC PUSH0 DUP7 PUSH20 0xFFFFFFFFFFFFFFFFFFFFFFFFFFFFFFFFFFFFFFFF AND PUSH20 0xFFFFFFFFFFFFFFFFFFFFFFFFFFFFFFFFFFFFFFFF AND DUP2 MSTORE PUSH1 0x20 ADD SWAP1 DUP2 MSTORE PUSH1 0x20 ADD PUSH0 KECCAK256 PUSH1 0x2 ADD PUSH0 DUP3 DUP3 SLOAD PUSH2 0x34F3 SWAP2 SWAP1 PUSH2 0x49C6 JUMP JUMPDEST SWAP3 POP POP DUP2 SWAP1 SSTORE POP CALLER PUSH20 0xFFFFFFFFFFFFFFFFFFFFFFFFFFFFFFFFFFFFFFFF AND DUP5 PUSH20 0xFFFFFFFFFFFFFFFFFFFFFFFFFFFFFFFFFFFFFFFF AND PUSH32 0xB2DEE5F49E7A09A5D7C95CD4DD5DC6410EEA65D4E14519D6D3A6E14C8CF0E0E9 DUP4 PUSH1 0x40 MLOAD PUSH2 0x3557 SWAP2 SWAP1 PUSH2 0x3B73 JUMP JUMPDEST PUSH1 0x40 MLOAD DUP1 SWAP2 SUB SWAP1 LOG3 POP POP JUMPDEST POP POP JUMP JUMPDEST PUSH1 0x1 PUSH0 DUP2 SWAP1 SSTORE POP JUMP JUMPDEST PUSH0 DUP1 DUP3 EQ DUP1 PUSH2 0x3596 JUMPI POP DUP3 DUP3 DUP4 DUP6 PUSH2 0x3587 SWAP2 SWAP1 PUSH2 0x4C70 JUMP JUMPDEST SWAP3 POP DUP3 PUSH2 0x3594 SWAP2 SWAP1 PUSH2 0x4996 JUMP JUMPDEST EQ JUMPDEST PUSH2 0x35D5 JUMPI PUSH1 0x40 MLOAD PUSH32 0x8C379A000000000000000000000000000000000000000000000000000000000 DUP2 MSTORE PUSH1 0x4 ADD PUSH2 0x35CC SWAP1 PUSH2 0x5563 JUMP JUMPDEST PUSH1 0x40 MLOAD DUP1 SWAP2 SUB SWAP1 REVERT JUMPDEST SWAP3 SWAP2 POP POP JUMP JUMPDEST PUSH0 CALLER SWAP1 POP SWAP1 JUMP JUMPDEST PUSH0 DUP1 PUSH1 0x20 PUSH0 DUP5 MLOAD PUSH1 0x20 DUP7 ADD PUSH0 DUP9 GAS CALL DUP1 PUSH2 0x3601 JUMPI PUSH1 0x40 MLOAD RETURNDATASIZE PUSH0 DUP3 RETURNDATACOPY RETURNDATASIZE DUP2 REVERT JUMPDEST RETURNDATASIZE SWAP3 POP PUSH0 MLOAD SWAP2 POP POP PUSH0 DUP3 EQ PUSH2 0x361A JUMPI PUSH1 0x1 DUP2 EQ ISZERO PUSH2 0x3635 JUMP JUMPDEST PUSH0 DUP5 PUSH20 0xFFFFFFFFFFFFFFFFFFFFFFFFFFFFFFFFFFFFFFFF AND EXTCODESIZE EQ JUMPDEST ISZERO PUSH2 0x3677 JUMPI DUP4 PUSH1 0x40 MLOAD PUSH32 0x5274AFE700000000000000000000000000000000000000000000000000000000 DUP2 MSTORE PUSH1 0x4 ADD PUSH2 0x366E SWAP2 SWAP1 PUSH2 0x3A8D JUMP JUMPDEST PUSH1 0x40 MLOAD DUP1 SWAP2 SUB SWAP1 REVERT JUMPDEST POP POP POP POP JUMP JUMPDEST PUSH0 PUSH1 0x40 MLOAD SWAP1 POP SWAP1 JUMP JUMPDEST PUSH0 DUP1 REVERT JUMPDEST PUSH0 DUP1 REVERT JUMPDEST PUSH0 PUSH20 0xFFFFFFFFFFFFFFFFFFFFFFFFFFFFFFFFFFFFFFFF DUP3 AND SWAP1 POP SWAP2 SWAP1 POP JUMP JUMPDEST PUSH0 PUSH2 0x36B7 DUP3 PUSH2 0x368E JUMP JUMPDEST SWAP1 POP SWAP2 SWAP1 POP JUMP JUMPDEST PUSH2 0x36C7 DUP2 PUSH2 0x36AD JUMP JUMPDEST DUP2 EQ PUSH2 0x36D1 JUMPI PUSH0 DUP1 REVERT JUMPDEST POP JUMP JUMPDEST PUSH0 DUP2 CALLDATALOAD SWAP1 POP PUSH2 0x36E2 DUP2 PUSH2 0x36BE JUMP JUMPDEST SWAP3 SWAP2 POP POP JUMP JUMPDEST PUSH0 PUSH1 0x20 DUP3 DUP5 SUB SLT ISZERO PUSH2 0x36FD JUMPI PUSH2 0x36FC PUSH2 0x3686 JUMP JUMPDEST JUMPDEST PUSH0 PUSH2 0x370A DUP5 DUP3 DUP6 ADD PUSH2 0x36D4 JUMP JUMPDEST SWAP2 POP POP SWAP3 SWAP2 POP POP JUMP JUMPDEST PUSH0 DUP2 SWAP1 POP SWAP2 SWAP1 POP JUMP JUMPDEST PUSH2 0x3725 DUP2 PUSH2 0x3713 JUMP JUMPDEST DUP3 MSTORE POP POP JUMP JUMPDEST PUSH0 DUP2 ISZERO ISZERO SWAP1 POP SWAP2 SWAP1 POP JUMP JUMPDEST PUSH2 0x373F DUP2 PUSH2 0x372B JUMP JUMPDEST DUP3 MSTORE POP POP JUMP JUMPDEST PUSH0 PUSH1 0x80 DUP3 ADD SWAP1 POP PUSH2 0x3758 PUSH0 DUP4 ADD DUP8 PUSH2 0x371C JUMP JUMPDEST PUSH2 0x3765 PUSH1 0x20 DUP4 ADD DUP7 PUSH2 0x371C JUMP JUMPDEST PUSH2 0x3772 PUSH1 0x40 DUP4 ADD DUP6 PUSH2 0x371C JUMP JUMPDEST PUSH2 0x377F PUSH1 0x60 DUP4 ADD DUP5 PUSH2 0x3736 JUMP JUMPDEST SWAP6 SWAP5 POP POP POP POP POP JUMP JUMPDEST PUSH0 DUP1 REVERT JUMPDEST PUSH0 DUP1 REVERT JUMPDEST PUSH0 PUSH1 0x1F NOT PUSH1 0x1F DUP4 ADD AND SWAP1 POP SWAP2 SWAP1 POP JUMP JUMPDEST PUSH32 0x4E487B7100000000000000000000000000000000000000000000000000000000 PUSH0 MSTORE PUSH1 0x41 PUSH1 0x4 MSTORE PUSH1 0x24 PUSH0 REVERT JUMPDEST PUSH2 0x37D6 DUP3 PUSH2 0x3790 JUMP JUMPDEST DUP2 ADD DUP2 DUP2 LT PUSH8 0xFFFFFFFFFFFFFFFF DUP3 GT OR ISZERO PUSH2 0x37F5 JUMPI PUSH2 0x37F4 PUSH2 0x37A0 JUMP JUMPDEST JUMPDEST DUP1 PUSH1 0x40 MSTORE POP POP POP JUMP JUMPDEST PUSH0 PUSH2 0x3807 PUSH2 0x367D JUMP JUMPDEST SWAP1 POP PUSH2 0x3813 DUP3 DUP3 PUSH2 0x37CD JUMP JUMPDEST SWAP2 SWAP1 POP JUMP JUMPDEST PUSH0 PUSH8 0xFFFFFFFFFFFFFFFF DUP3 GT ISZERO PUSH2 0x3832 JUMPI PUSH2 0x3831 PUSH2 0x37A0 JUMP JUMPDEST JUMPDEST PUSH2 0x383B DUP3 PUSH2 0x3790 JUMP JUMPDEST SWAP1 POP PUSH1 0x20 DUP2 ADD SWAP1 POP SWAP2 SWAP1 POP JUMP JUMPDEST DUP3 DUP2 DUP4 CALLDATACOPY PUSH0 DUP4 DUP4 ADD MSTORE POP POP POP JUMP JUMPDEST PUSH0 PUSH2 0x3868 PUSH2 0x3863 DUP5 PUSH2 0x3818 JUMP JUMPDEST PUSH2 0x37FE JUMP JUMPDEST SWAP1 POP DUP3 DUP2 MSTORE PUSH1 0x20 DUP2 ADD DUP5 DUP5 DUP5 ADD GT ISZERO PUSH2 0x3884 JUMPI PUSH2 0x3883 PUSH2 0x378C JUMP JUMPDEST JUMPDEST PUSH2 0x388F DUP5 DUP3 DUP6 PUSH2 0x3848 JUMP JUMPDEST POP SWAP4 SWAP3 POP POP POP JUMP JUMPDEST PUSH0 DUP3 PUSH1 0x1F DUP4 ADD SLT PUSH2 0x38AB JUMPI PUSH2 0x38AA PUSH2 0x3788 JUMP JUMPDEST JUMPDEST DUP2 CALLDATALOAD PUSH2 0x38BB DUP5 DUP3 PUSH1 0x20 DUP7 ADD PUSH2 0x3856 JUMP JUMPDEST SWAP2 POP POP SWAP3 SWAP2 POP POP JUMP JUMPDEST PUSH0 PUSH1 0x20 DUP3 DUP5 SUB SLT ISZERO PUSH2 0x38D9 JUMPI PUSH2 0x38D8 PUSH2 0x3686 JUMP JUMPDEST JUMPDEST PUSH0 DUP3 ADD CALLDATALOAD PUSH8 0xFFFFFFFFFFFFFFFF DUP2 GT ISZERO PUSH2 0x38F6 JUMPI PUSH2 0x38F5 PUSH2 0x368A JUMP JUMPDEST JUMPDEST PUSH2 0x3902 DUP5 DUP3 DUP6 ADD PUSH2 0x3897 JUMP JUMPDEST SWAP2 POP POP SWAP3 SWAP2 POP POP JUMP JUMPDEST PUSH0 PUSH1 0x40 DUP3 ADD SWAP1 POP PUSH2 0x391E PUSH0 DUP4 ADD DUP6 PUSH2 0x371C JUMP JUMPDEST PUSH2 0x392B PUSH1 0x20 DUP4 ADD DUP5 PUSH2 0x3736 JUMP JUMPDEST SWAP4 SWAP3 POP POP POP JUMP JUMPDEST PUSH2 0x393B DUP2 PUSH2 0x372B JUMP JUMPDEST DUP2 EQ PUSH2 0x3945 JUMPI PUSH0 DUP1 REVERT JUMPDEST POP JUMP JUMPDEST PUSH0 DUP2 CALLDATALOAD SWAP1 POP PUSH2 0x3956 DUP2 PUSH2 0x3932 JUMP JUMPDEST SWAP3 SWAP2 POP POP JUMP JUMPDEST PUSH0 DUP1 PUSH1 0x40 DUP4 DUP6 SUB SLT ISZERO PUSH2 0x3972 JUMPI PUSH2 0x3971 PUSH2 0x3686 JUMP JUMPDEST JUMPDEST PUSH0 PUSH2 0x397F DUP6 DUP3 DUP7 ADD PUSH2 0x36D4 JUMP JUMPDEST SWAP3 POP POP PUSH1 0x20 PUSH2 0x3990 DUP6 DUP3 DUP7 ADD PUSH2 0x3948 JUMP JUMPDEST SWAP2 POP POP SWAP3 POP SWAP3 SWAP1 POP JUMP JUMPDEST PUSH0 DUP1 REVERT JUMPDEST PUSH0 DUP1 REVERT JUMPDEST PUSH0 DUP1 DUP4 PUSH1 0x1F DUP5 ADD SLT PUSH2 0x39B7 JUMPI PUSH2 0x39B6 PUSH2 0x3788 JUMP JUMPDEST JUMPDEST DUP3 CALLDATALOAD SWAP1 POP PUSH8 0xFFFFFFFFFFFFFFFF DUP2 GT ISZERO PUSH2 0x39D4 JUMPI PUSH2 0x39D3 PUSH2 0x399A JUMP JUMPDEST JUMPDEST PUSH1 0x20 DUP4 ADD SWAP2 POP DUP4 PUSH1 0x1 DUP3 MUL DUP4 ADD GT ISZERO PUSH2 0x39F0 JUMPI PUSH2 0x39EF PUSH2 0x399E JUMP JUMPDEST JUMPDEST SWAP3 POP SWAP3 SWAP1 POP JUMP JUMPDEST PUSH2 0x3A00 DUP2 PUSH2 0x3713 JUMP JUMPDEST DUP2 EQ PUSH2 0x3A0A JUMPI PUSH0 DUP1 REVERT JUMPDEST POP JUMP JUMPDEST PUSH0 DUP2 CALLDATALOAD SWAP1 POP PUSH2 0x3A1B DUP2 PUSH2 0x39F7 JUMP JUMPDEST SWAP3 SWAP2 POP POP JUMP JUMPDEST PUSH0 DUP1 PUSH0 PUSH1 0x40 DUP5 DUP7 SUB SLT ISZERO PUSH2 0x3A38 JUMPI PUSH2 0x3A37 PUSH2 0x3686 JUMP JUMPDEST JUMPDEST PUSH0 DUP5 ADD CALLDATALOAD PUSH8 0xFFFFFFFFFFFFFFFF DUP2 GT ISZERO PUSH2 0x3A55 JUMPI PUSH2 0x3A54 PUSH2 0x368A JUMP JUMPDEST JUMPDEST PUSH2 0x3A61 DUP7 DUP3 DUP8 ADD PUSH2 0x39A2 JUMP JUMPDEST SWAP4 POP SWAP4 POP POP PUSH1 0x20 PUSH2 0x3A74 DUP7 DUP3 DUP8 ADD PUSH2 0x3A0D JUMP JUMPDEST SWAP2 POP POP SWAP3 POP SWAP3 POP SWAP3 JUMP JUMPDEST PUSH2 0x3A87 DUP2 PUSH2 0x36AD JUMP JUMPDEST DUP3 MSTORE POP POP JUMP JUMPDEST PUSH0 PUSH1 0x20 DUP3 ADD SWAP1 POP PUSH2 0x3AA0 PUSH0 DUP4 ADD DUP5 PUSH2 0x3A7E JUMP JUMPDEST SWAP3 SWAP2 POP POP JUMP JUMPDEST PUSH0 PUSH1 0xFF DUP3 AND SWAP1 POP SWAP2 SWAP1 POP JUMP JUMPDEST PUSH2 0x3ABB DUP2 PUSH2 0x3AA6 JUMP JUMPDEST DUP3 MSTORE POP POP JUMP JUMPDEST PUSH0 PUSH1 0x20 DUP3 ADD SWAP1 POP PUSH2 0x3AD4 PUSH0 DUP4 ADD DUP5 PUSH2 0x3AB2 JUMP JUMPDEST SWAP3 SWAP2 POP POP JUMP JUMPDEST PUSH0 DUP2 MLOAD SWAP1 POP SWAP2 SWAP1 POP JUMP JUMPDEST PUSH0 DUP3 DUP3 MSTORE PUSH1 0x20 DUP3 ADD SWAP1 POP SWAP3 SWAP2 POP POP JUMP JUMPDEST DUP3 DUP2 DUP4 MCOPY PUSH0 DUP4 DUP4 ADD MSTORE POP POP POP JUMP JUMPDEST PUSH0 PUSH2 0x3B0C DUP3 PUSH2 0x3ADA JUMP JUMPDEST PUSH2 0x3B16 DUP2 DUP6 PUSH2 0x3AE4 JUMP JUMPDEST SWAP4 POP PUSH2 0x3B26 DUP2 DUP6 PUSH1 0x20 DUP7 ADD PUSH2 0x3AF4 JUMP JUMPDEST PUSH2 0x3B2F DUP2 PUSH2 0x3790 JUMP JUMPDEST DUP5 ADD SWAP2 POP POP SWAP3 SWAP2 POP POP JUMP JUMPDEST PUSH0 PUSH1 0x20 DUP3 ADD SWAP1 POP DUP2 DUP2 SUB PUSH0 DUP4 ADD MSTORE PUSH2 0x3B52 DUP2 DUP5 PUSH2 0x3B02 JUMP JUMPDEST SWAP1 POP SWAP3 SWAP2 POP POP JUMP JUMPDEST PUSH0 PUSH1 0x20 DUP3 ADD SWAP1 POP PUSH2 0x3B6D PUSH0 DUP4 ADD DUP5 PUSH2 0x3736 JUMP JUMPDEST SWAP3 SWAP2 POP POP JUMP JUMPDEST PUSH0 PUSH1 0x20 DUP3 ADD SWAP1 POP PUSH2 0x3B86 PUSH0 DUP4 ADD DUP5 PUSH2 0x371C JUMP JUMPDEST SWAP3 SWAP2 POP POP JUMP JUMPDEST PUSH0 DUP1 PUSH1 0x20 DUP4 DUP6 SUB SLT ISZERO PUSH2 0x3BA2 JUMPI PUSH2 0x3BA1 PUSH2 0x3686 JUMP JUMPDEST JUMPDEST PUSH0 DUP4 ADD CALLDATALOAD PUSH8 0xFFFFFFFFFFFFFFFF DUP2 GT ISZERO PUSH2 0x3BBF JUMPI PUSH2 0x3BBE PUSH2 0x368A JUMP JUMPDEST JUMPDEST PUSH2 0x3BCB DUP6 DUP3 DUP7 ADD PUSH2 0x39A2 JUMP JUMPDEST SWAP3 POP SWAP3 POP POP SWAP3 POP SWAP3 SWAP1 POP JUMP JUMPDEST PUSH0 DUP1 PUSH0 PUSH1 0x60 DUP5 DUP7 SUB SLT ISZERO PUSH2 0x3BEE JUMPI PUSH2 0x3BED PUSH2 0x3686 JUMP JUMPDEST JUMPDEST PUSH0 PUSH2 0x3BFB DUP7 DUP3 DUP8 ADD PUSH2 0x3A0D JUMP JUMPDEST SWAP4 POP POP PUSH1 0x20 DUP5 ADD CALLDATALOAD PUSH8 0xFFFFFFFFFFFFFFFF DUP2 GT ISZERO PUSH2 0x3C1C JUMPI PUSH2 0x3C1B PUSH2 0x368A JUMP JUMPDEST JUMPDEST PUSH2 0x3C28 DUP7 DUP3 DUP8 ADD PUSH2 0x3897 JUMP JUMPDEST SWAP3 POP POP PUSH1 0x40 PUSH2 0x3C39 DUP7 DUP3 DUP8 ADD PUSH2 0x36D4 JUMP JUMPDEST SWAP2 POP POP SWAP3 POP SWAP3 POP SWAP3 JUMP JUMPDEST PUSH0 PUSH1 0x20 DUP3 DUP5 SUB SLT ISZERO PUSH2 0x3C58 JUMPI PUSH2 0x3C57 PUSH2 0x3686 JUMP JUMPDEST JUMPDEST PUSH0 PUSH2 0x3C65 DUP5 DUP3 DUP6 ADD PUSH2 0x3A0D JUMP JUMPDEST SWAP2 POP POP SWAP3 SWAP2 POP POP JUMP JUMPDEST PUSH0 PUSH1 0x40 DUP3 ADD SWAP1 POP PUSH2 0x3C81 PUSH0 DUP4 ADD DUP6 PUSH2 0x3736 JUMP JUMPDEST PUSH2 0x3C8E PUSH1 0x20 DUP4 ADD DUP5 PUSH2 0x371C JUMP JUMPDEST SWAP4 SWAP3 POP POP POP JUMP JUMPDEST PUSH0 DUP1 PUSH1 0x40 DUP4 DUP6 SUB SLT ISZERO PUSH2 0x3CAB JUMPI PUSH2 0x3CAA PUSH2 0x3686 JUMP JUMPDEST JUMPDEST PUSH0 PUSH2 0x3CB8 DUP6 DUP3 DUP7 ADD PUSH2 0x36D4 JUMP JUMPDEST SWAP3 POP POP PUSH1 0x20 DUP4 ADD CALLDATALOAD PUSH8 0xFFFFFFFFFFFFFFFF DUP2 GT ISZERO PUSH2 0x3CD9 JUMPI PUSH2 0x3CD8 PUSH2 0x368A JUMP JUMPDEST JUMPDEST PUSH2 0x3CE5 DUP6 DUP3 DUP7 ADD PUSH2 0x3897 JUMP JUMPDEST SWAP2 POP POP SWAP3 POP SWAP3 SWAP1 POP JUMP JUMPDEST PUSH0 PUSH1 0x40 DUP3 ADD SWAP1 POP PUSH2 0x3D02 PUSH0 DUP4 ADD DUP6 PUSH2 0x3A7E JUMP JUMPDEST DUP2 DUP2 SUB PUSH1 0x20 DUP4 ADD MSTORE PUSH2 0x3D14 DUP2 DUP5 PUSH2 0x3B02 JUMP JUMPDEST SWAP1 POP SWAP4 SWAP3 POP POP POP JUMP JUMPDEST PUSH0 DUP2 SWAP1 POP SWAP2 SWAP1 POP JUMP JUMPDEST PUSH0 PUSH2 0x3D40 PUSH2 0x3D3B PUSH2 0x3D36 DUP5 PUSH2 0x368E JUMP JUMPDEST PUSH2 0x3D1D JUMP JUMPDEST PUSH2 0x368E JUMP JUMPDEST SWAP1 POP SWAP2 SWAP1 POP JUMP JUMPDEST PUSH0 PUSH2 0x3D51 DUP3 PUSH2 0x3D26 JUMP JUMPDEST SWAP1 POP SWAP2 SWAP1 POP JUMP JUMPDEST PUSH0 PUSH2 0x3D62 DUP3 PUSH2 0x3D47 JUMP JUMPDEST SWAP1 POP SWAP2 SWAP1 POP JUMP JUMPDEST PUSH2 0x3D72 DUP2 PUSH2 0x3D58 JUMP JUMPDEST DUP3 MSTORE POP POP JUMP JUMPDEST PUSH0 PUSH1 0x20 DUP3 ADD SWAP1 POP PUSH2 0x3D8B PUSH0 DUP4 ADD DUP5 PUSH2 0x3D69 JUMP JUMPDEST SWAP3 SWAP2 POP POP JUMP JUMPDEST PUSH0 PUSH2 0x100 DUP3 ADD SWAP1 POP DUP2 DUP2 SUB PUSH0 DUP4 ADD MSTORE PUSH2 0x3DAA DUP2 DUP12 PUSH2 0x3B02 JUMP JUMPDEST SWAP1 POP DUP2 DUP2 SUB PUSH1 0x20 DUP4 ADD MSTORE PUSH2 0x3DBE DUP2 DUP11 PUSH2 0x3B02 JUMP JUMPDEST SWAP1 POP PUSH2 0x3DCD PUSH1 0x40 DUP4 ADD DUP10 PUSH2 0x371C JUMP JUMPDEST PUSH2 0x3DDA PUSH1 0x60 DUP4 ADD DUP9 PUSH2 0x371C JUMP JUMPDEST PUSH2 0x3DE7 PUSH1 0x80 DUP4 ADD DUP8 PUSH2 0x371C JUMP JUMPDEST PUSH2 0x3DF4 PUSH1 0xA0 DUP4 ADD DUP7 PUSH2 0x3A7E JUMP JUMPDEST PUSH2 0x3E01 PUSH1 0xC0 DUP4 ADD DUP6 PUSH2 0x3AB2 JUMP JUMPDEST PUSH2 0x3E0E PUSH1 0xE0 DUP4 ADD DUP5 PUSH2 0x371C JUMP JUMPDEST SWAP10 SWAP9 POP POP POP POP POP POP POP POP POP JUMP JUMPDEST PUSH32 0x496E76616C696420626F6E75732070657263656E746167650000000000000000 PUSH0 DUP3 ADD MSTORE POP JUMP JUMPDEST PUSH0 PUSH2 0x3E4F PUSH1 0x18 DUP4 PUSH2 0x3AE4 JUMP JUMPDEST SWAP2 POP PUSH2 0x3E5A DUP3 PUSH2 0x3E1B JUMP JUMPDEST PUSH1 0x20 DUP3 ADD SWAP1 POP SWAP2 SWAP1 POP JUMP JUMPDEST PUSH0 PUSH1 0x20 DUP3 ADD SWAP1 POP DUP2 DUP2 SUB PUSH0 DUP4 ADD MSTORE PUSH2 0x3E7C DUP2 PUSH2 0x3E43 JUMP JUMPDEST SWAP1 POP SWAP2 SWAP1 POP JUMP JUMPDEST PUSH32 0x496E76616C696420636F64650000000000000000000000000000000000000000 PUSH0 DUP3 ADD MSTORE POP JUMP JUMPDEST PUSH0 PUSH2 0x3EB7 PUSH1 0xC DUP4 PUSH2 0x3AE4 JUMP JUMPDEST SWAP2 POP PUSH2 0x3EC2 DUP3 PUSH2 0x3E83 JUMP JUMPDEST PUSH1 0x20 DUP3 ADD SWAP1 POP SWAP2 SWAP1 POP JUMP JUMPDEST PUSH0 PUSH1 0x20 DUP3 ADD SWAP1 POP DUP2 DUP2 SUB PUSH0 DUP4 ADD MSTORE PUSH2 0x3EE4 DUP2 PUSH2 0x3EAB JUMP JUMPDEST SWAP1 POP SWAP2 SWAP1 POP JUMP JUMPDEST PUSH0 DUP2 SWAP1 POP SWAP3 SWAP2 POP POP JUMP JUMPDEST PUSH0 PUSH2 0x3F00 DUP4 DUP6 PUSH2 0x3EEB JUMP JUMPDEST SWAP4 POP PUSH2 0x3F0D DUP4 DUP6 DUP5 PUSH2 0x3848 JUMP JUMPDEST DUP3 DUP5 ADD SWAP1 POP SWAP4 SWAP3 POP POP POP JUMP JUMPDEST PUSH0 PUSH2 0x3F25 DUP3 DUP5 DUP7 PUSH2 0x3EF5 JUMP JUMPDEST SWAP2 POP DUP2 SWAP1 POP SWAP4 SWAP3 POP POP POP JUMP JUMPDEST PUSH0 PUSH2 0x3F3C DUP4 DUP6 PUSH2 0x3AE4 JUMP JUMPDEST SWAP4 POP PUSH2 0x3F49 DUP4 DUP6 DUP5 PUSH2 0x3848 JUMP JUMPDEST PUSH2 0x3F52 DUP4 PUSH2 0x3790 JUMP JUMPDEST DUP5 ADD SWAP1 POP SWAP4 SWAP3 POP POP POP JUMP JUMPDEST PUSH0 PUSH1 0x40 DUP3 ADD SWAP1 POP DUP2 DUP2 SUB PUSH0 DUP4 ADD MSTORE PUSH2 0x3F76 DUP2 DUP6 DUP8 PUSH2 0x3F31 JUMP JUMPDEST SWAP1 POP PUSH2 0x3F85 PUSH1 0x20 DUP4 ADD DUP5 PUSH2 0x371C JUMP JUMPDEST SWAP5 SWAP4 POP POP POP POP JUMP JUMPDEST PUSH0 DUP2 MLOAD SWAP1 POP PUSH2 0x3F9B DUP2 PUSH2 0x39F7 JUMP JUMPDEST SWAP3 SWAP2 POP POP JUMP JUMPDEST PUSH0 PUSH1 0x20 DUP3 DUP5 SUB SLT ISZERO PUSH2 0x3FB6 JUMPI PUSH2 0x3FB5 PUSH2 0x3686 JUMP JUMPDEST JUMPDEST PUSH0 PUSH2 0x3FC3 DUP5 DUP3 DUP6 ADD PUSH2 0x3F8D JUMP JUMPDEST SWAP2 POP POP SWAP3 SWAP2 POP POP JUMP JUMPDEST PUSH32 0x4E6F20746F6B656E7320746F2077697468647261770000000000000000000000 PUSH0 DUP3 ADD MSTORE POP JUMP JUMPDEST PUSH0 PUSH2 0x4000 PUSH1 0x15 DUP4 PUSH2 0x3AE4 JUMP JUMPDEST SWAP2 POP PUSH2 0x400B DUP3 PUSH2 0x3FCC JUMP JUMPDEST PUSH1 0x20 DUP3 ADD SWAP1 POP SWAP2 SWAP1 POP JUMP JUMPDEST PUSH0 PUSH1 0x20 DUP3 ADD SWAP1 POP DUP2 DUP2 SUB PUSH0 DUP4 ADD MSTORE PUSH2 0x402D DUP2 PUSH2 0x3FF4 JUMP JUMPDEST SWAP1 POP SWAP2 SWAP1 POP JUMP JUMPDEST PUSH32 0x4E487B7100000000000000000000000000000000000000000000000000000000 PUSH0 MSTORE PUSH1 0x22 PUSH1 0x4 MSTORE PUSH1 0x24 PUSH0 REVERT JUMPDEST PUSH0 PUSH1 0x2 DUP3 DIV SWAP1 POP PUSH1 0x1 DUP3 AND DUP1 PUSH2 0x4078 JUMPI PUSH1 0x7F DUP3 AND SWAP2 POP JUMPDEST PUSH1 0x20 DUP3 LT DUP2 SUB PUSH2 0x408B JUMPI PUSH2 0x408A PUSH2 0x4034 JUMP JUMPDEST JUMPDEST POP SWAP2 SWAP1 POP JUMP JUMPDEST PUSH32 0x436F6E7472616374207061757365640000000000000000000000000000000000 PUSH0 DUP3 ADD MSTORE POP JUMP JUMPDEST PUSH0 PUSH2 0x40C5 PUSH1 0xF DUP4 PUSH2 0x3AE4 JUMP JUMPDEST SWAP2 POP PUSH2 0x40D0 DUP3 PUSH2 0x4091 JUMP JUMPDEST PUSH1 0x20 DUP3 ADD SWAP1 POP SWAP2 SWAP1 POP JUMP JUMPDEST PUSH0 PUSH1 0x20 DUP3 ADD SWAP1 POP DUP2 DUP2 SUB PUSH0 DUP4 ADD MSTORE PUSH2 0x40F2 DUP2 PUSH2 0x40B9 JUMP JUMPDEST SWAP1 POP SWAP2 SWAP1 POP JUMP JUMPDEST PUSH32 0x4164647265737320626C61636B6C697374656400000000000000000000000000 PUSH0 DUP3 ADD MSTORE POP JUMP JUMPDEST PUSH0 PUSH2 0x412D PUSH1 0x13 DUP4 PUSH2 0x3AE4 JUMP JUMPDEST SWAP2 POP PUSH2 0x4138 DUP3 PUSH2 0x40F9 JUMP JUMPDEST PUSH1 0x20 DUP3 ADD SWAP1 POP SWAP2 SWAP1 POP JUMP JUMPDEST PUSH0 PUSH1 0x20 DUP3 ADD SWAP1 POP DUP2 DUP2 SUB PUSH0 DUP4 ADD MSTORE PUSH2 0x415A DUP2 PUSH2 0x4121 JUMP JUMPDEST SWAP1 POP SWAP2 SWAP1 POP JUMP JUMPDEST PUSH32 0x496E76616C696420726566657272616C20636F64650000000000000000000000 PUSH0 DUP3 ADD MSTORE POP JUMP JUMPDEST PUSH0 PUSH2 0x4195 PUSH1 0x15 DUP4 PUSH2 0x3AE4 JUMP JUMPDEST SWAP2 POP PUSH2 0x41A0 DUP3 PUSH2 0x4161 JUMP JUMPDEST PUSH1 0x20 DUP3 ADD SWAP1 POP SWAP2 SWAP1 POP JUMP JUMPDEST PUSH0 PUSH1 0x20 DUP3 ADD SWAP1 POP DUP2 DUP2 SUB PUSH0 DUP4 ADD MSTORE PUSH2 0x41C2 DUP2 PUSH2 0x4189 JUMP JUMPDEST SWAP1 POP SWAP2 SWAP1 POP JUMP JUMPDEST PUSH32 0x526566657272616C20636F6465206E6F7420666F756E64000000000000000000 PUSH0 DUP3 ADD MSTORE POP JUMP JUMPDEST PUSH0 PUSH2 0x41FD PUSH1 0x17 DUP4 PUSH2 0x3AE4 JUMP JUMPDEST SWAP2 POP PUSH2 0x4208 DUP3 PUSH2 0x41C9 JUMP JUMPDEST PUSH1 0x20 DUP3 ADD SWAP1 POP SWAP2 SWAP1 POP JUMP JUMPDEST PUSH0 PUSH1 0x20 DUP3 ADD SWAP1 POP DUP2 DUP2 SUB PUSH0 DUP4 ADD MSTORE PUSH2 0x422A DUP2 PUSH2 0x41F1 JUMP JUMPDEST SWAP1 POP SWAP2 SWAP1 POP JUMP JUMPDEST PUSH32 0x43616E6E6F7420726566657220796F757273656C660000000000000000000000 PUSH0 DUP3 ADD MSTORE POP JUMP JUMPDEST PUSH0 PUSH2 0x4265 PUSH1 0x15 DUP4 PUSH2 0x3AE4 JUMP JUMPDEST SWAP2 POP PUSH2 0x4270 DUP3 PUSH2 0x4231 JUMP JUMPDEST PUSH1 0x20 DUP3 ADD SWAP1 POP SWAP2 SWAP1 POP JUMP JUMPDEST PUSH0 PUSH1 0x20 DUP3 ADD SWAP1 POP DUP2 DUP2 SUB PUSH0 DUP4 ADD MSTORE PUSH2 0x4292 DUP2 PUSH2 0x4259 JUMP JUMPDEST SWAP1 POP SWAP2 SWAP1 POP JUMP JUMPDEST PUSH0 DUP3 SWAP1 POP SWAP3 SWAP2 POP POP JUMP JUMPDEST PUSH0 DUP2 SWAP1 POP DUP2 PUSH0 MSTORE PUSH1 0x20 PUSH0 KECCAK256 SWAP1 POP SWAP2 SWAP1 POP JUMP JUMPDEST PUSH0 PUSH1 0x20 PUSH1 0x1F DUP4 ADD DIV SWAP1 POP SWAP2 SWAP1 POP JUMP JUMPDEST PUSH0 DUP3 DUP3 SHL SWAP1 POP SWAP3 SWAP2 POP POP JUMP JUMPDEST PUSH0 PUSH1 0x8 DUP4 MUL PUSH2 0x42FF PUSH32 0xFFFFFFFFFFFFFFFFFFFFFFFFFFFFFFFFFFFFFFFFFFFFFFFFFFFFFFFFFFFFFFFF DUP3 PUSH2 0x42C4 JUMP JUMPDEST PUSH2 0x4309 DUP7 DUP4 PUSH2 0x42C4 JUMP JUMPDEST SWAP6 POP DUP1 NOT DUP5 AND SWAP4 POP DUP1 DUP7 AND DUP5 OR SWAP3 POP POP POP SWAP4 SWAP3 POP POP POP JUMP JUMPDEST PUSH0 PUSH2 0x433B PUSH2 0x4336 PUSH2 0x4331 DUP5 PUSH2 0x3713 JUMP JUMPDEST PUSH2 0x3D1D JUMP JUMPDEST PUSH2 0x3713 JUMP JUMPDEST SWAP1 POP SWAP2 SWAP1 POP JUMP JUMPDEST PUSH0 DUP2 SWAP1 POP SWAP2 SWAP1 POP JUMP JUMPDEST PUSH2 0x4354 DUP4 PUSH2 0x4321 JUMP JUMPDEST PUSH2 0x4368 PUSH2 0x4360 DUP3 PUSH2 0x4342 JUMP JUMPDEST DUP5 DUP5 SLOAD PUSH2 0x42D0 JUMP JUMPDEST DUP3 SSTORE POP POP POP POP JUMP JUMPDEST PUSH0 SWAP1 JUMP JUMPDEST PUSH2 0x437C PUSH2 0x4370 JUMP JUMPDEST PUSH2 0x4387 DUP2 DUP5 DUP5 PUSH2 0x434B JUMP JUMPDEST POP POP POP JUMP JUMPDEST JUMPDEST DUP2 DUP2 LT ISZERO PUSH2 0x43AA JUMPI PUSH2 0x439F PUSH0 DUP3 PUSH2 0x4374 JUMP JUMPDEST PUSH1 0x1 DUP2 ADD SWAP1 POP PUSH2 0x438D JUMP JUMPDEST POP POP JUMP JUMPDEST PUSH1 0x1F DUP3 GT ISZERO PUSH2 0x43EF JUMPI PUSH2 0x43C0 DUP2 PUSH2 0x42A3 JUMP JUMPDEST PUSH2 0x43C9 DUP5 PUSH2 0x42B5 JUMP JUMPDEST DUP2 ADD PUSH1 0x20 DUP6 LT ISZERO PUSH2 0x43D8 JUMPI DUP2 SWAP1 POP JUMPDEST PUSH2 0x43EC PUSH2 0x43E4 DUP6 PUSH2 0x42B5 JUMP JUMPDEST DUP4 ADD DUP3 PUSH2 0x438C JUMP JUMPDEST POP POP JUMPDEST POP POP POP JUMP JUMPDEST PUSH0 DUP3 DUP3 SHR SWAP1 POP SWAP3 SWAP2 POP POP JUMP JUMPDEST PUSH0 PUSH2 0x440F PUSH0 NOT DUP5 PUSH1 0x8 MUL PUSH2 0x43F4 JUMP JUMPDEST NOT DUP1 DUP4 AND SWAP2 POP POP SWAP3 SWAP2 POP POP JUMP JUMPDEST PUSH0 PUSH2 0x4427 DUP4 DUP4 PUSH2 0x4400 JUMP JUMPDEST SWAP2 POP DUP3 PUSH1 0x2 MUL DUP3 OR SWAP1 POP SWAP3 SWAP2 POP POP JUMP JUMPDEST PUSH2 0x4441 DUP4 DUP4 PUSH2 0x4299 JUMP JUMPDEST PUSH8 0xFFFFFFFFFFFFFFFF DUP2 GT ISZERO PUSH2 0x445A JUMPI PUSH2 0x4459 PUSH2 0x37A0 JUMP JUMPDEST JUMPDEST PUSH2 0x4464 DUP3 SLOAD PUSH2 0x4061 JUMP JUMPDEST PUSH2 0x446F DUP3 DUP3 DUP6 PUSH2 0x43AE JUMP JUMPDEST PUSH0 PUSH1 0x1F DUP4 GT PUSH1 0x1 DUP2 EQ PUSH2 0x449C JUMPI PUSH0 DUP5 ISZERO PUSH2 0x448A JUMPI DUP3 DUP8 ADD CALLDATALOAD SWAP1 POP JUMPDEST PUSH2 0x4494 DUP6 DUP3 PUSH2 0x441C JUMP JUMPDEST DUP7 SSTORE POP PUSH2 0x44FB JUMP JUMPDEST PUSH1 0x1F NOT DUP5 AND PUSH2 0x44AA DUP7 PUSH2 0x42A3 JUMP JUMPDEST PUSH0 JUMPDEST DUP3 DUP2 LT ISZERO PUSH2 0x44D1 JUMPI DUP5 DUP10 ADD CALLDATALOAD DUP3 SSTORE PUSH1 0x1 DUP3 ADD SWAP2 POP PUSH1 0x20 DUP6 ADD SWAP5 POP PUSH1 0x20 DUP2 ADD SWAP1 POP PUSH2 0x44AC JUMP JUMPDEST DUP7 DUP4 LT ISZERO PUSH2 0x44EE JUMPI DUP5 DUP10 ADD CALLDATALOAD PUSH2 0x44EA PUSH1 0x1F DUP10 AND DUP3 PUSH2 0x4400 JUMP JUMPDEST DUP4 SSTORE POP JUMPDEST PUSH1 0x1 PUSH1 0x2 DUP9 MUL ADD DUP9 SSTORE POP POP POP JUMPDEST POP POP POP POP POP POP POP JUMP JUMPDEST PUSH0 PUSH1 0x20 DUP3 ADD SWAP1 POP DUP2 DUP2 SUB PUSH0 DUP4 ADD MSTORE PUSH2 0x451D DUP2 DUP5 DUP7 PUSH2 0x3F31 JUMP JUMPDEST SWAP1 POP SWAP4 SWAP3 POP POP POP JUMP JUMPDEST PUSH32 0x5A65726F20746F6B656E20616464726573730000000000000000000000000000 PUSH0 DUP3 ADD MSTORE POP JUMP JUMPDEST PUSH0 PUSH2 0x455A PUSH1 0x12 DUP4 PUSH2 0x3AE4 JUMP JUMPDEST SWAP2 POP PUSH2 0x4565 DUP3 PUSH2 0x4526 JUMP JUMPDEST PUSH1 0x20 DUP3 ADD SWAP1 POP SWAP2 SWAP1 POP JUMP JUMPDEST PUSH0 PUSH1 0x20 DUP3 ADD SWAP1 POP DUP2 DUP2 SUB PUSH0 DUP4 ADD MSTORE PUSH2 0x4587 DUP2 PUSH2 0x454E JUMP JUMPDEST SWAP1 POP SWAP2 SWAP1 POP JUMP JUMPDEST PUSH2 0x4597 DUP2 PUSH2 0x3AA6 JUMP JUMPDEST DUP2 EQ PUSH2 0x45A1 JUMPI PUSH0 DUP1 REVERT JUMPDEST POP JUMP JUMPDEST PUSH0 DUP2 MLOAD SWAP1 POP PUSH2 0x45B2 DUP2 PUSH2 0x458E JUMP JUMPDEST SWAP3 SWAP2 POP POP JUMP JUMPDEST PUSH0 PUSH1 0x20 DUP3 DUP5 SUB SLT ISZERO PUSH2 0x45CD JUMPI PUSH2 0x45CC PUSH2 0x3686 JUMP JUMPDEST JUMPDEST PUSH0 PUSH2 0x45DA DUP5 DUP3 DUP6 ADD PUSH2 0x45A4 JUMP JUMPDEST SWAP2 POP POP SWAP3 SWAP2 POP POP JUMP JUMPDEST PUSH32 0x436F646520657869737473000000000000000000000000000000000000000000 PUSH0 DUP3 ADD MSTORE POP JUMP JUMPDEST PUSH0 PUSH2 0x4617 PUSH1 0xB DUP4 PUSH2 0x3AE4 JUMP JUMPDEST SWAP2 POP PUSH2 0x4622 DUP3 PUSH2 0x45E3 JUMP JUMPDEST PUSH1 0x20 DUP3 ADD SWAP1 POP SWAP2 SWAP1 POP JUMP JUMPDEST PUSH0 PUSH1 0x20 DUP3 ADD SWAP1 POP DUP2 DUP2 SUB PUSH0 DUP4 ADD MSTORE PUSH2 0x4644 DUP2 PUSH2 0x460B JUMP JUMPDEST SWAP1 POP SWAP2 SWAP1 POP JUMP JUMPDEST PUSH0 PUSH2 0x4655 DUP3 PUSH2 0x3ADA JUMP JUMPDEST PUSH2 0x465F DUP2 DUP6 PUSH2 0x3EEB JUMP JUMPDEST SWAP4 POP PUSH2 0x466F DUP2 DUP6 PUSH1 0x20 DUP7 ADD PUSH2 0x3AF4 JUMP JUMPDEST DUP1 DUP5 ADD SWAP2 POP POP SWAP3 SWAP2 POP POP JUMP JUMPDEST PUSH0 PUSH2 0x4686 DUP3 DUP5 PUSH2 0x464B JUMP JUMPDEST SWAP2 POP DUP2 SWAP1 POP SWAP3 SWAP2 POP POP JUMP JUMPDEST PUSH32 0x436F646520636F6C6C6973696F6E000000000000000000000000000000000000 PUSH0 DUP3 ADD MSTORE POP JUMP JUMPDEST PUSH0 PUSH2 0x46C5 PUSH1 0xE DUP4 PUSH2 0x3AE4 JUMP JUMPDEST SWAP2 POP PUSH2 0x46D0 DUP3 PUSH2 0x4691 JUMP JUMPDEST PUSH1 0x20 DUP3 ADD SWAP1 POP SWAP2 SWAP1 POP JUMP JUMPDEST PUSH0 PUSH1 0x20 DUP3 ADD SWAP1 POP DUP2 DUP2 SUB PUSH0 DUP4 ADD MSTORE PUSH2 0x46F2 DUP2 PUSH2 0x46B9 JUMP JUMPDEST SWAP1 POP SWAP2 SWAP1 POP JUMP JUMPDEST PUSH2 0x4702 DUP3 PUSH2 0x3ADA JUMP JUMPDEST PUSH8 0xFFFFFFFFFFFFFFFF DUP2 GT ISZERO PUSH2 0x471B JUMPI PUSH2 0x471A PUSH2 0x37A0 JUMP JUMPDEST JUMPDEST PUSH2 0x4725 DUP3 SLOAD PUSH2 0x4061 JUMP JUMPDEST PUSH2 0x4730 DUP3 DUP3 DUP6 PUSH2 0x43AE JUMP JUMPDEST PUSH0 PUSH1 0x20 SWAP1 POP PUSH1 0x1F DUP4 GT PUSH1 0x1 DUP2 EQ PUSH2 0x4761 JUMPI PUSH0 DUP5 ISZERO PUSH2 0x474F JUMPI DUP3 DUP8 ADD MLOAD SWAP1 POP JUMPDEST PUSH2 0x4759 DUP6 DUP3 PUSH2 0x441C JUMP JUMPDEST DUP7 SSTORE POP PUSH2 0x47C0 JUMP JUMPDEST PUSH1 0x1F NOT DUP5 AND PUSH2 0x476F DUP7 PUSH2 0x42A3 JUMP JUMPDEST PUSH0 JUMPDEST DUP3 DUP2 LT ISZERO PUSH2 0x4796 JUMPI DUP5 DUP10 ADD MLOAD DUP3 SSTORE PUSH1 0x1 DUP3 ADD SWAP2 POP PUSH1 0x20 DUP6 ADD SWAP5 POP PUSH1 0x20 DUP2 ADD SWAP1 POP PUSH2 0x4771 JUMP JUMPDEST DUP7 DUP4 LT ISZERO PUSH2 0x47B3 JUMPI DUP5 DUP10 ADD MLOAD PUSH2 0x47AF PUSH1 0x1F DUP10 AND DUP3 PUSH2 0x4400 JUMP JUMPDEST DUP4 SSTORE POP JUMPDEST PUSH1 0x1 PUSH1 0x2 DUP9 MUL ADD DUP9 SSTORE POP POP POP JUMPDEST POP POP POP POP POP POP JUMP JUMPDEST PUSH32 0x546F6B656E20616D6F756E74206D757374206265206772656174657220746861 PUSH0 DUP3 ADD MSTORE PUSH32 0x6E207A65726F0000000000000000000000000000000000000000000000000000 PUSH1 0x20 DUP3 ADD MSTORE POP JUMP JUMPDEST PUSH0 PUSH2 0x4822 PUSH1 0x26 DUP4 PUSH2 0x3AE4 JUMP JUMPDEST SWAP2 POP PUSH2 0x482D DUP3 PUSH2 0x47C8 JUMP JUMPDEST PUSH1 0x40 DUP3 ADD SWAP1 POP SWAP2 SWAP1 POP JUMP JUMPDEST PUSH0 PUSH1 0x20 DUP3 ADD SWAP1 POP DUP2 DUP2 SUB PUSH0 DUP4 ADD MSTORE PUSH2 0x484F DUP2 PUSH2 0x4816 JUMP JUMPDEST SWAP1 POP SWAP2 SWAP1 POP JUMP JUMPDEST PUSH32 0x45544820616D6F756E74206973206C657373207468616E20746865206D696E69 PUSH0 DUP3 ADD MSTORE PUSH32 0x6D756D2070757263686173652076616C7565206F662000000000000000000000 PUSH1 0x20 DUP3 ADD MSTORE POP JUMP JUMPDEST PUSH0 PUSH2 0x48B0 PUSH1 0x36 DUP4 PUSH2 0x3EEB JUMP JUMPDEST SWAP2 POP PUSH2 0x48BB DUP3 PUSH2 0x4856 JUMP JUMPDEST PUSH1 0x36 DUP3 ADD SWAP1 POP SWAP2 SWAP1 POP JUMP JUMPDEST PUSH32 0x2077656900000000000000000000000000000000000000000000000000000000 PUSH0 DUP3 ADD MSTORE POP JUMP JUMPDEST PUSH0 PUSH2 0x48FA PUSH1 0x4 DUP4 PUSH2 0x3EEB JUMP JUMPDEST SWAP2 POP PUSH2 0x4905 DUP3 PUSH2 0x48C6 JUMP JUMPDEST PUSH1 0x4 DUP3 ADD SWAP1 POP SWAP2 SWAP1 POP JUMP JUMPDEST PUSH0 PUSH2 0x491A DUP3 PUSH2 0x48A4 JUMP JUMPDEST SWAP2 POP PUSH2 0x4926 DUP3 DUP5 PUSH2 0x464B JUMP JUMPDEST SWAP2 POP PUSH2 0x4931 DUP3 PUSH2 0x48EE JUMP JUMPDEST SWAP2 POP DUP2 SWAP1 POP SWAP3 SWAP2 POP POP JUMP JUMPDEST PUSH32 0x4E487B7100000000000000000000000000000000000000000000000000000000 PUSH0 MSTORE PUSH1 0x12 PUSH1 0x4 MSTORE PUSH1 0x24 PUSH0 REVERT JUMPDEST PUSH32 0x4E487B7100000000000000000000000000000000000000000000000000000000 PUSH0 MSTORE PUSH1 0x11 PUSH1 0x4 MSTORE PUSH1 0x24 PUSH0 REVERT JUMPDEST PUSH0 PUSH2 0x49A0 DUP3 PUSH2 0x3713 JUMP JUMPDEST SWAP2 POP PUSH2 0x49AB DUP4 PUSH2 0x3713 JUMP JUMPDEST SWAP3 POP DUP3 PUSH2 0x49BB JUMPI PUSH2 0x49BA PUSH2 0x493C JUMP JUMPDEST JUMPDEST DUP3 DUP3 DIV SWAP1 POP SWAP3 SWAP2 POP POP JUMP JUMPDEST PUSH0 PUSH2 0x49D0 DUP3 PUSH2 0x3713 JUMP JUMPDEST SWAP2 POP PUSH2 0x49DB DUP4 PUSH2 0x3713 JUMP JUMPDEST SWAP3 POP DUP3 DUP3 ADD SWAP1 POP DUP1 DUP3 GT ISZERO PUSH2 0x49F3 JUMPI PUSH2 0x49F2 PUSH2 0x4969 JUMP JUMPDEST JUMPDEST SWAP3 SWAP2 POP POP JUMP JUMPDEST PUSH32 0x496E636F72726563742045544820616D6F756E743A2065787065637465642061 PUSH0 DUP3 ADD MSTORE PUSH32 0x7070726F78696D6174656C792000000000000000000000000000000000000000 PUSH1 0x20 DUP3 ADD MSTORE POP JUMP JUMPDEST PUSH0 PUSH2 0x4A53 PUSH1 0x2D DUP4 PUSH2 0x3EEB JUMP JUMPDEST SWAP2 POP PUSH2 0x4A5E DUP3 PUSH2 0x49F9 JUMP JUMPDEST PUSH1 0x2D DUP3 ADD SWAP1 POP SWAP2 SWAP1 POP JUMP JUMPDEST PUSH32 0x207765692C207265636569766564200000000000000000000000000000000000 PUSH0 DUP3 ADD MSTORE POP JUMP JUMPDEST PUSH0 PUSH2 0x4A9D PUSH1 0xF DUP4 PUSH2 0x3EEB JUMP JUMPDEST SWAP2 POP PUSH2 0x4AA8 DUP3 PUSH2 0x4A69 JUMP JUMPDEST PUSH1 0xF DUP3 ADD SWAP1 POP SWAP2 SWAP1 POP JUMP JUMPDEST PUSH0 PUSH2 0x4ABD DUP3 PUSH2 0x4A47 JUMP JUMPDEST SWAP2 POP PUSH2 0x4AC9 DUP3 DUP6 PUSH2 0x464B JUMP JUMPDEST SWAP2 POP PUSH2 0x4AD4 DUP3 PUSH2 0x4A91 JUMP JUMPDEST SWAP2 POP PUSH2 0x4AE0 DUP3 DUP5 PUSH2 0x464B JUMP JUMPDEST SWAP2 POP PUSH2 0x4AEB DUP3 PUSH2 0x48EE JUMP JUMPDEST SWAP2 POP DUP2 SWAP1 POP SWAP4 SWAP3 POP POP POP JUMP JUMPDEST PUSH0 DUP2 PUSH1 0x1 SHR SWAP1 POP SWAP2 SWAP1 POP JUMP JUMPDEST PUSH0 DUP1 DUP3 SWAP2 POP DUP4 SWAP1 POP JUMPDEST PUSH1 0x1 DUP6 GT ISZERO PUSH2 0x4B4C JUMPI DUP1 DUP7 DIV DUP2 GT ISZERO PUSH2 0x4B28 JUMPI PUSH2 0x4B27 PUSH2 0x4969 JUMP JUMPDEST JUMPDEST PUSH1 0x1 DUP6 AND ISZERO PUSH2 0x4B37 JUMPI DUP1 DUP3 MUL SWAP2 POP JUMPDEST DUP1 DUP2 MUL SWAP1 POP PUSH2 0x4B45 DUP6 PUSH2 0x4AF7 JUMP JUMPDEST SWAP5 POP PUSH2 0x4B0C JUMP JUMPDEST SWAP5 POP SWAP5 SWAP3 POP POP POP JUMP JUMPDEST PUSH0 DUP3 PUSH2 0x4B64 JUMPI PUSH1 0x1 SWAP1 POP PUSH2 0x4C1F JUMP JUMPDEST DUP2 PUSH2 0x4B71 JUMPI PUSH0 SWAP1 POP PUSH2 0x4C1F JUMP JUMPDEST DUP2 PUSH1 0x1 DUP2 EQ PUSH2 0x4B87 JUMPI PUSH1 0x2 DUP2 EQ PUSH2 0x4B91 JUMPI PUSH2 0x4BC0 JUMP JUMPDEST PUSH1 0x1 SWAP2 POP POP PUSH2 0x4C1F JUMP JUMPDEST PUSH1 0xFF DUP5 GT ISZERO PUSH2 0x4BA3 JUMPI PUSH2 0x4BA2 PUSH2 0x4969 JUMP JUMPDEST JUMPDEST DUP4 PUSH1 0x2 EXP SWAP2 POP DUP5 DUP3 GT ISZERO PUSH2 0x4BBA JUMPI PUSH2 0x4BB9 PUSH2 0x4969 JUMP JUMPDEST JUMPDEST POP PUSH2 0x4C1F JUMP JUMPDEST POP PUSH1 0x20 DUP4 LT PUSH2 0x133 DUP4 LT AND PUSH1 0x4E DUP5 LT PUSH1 0xB DUP5 LT AND OR ISZERO PUSH2 0x4BF5 JUMPI DUP3 DUP3 EXP SWAP1 POP DUP4 DUP2 GT ISZERO PUSH2 0x4BF0 JUMPI PUSH2 0x4BEF PUSH2 0x4969 JUMP JUMPDEST JUMPDEST PUSH2 0x4C1F JUMP JUMPDEST PUSH2 0x4C02 DUP5 DUP5 DUP5 PUSH1 0x1 PUSH2 0x4B03 JUMP JUMPDEST SWAP3 POP SWAP1 POP DUP2 DUP5 DIV DUP2 GT ISZERO PUSH2 0x4C19 JUMPI PUSH2 0x4C18 PUSH2 0x4969 JUMP JUMPDEST JUMPDEST DUP2 DUP2 MUL SWAP1 POP JUMPDEST SWAP4 SWAP3 POP POP POP JUMP JUMPDEST PUSH0 PUSH2 0x4C30 DUP3 PUSH2 0x3713 JUMP JUMPDEST SWAP2 POP PUSH2 0x4C3B DUP4 PUSH2 0x3AA6 JUMP JUMPDEST SWAP3 POP PUSH2 0x4C68 PUSH32 0xFFFFFFFFFFFFFFFFFFFFFFFFFFFFFFFFFFFFFFFFFFFFFFFFFFFFFFFFFFFFFFFF DUP5 DUP5 PUSH2 0x4B55 JUMP JUMPDEST SWAP1 POP SWAP3 SWAP2 POP POP JUMP JUMPDEST PUSH0 PUSH2 0x4C7A DUP3 PUSH2 0x3713 JUMP JUMPDEST SWAP2 POP PUSH2 0x4C85 DUP4 PUSH2 0x3713 JUMP JUMPDEST SWAP3 POP DUP3 DUP3 MUL PUSH2 0x4C93 DUP2 PUSH2 0x3713 JUMP JUMPDEST SWAP2 POP DUP3 DUP3 DIV DUP5 EQ DUP4 ISZERO OR PUSH2 0x4CAA JUMPI PUSH2 0x4CA9 PUSH2 0x4969 JUMP JUMPDEST JUMPDEST POP SWAP3 SWAP2 POP POP JUMP JUMPDEST PUSH32 0x496E73756666696369656E7420746F6B656E2062616C616E636520696E20636F PUSH0 DUP3 ADD MSTORE PUSH32 0x6E74726163740000000000000000000000000000000000000000000000000000 PUSH1 0x20 DUP3 ADD MSTORE POP JUMP JUMPDEST PUSH0 PUSH2 0x4D0B PUSH1 0x26 DUP4 PUSH2 0x3AE4 JUMP JUMPDEST SWAP2 POP PUSH2 0x4D16 DUP3 PUSH2 0x4CB1 JUMP JUMPDEST PUSH1 0x40 DUP3 ADD SWAP1 POP SWAP2 SWAP1 POP JUMP JUMPDEST PUSH0 PUSH1 0x20 DUP3 ADD SWAP1 POP DUP2 DUP2 SUB PUSH0 DUP4 ADD MSTORE PUSH2 0x4D38 DUP2 PUSH2 0x4CFF JUMP JUMPDEST SWAP1 POP SWAP2 SWAP1 POP JUMP JUMPDEST PUSH32 0x496E76616C6964206F7220696E6163746976652070726F6D6F20636F64650000 PUSH0 DUP3 ADD MSTORE POP JUMP JUMPDEST PUSH0 PUSH2 0x4D73 PUSH1 0x1E DUP4 PUSH2 0x3AE4 JUMP JUMPDEST SWAP2 POP PUSH2 0x4D7E DUP3 PUSH2 0x4D3F JUMP JUMPDEST PUSH1 0x20 DUP3 ADD SWAP1 POP SWAP2 SWAP1 POP JUMP JUMPDEST PUSH0 PUSH1 0x20 DUP3 ADD SWAP1 POP DUP2 DUP2 SUB PUSH0 DUP4 ADD MSTORE PUSH2 0x4DA0 DUP2 PUSH2 0x4D67 JUMP JUMPDEST SWAP1 POP SWAP2 SWAP1 POP JUMP JUMPDEST PUSH32 0x50726F6D6F20636F646520616C72656164792075736564000000000000000000 PUSH0 DUP3 ADD MSTORE POP JUMP JUMPDEST PUSH0 PUSH2 0x4DDB PUSH1 0x17 DUP4 PUSH2 0x3AE4 JUMP JUMPDEST SWAP2 POP PUSH2 0x4DE6 DUP3 PUSH2 0x4DA7 JUMP JUMPDEST PUSH1 0x20 DUP3 ADD SWAP1 POP SWAP2 SWAP1 POP JUMP JUMPDEST PUSH0 PUSH1 0x20 DUP3 ADD SWAP1 POP DUP2 DUP2 SUB PUSH0 DUP4 ADD MSTORE PUSH2 0x4E08 DUP2 PUSH2 0x4DCF JUMP JUMPDEST SWAP1 POP SWAP2 SWAP1 POP JUMP JUMPDEST PUSH0 PUSH1 0x40 DUP3 ADD SWAP1 POP DUP2 DUP2 SUB PUSH0 DUP4 ADD MSTORE PUSH2 0x4E27 DUP2 DUP6 PUSH2 0x3B02 JUMP JUMPDEST SWAP1 POP PUSH2 0x4E36 PUSH1 0x20 DUP4 ADD DUP5 PUSH2 0x371C JUMP JUMPDEST SWAP4 SWAP3 POP POP POP JUMP JUMPDEST PUSH0 PUSH2 0x4E47 DUP3 PUSH2 0x3713 JUMP JUMPDEST SWAP2 POP PUSH32 0xFFFFFFFFFFFFFFFFFFFFFFFFFFFFFFFFFFFFFFFFFFFFFFFFFFFFFFFFFFFFFFFF DUP3 SUB PUSH2 0x4E79 JUMPI PUSH2 0x4E78 PUSH2 0x4969 JUMP JUMPDEST JUMPDEST PUSH1 0x1 DUP3 ADD SWAP1 POP SWAP2 SWAP1 POP JUMP JUMPDEST PUSH0 PUSH1 0x60 DUP3 ADD SWAP1 POP PUSH2 0x4E97 PUSH0 DUP4 ADD DUP7 PUSH2 0x371C JUMP JUMPDEST PUSH2 0x4EA4 PUSH1 0x20 DUP4 ADD DUP6 PUSH2 0x371C JUMP JUMPDEST PUSH2 0x4EB1 PUSH1 0x40 DUP4 ADD DUP5 PUSH2 0x371C JUMP JUMPDEST SWAP5 SWAP4 POP POP POP POP JUMP JUMPDEST PUSH0 DUP2 SWAP1 POP SWAP3 SWAP2 POP POP JUMP JUMPDEST POP JUMP JUMPDEST PUSH0 PUSH2 0x4ED1 PUSH0 DUP4 PUSH2 0x4EB9 JUMP JUMPDEST SWAP2 POP PUSH2 0x4EDC DUP3 PUSH2 0x4EC3 JUMP JUMPDEST PUSH0 DUP3 ADD SWAP1 POP SWAP2 SWAP1 POP JUMP JUMPDEST PUSH0 PUSH2 0x4EF0 DUP3 PUSH2 0x4EC6 JUMP JUMPDEST SWAP2 POP DUP2 SWAP1 POP SWAP2 SWAP1 POP JUMP JUMPDEST PUSH32 0x455448207472616E73666572206661696C656400000000000000000000000000 PUSH0 DUP3 ADD MSTORE POP JUMP JUMPDEST PUSH0 PUSH2 0x4F2E PUSH1 0x13 DUP4 PUSH2 0x3AE4 JUMP JUMPDEST SWAP2 POP PUSH2 0x4F39 DUP3 PUSH2 0x4EFA JUMP JUMPDEST PUSH1 0x20 DUP3 ADD SWAP1 POP SWAP2 SWAP1 POP JUMP JUMPDEST PUSH0 PUSH1 0x20 DUP3 ADD SWAP1 POP DUP2 DUP2 SUB PUSH0 DUP4 ADD MSTORE PUSH2 0x4F5B DUP2 PUSH2 0x4F22 JUMP JUMPDEST SWAP1 POP SWAP2 SWAP1 POP JUMP JUMPDEST PUSH32 0x496E76616C69642076616C756500000000000000000000000000000000000000 PUSH0 DUP3 ADD MSTORE POP JUMP JUMPDEST PUSH0 PUSH2 0x4F96 PUSH1 0xD DUP4 PUSH2 0x3AE4 JUMP JUMPDEST SWAP2 POP PUSH2 0x4FA1 DUP3 PUSH2 0x4F62 JUMP JUMPDEST PUSH1 0x20 DUP3 ADD SWAP1 POP SWAP2 SWAP1 POP JUMP JUMPDEST PUSH0 PUSH1 0x20 DUP3 ADD SWAP1 POP DUP2 DUP2 SUB PUSH0 DUP4 ADD MSTORE PUSH2 0x4FC3 DUP2 PUSH2 0x4F8A JUMP JUMPDEST SWAP1 POP SWAP2 SWAP1 POP JUMP JUMPDEST PUSH32 0x4D75737420706175736520666972737400000000000000000000000000000000 PUSH0 DUP3 ADD MSTORE POP JUMP JUMPDEST PUSH0 PUSH2 0x4FFE PUSH1 0x10 DUP4 PUSH2 0x3AE4 JUMP JUMPDEST SWAP2 POP PUSH2 0x5009 DUP3 PUSH2 0x4FCA JUMP JUMPDEST PUSH1 0x20 DUP3 ADD SWAP1 POP SWAP2 SWAP1 POP JUMP JUMPDEST PUSH0 PUSH1 0x20 DUP3 ADD SWAP1 POP DUP2 DUP2 SUB PUSH0 DUP4 ADD MSTORE PUSH2 0x502B DUP2 PUSH2 0x4FF2 JUMP JUMPDEST SWAP1 POP SWAP2 SWAP1 POP JUMP JUMPDEST PUSH32 0x416C72656164792068617320636F646500000000000000000000000000000000 PUSH0 DUP3 ADD MSTORE POP JUMP JUMPDEST PUSH0 PUSH2 0x5066 PUSH1 0x10 DUP4 PUSH2 0x3AE4 JUMP JUMPDEST SWAP2 POP PUSH2 0x5071 DUP3 PUSH2 0x5032 JUMP JUMPDEST PUSH1 0x20 DUP3 ADD SWAP1 POP SWAP2 SWAP1 POP JUMP JUMPDEST PUSH0 PUSH1 0x20 DUP3 ADD SWAP1 POP DUP2 DUP2 SUB PUSH0 DUP4 ADD MSTORE PUSH2 0x5093 DUP2 PUSH2 0x505A JUMP JUMPDEST SWAP1 POP SWAP2 SWAP1 POP JUMP JUMPDEST PUSH32 0x416C726561647920726566657272656400000000000000000000000000000000 PUSH0 DUP3 ADD MSTORE POP JUMP JUMPDEST PUSH0 PUSH2 0x50CE PUSH1 0x10 DUP4 PUSH2 0x3AE4 JUMP JUMPDEST SWAP2 POP PUSH2 0x50D9 DUP3 PUSH2 0x509A JUMP JUMPDEST PUSH1 0x20 DUP3 ADD SWAP1 POP SWAP2 SWAP1 POP JUMP JUMPDEST PUSH0 PUSH1 0x20 DUP3 ADD SWAP1 POP DUP2 DUP2 SUB PUSH0 DUP4 ADD MSTORE PUSH2 0x50FB DUP2 PUSH2 0x50C2 JUMP JUMPDEST SWAP1 POP SWAP2 SWAP1 POP JUMP JUMPDEST PUSH32 0x53656C6620726566657272616C00000000000000000000000000000000000000 PUSH0 DUP3 ADD MSTORE POP JUMP JUMPDEST PUSH0 PUSH2 0x5136 PUSH1 0xD DUP4 PUSH2 0x3AE4 JUMP JUMPDEST SWAP2 POP PUSH2 0x5141 DUP3 PUSH2 0x5102 JUMP JUMPDEST PUSH1 0x20 DUP3 ADD SWAP1 POP SWAP2 SWAP1 POP JUMP JUMPDEST PUSH0 PUSH1 0x20 DUP3 ADD SWAP1 POP DUP2 DUP2 SUB PUSH0 DUP4 ADD MSTORE PUSH2 0x5163 DUP2 PUSH2 0x512A JUMP JUMPDEST SWAP1 POP SWAP2 SWAP1 POP JUMP JUMPDEST PUSH32 0x5265666572726572206E6F742061637469766500000000000000000000000000 PUSH0 DUP3 ADD MSTORE POP JUMP JUMPDEST PUSH0 PUSH2 0x519E PUSH1 0x13 DUP4 PUSH2 0x3AE4 JUMP JUMPDEST SWAP2 POP PUSH2 0x51A9 DUP3 PUSH2 0x516A JUMP JUMPDEST PUSH1 0x20 DUP3 ADD SWAP1 POP SWAP2 SWAP1 POP JUMP JUMPDEST PUSH0 PUSH1 0x20 DUP3 ADD SWAP1 POP DUP2 DUP2 SUB PUSH0 DUP4 ADD MSTORE PUSH2 0x51CB DUP2 PUSH2 0x5192 JUMP JUMPDEST SWAP1 POP SWAP2 SWAP1 POP JUMP JUMPDEST PUSH32 0x436F6465206E6F74206163746976650000000000000000000000000000000000 PUSH0 DUP3 ADD MSTORE POP JUMP JUMPDEST PUSH0 PUSH2 0x5206 PUSH1 0xF DUP4 PUSH2 0x3AE4 JUMP JUMPDEST SWAP2 POP PUSH2 0x5211 DUP3 PUSH2 0x51D2 JUMP JUMPDEST PUSH1 0x20 DUP3 ADD SWAP1 POP SWAP2 SWAP1 POP JUMP JUMPDEST PUSH0 PUSH1 0x20 DUP3 ADD SWAP1 POP DUP2 DUP2 SUB PUSH0 DUP4 ADD MSTORE PUSH2 0x5233 DUP2 PUSH2 0x51FA JUMP JUMPDEST SWAP1 POP SWAP2 SWAP1 POP JUMP JUMPDEST PUSH0 PUSH2 0x524C PUSH2 0x5247 DUP5 PUSH2 0x3818 JUMP JUMPDEST PUSH2 0x37FE JUMP JUMPDEST SWAP1 POP DUP3 DUP2 MSTORE PUSH1 0x20 DUP2 ADD DUP5 DUP5 DUP5 ADD GT ISZERO PUSH2 0x5268 JUMPI PUSH2 0x5267 PUSH2 0x378C JUMP JUMPDEST JUMPDEST PUSH2 0x5273 DUP5 DUP3 DUP6 PUSH2 0x3AF4 JUMP JUMPDEST POP SWAP4 SWAP3 POP POP POP JUMP JUMPDEST PUSH0 DUP3 PUSH1 0x1F DUP4 ADD SLT PUSH2 0x528F JUMPI PUSH2 0x528E PUSH2 0x3788 JUMP JUMPDEST JUMPDEST DUP2 MLOAD PUSH2 0x529F DUP5 DUP3 PUSH1 0x20 DUP7 ADD PUSH2 0x523A JUMP JUMPDEST SWAP2 POP POP SWAP3 SWAP2 POP POP JUMP JUMPDEST PUSH0 PUSH1 0x20 DUP3 DUP5 SUB SLT ISZERO PUSH2 0x52BD JUMPI PUSH2 0x52BC PUSH2 0x3686 JUMP JUMPDEST JUMPDEST PUSH0 DUP3 ADD MLOAD PUSH8 0xFFFFFFFFFFFFFFFF DUP2 GT ISZERO PUSH2 0x52DA JUMPI PUSH2 0x52D9 PUSH2 0x368A JUMP JUMPDEST JUMPDEST PUSH2 0x52E6 DUP5 DUP3 DUP6 ADD PUSH2 0x527B JUMP JUMPDEST SWAP2 POP POP SWAP3 SWAP2 POP POP JUMP JUMPDEST PUSH32 0x496E76616C696420746F6B656E20707269636500000000000000000000000000 PUSH0 DUP3 ADD MSTORE POP JUMP JUMPDEST PUSH0 PUSH2 0x5323 PUSH1 0x13 DUP4 PUSH2 0x3AE4 JUMP JUMPDEST SWAP2 POP PUSH2 0x532E DUP3 PUSH2 0x52EF JUMP JUMPDEST PUSH1 0x20 DUP3 ADD SWAP1 POP SWAP2 SWAP1 POP JUMP JUMPDEST PUSH0 PUSH1 0x20 DUP3 ADD SWAP1 POP DUP2 DUP2 SUB PUSH0 DUP4 ADD MSTORE PUSH2 0x5350 DUP2 PUSH2 0x5317 JUMP JUMPDEST SWAP1 POP SWAP2 SWAP1 POP JUMP JUMPDEST PUSH0 PUSH1 0x40 DUP3 ADD SWAP1 POP PUSH2 0x536A PUSH0 DUP4 ADD DUP6 PUSH2 0x3A7E JUMP JUMPDEST PUSH2 0x5377 PUSH1 0x20 DUP4 ADD DUP5 PUSH2 0x371C JUMP JUMPDEST SWAP4 SWAP3 POP POP POP JUMP JUMPDEST PUSH0 PUSH2 0x5388 DUP3 PUSH2 0x3713 JUMP JUMPDEST SWAP2 POP PUSH2 0x5393 DUP4 PUSH2 0x3713 JUMP JUMPDEST SWAP3 POP DUP3 DUP3 SUB SWAP1 POP DUP2 DUP2 GT ISZERO PUSH2 0x53AB JUMPI PUSH2 0x53AA PUSH2 0x4969 JUMP JUMPDEST JUMPDEST SWAP3 SWAP2 POP POP JUMP JUMPDEST PUSH0 DUP2 SWAP1 POP SWAP2 SWAP1 POP JUMP JUMPDEST PUSH2 0x53CB PUSH2 0x53C6 DUP3 PUSH2 0x3713 JUMP JUMPDEST PUSH2 0x53B1 JUMP JUMPDEST DUP3 MSTORE POP POP JUMP JUMPDEST PUSH0 DUP2 PUSH1 0x60 SHL SWAP1 POP SWAP2 SWAP1 POP JUMP JUMPDEST PUSH0 PUSH2 0x53E7 DUP3 PUSH2 0x53D1 JUMP JUMPDEST SWAP1 POP SWAP2 SWAP1 POP JUMP JUMPDEST PUSH0 PUSH2 0x53F8 DUP3 PUSH2 0x53DD JUMP JUMPDEST SWAP1 POP SWAP2 SWAP1 POP JUMP JUMPDEST PUSH2 0x5410 PUSH2 0x540B DUP3 PUSH2 0x36AD JUMP JUMPDEST PUSH2 0x53EE JUMP JUMPDEST DUP3 MSTORE POP POP JUMP JUMPDEST PUSH0 DUP2 SWAP1 POP SWAP2 SWAP1 POP JUMP JUMPDEST PUSH0 DUP2 SWAP1 POP SWAP2 SWAP1 POP JUMP JUMPDEST PUSH2 0x5439 PUSH2 0x5434 DUP3 PUSH2 0x5416 JUMP JUMPDEST PUSH2 0x541F JUMP JUMPDEST DUP3 MSTORE POP POP JUMP JUMPDEST PUSH0 PUSH2 0x544A DUP3 DUP8 PUSH2 0x53BA JUMP JUMPDEST PUSH1 0x20 DUP3 ADD SWAP2 POP PUSH2 0x545A DUP3 DUP7 PUSH2 0x53BA JUMP JUMPDEST PUSH1 0x20 DUP3 ADD SWAP2 POP PUSH2 0x546A DUP3 DUP6 PUSH2 0x53FF JUMP JUMPDEST PUSH1 0x14 DUP3 ADD SWAP2 POP PUSH2 0x547A DUP3 DUP5 PUSH2 0x5428 JUMP JUMPDEST PUSH1 0x20 DUP3 ADD SWAP2 POP DUP2 SWAP1 POP SWAP6 SWAP5 POP POP POP POP POP JUMP JUMPDEST PUSH32 0x4E487B7100000000000000000000000000000000000000000000000000000000 PUSH0 MSTORE PUSH1 0x32 PUSH1 0x4 MSTORE PUSH1 0x24 PUSH0 REVERT JUMPDEST PUSH0 PUSH2 0x54C3 DUP3 PUSH2 0x3AA6 JUMP JUMPDEST SWAP2 POP PUSH2 0x54CE DUP4 PUSH2 0x3AA6 JUMP JUMPDEST SWAP3 POP DUP3 PUSH2 0x54DE JUMPI PUSH2 0x54DD PUSH2 0x493C JUMP JUMPDEST JUMPDEST DUP3 DUP3 MOD SWAP1 POP SWAP3 SWAP2 POP POP JUMP JUMPDEST PUSH0 PUSH2 0x54F3 DUP3 PUSH2 0x3713 JUMP JUMPDEST SWAP2 POP PUSH2 0x54FE DUP4 PUSH2 0x3713 JUMP JUMPDEST SWAP3 POP DUP3 PUSH2 0x550E JUMPI PUSH2 0x550D PUSH2 0x493C JUMP JUMPDEST JUMPDEST DUP3 DUP3 MOD SWAP1 POP SWAP3 SWAP2 POP POP JUMP JUMPDEST PUSH32 0x4D756C7469706C69636174696F6E206F766572666C6F77000000000000000000 PUSH0 DUP3 ADD MSTORE POP JUMP JUMPDEST PUSH0 PUSH2 0x554D PUSH1 0x17 DUP4 PUSH2 0x3AE4 JUMP JUMPDEST SWAP2 POP PUSH2 0x5558 DUP3 PUSH2 0x5519 JUMP JUMPDEST PUSH1 0x20 DUP3 ADD SWAP1 POP SWAP2 SWAP1 POP JUMP JUMPDEST PUSH0 PUSH1 0x20 DUP3 ADD SWAP1 POP DUP2 DUP2 SUB PUSH0 DUP4 ADD MSTORE PUSH2 0x557A DUP2 PUSH2 0x5541 JUMP JUMPDEST SWAP1 POP SWAP2 SWAP1 POP JUMP INVALID COINBASE TIMESTAMP NUMBER PREVRANDAO GASLIMIT CHAINID SELFBALANCE BASEFEE BLOBHASH BLOBBASEFEE 0x4B 0x4C 0x4D 0x4E 0x4F POP MLOAD MSTORE MSTORE8 SLOAD SSTORE JUMP JUMPI PC MSIZE GAS ADDRESS BALANCE ORIGIN CALLER CALLVALUE CALLDATALOAD CALLDATASIZE CALLDATACOPY CODESIZE CODECOPY LOG2 PUSH5 0x6970667358 0x22 SLT KECCAK256 POP 0xE2 PUSH30 0xA69F457660956E41F48F413B7AD611FE7AFF977A7031E6E9C49F6BC02F64 PUSH20 0x6F6C634300081A00330000000000000000000000 "
		},
		"gasEstimates": {
			"creation": {
				"codeDepositCost": "4395800",
				"executionCost": "infinite",
				"totalCost": "infinite"
			},
			"external": {
				"REFERRAL_REWARD_PERCENTAGE()": "370",
				"blacklisted(address)": "2966",
				"buyToken(uint256,string,address)": "infinite",
				"calculateRequiredETH(uint256)": "infinite",
				"currentBuyerCount()": "2514",
				"deactivatePromoCode(string)": "infinite",
				"emergencyWithdraw()": "infinite",
				"generateReferralCode()": "infinite",
				"getPromoCodeInfo(string)": "infinite",
				"getReferralStats(address)": "infinite",
				"getTokenDetails()": "infinite",
				"getUserReferrerInfo(address)": "infinite",
				"minimumPurchaseValue()": "2558",
				"owner()": "2561",
				"paused()": "2512",
				"pendingReferrals(address)": "infinite",
				"promoCodes(string)": "infinite",
				"referralCodeToAddress(string)": "infinite",
				"referrerStats(address)": "infinite",
				"registerReferral(string)": "infinite",
				"renounceOwnership()": "infinite",
				"setBlacklist(address,bool)": "infinite",
				"setMinimumPurchaseValue(uint256)": "infinite",
				"setPromoCode(string,uint256)": "infinite",
				"soldTokens()": "2493",
				"storePendingReferral(string)": "infinite",
				"togglePause()": "infinite",
				"token()": "infinite",
				"tokenDecimals()": "2578",
				"tokenSalePrice()": "2492",
				"transferOwnership(address)": "infinite",
				"updateToken(address)": "infinite",
				"updateTokenSalePrice(uint256)": "infinite",
				"userPromoCodeUsage(address,string)": "infinite",
				"userReferralCode(address)": "infinite",
				"userToReferrer(address)": "infinite",
				"withdrawAllTokens()": "infinite"
			},
			"internal": {
				"generateRandomCode()": "infinite",
				"multiply(uint256,uint256)": "infinite",
				"processReferralRegistration(address,string memory)": "infinite",
				"processReferralReward(address,uint256)": "infinite",
				"toString(uint256)": "infinite"
			}
		},
		"methodIdentifiers": {
			"REFERRAL_REWARD_PERCENTAGE()": "62ffb195",
			"blacklisted(address)": "dbac26e9",
			"buyToken(uint256,string,address)": "b362ba2f",
			"calculateRequiredETH(uint256)": "f7759e85",
			"currentBuyerCount()": "76593d51",
			"deactivatePromoCode(string)": "fd2a81e0",
			"emergencyWithdraw()": "db2e21bc",
			"generateReferralCode()": "b0a2fc1b",
			"getPromoCodeInfo(string)": "d6f904ae",
			"getReferralStats(address)": "21bade13",
			"getTokenDetails()": "ff332ab7",
			"getUserReferrerInfo(address)": "fa770c20",
			"minimumPurchaseValue()": "7ae506ac",
			"owner()": "8da5cb5b",
			"paused()": "5c975abb",
			"pendingReferrals(address)": "3c3c1439",
			"promoCodes(string)": "0b54f998",
			"referralCodeToAddress(string)": "d6f92372",
			"referrerStats(address)": "06280b1a",
			"registerReferral(string)": "ef5a6af0",
			"renounceOwnership()": "715018a6",
			"setBlacklist(address,bool)": "153b0d1e",
			"setMinimumPurchaseValue(uint256)": "c940f60e",
			"setPromoCode(string,uint256)": "1e07ef96",
			"soldTokens()": "5ed9ebfc",
			"storePendingReferral(string)": "5f2130d2",
			"togglePause()": "c4ae3168",
			"token()": "fc0c546a",
			"tokenDecimals()": "3b97e856",
			"tokenSalePrice()": "e86790eb",
			"transferOwnership(address)": "f2fde38b",
			"updateToken(address)": "7ad3def2",
			"updateTokenSalePrice(uint256)": "ffdeb903",
			"userPromoCodeUsage(address,string)": "e5a6d8a4",
			"userReferralCode(address)": "618c506d",
			"userToReferrer(address)": "362b935f",
			"withdrawAllTokens()": "280da6fa"
		}
	},
	"abi": [
		{
			"inputs": [
				{
					"internalType": "address",
					"name": "_tokenAddress",
					"type": "address"
				},
				{
					"internalType": "uint256",
					"name": "_tokenSalePrice",
					"type": "uint256"
				},
				{
					"internalType": "uint256",
					"name": "_minimumPurchaseValue",
					"type": "uint256"
				}
			],
			"stateMutability": "nonpayable",
			"type": "constructor"
		},
		{
			"inputs": [
				{
					"internalType": "address",
					"name": "owner",
					"type": "address"
				}
			],
			"name": "OwnableInvalidOwner",
			"type": "error"
		},
		{
			"inputs": [
				{
					"internalType": "address",
					"name": "account",
					"type": "address"
				}
			],
			"name": "OwnableUnauthorizedAccount",
			"type": "error"
		},
		{
			"inputs": [],
			"name": "ReentrancyGuardReentrantCall",
			"type": "error"
		},
		{
			"inputs": [
				{
					"internalType": "address",
					"name": "token",
					"type": "address"
				}
			],
			"name": "SafeERC20FailedOperation",
			"type": "error"
		},
		{
			"anonymous": false,
			"inputs": [
				{
					"indexed": true,
					"internalType": "address",
					"name": "owner",
					"type": "address"
				},
				{
					"indexed": false,
					"internalType": "uint256",
					"name": "amount",
					"type": "uint256"
				}
			],
			"name": "ETHTransferredToOwner",
			"type": "event"
		},
		{
			"anonymous": false,
			"inputs": [
				{
					"indexed": true,
					"internalType": "address",
					"name": "token",
					"type": "address"
				},
				{
					"indexed": false,
					"internalType": "uint256",
					"name": "amount",
					"type": "uint256"
				}
			],
			"name": "EmergencyWithdraw",
			"type": "event"
		},
		{
			"anonymous": false,
			"inputs": [
				{
					"indexed": false,
					"internalType": "uint256",
					"name": "newValue",
					"type": "uint256"
				}
			],
			"name": "MinimumPurchaseAmountUpdated",
			"type": "event"
		},
		{
			"anonymous": false,
			"inputs": [
				{
					"indexed": true,
					"internalType": "address",
					"name": "previousOwner",
					"type": "address"
				},
				{
					"indexed": true,
					"internalType": "address",
					"name": "newOwner",
					"type": "address"
				}
			],
			"name": "OwnershipTransferred",
			"type": "event"
		},
		{
			"anonymous": false,
			"inputs": [
				{
					"indexed": true,
					"internalType": "address",
					"name": "user",
					"type": "address"
				},
				{
					"indexed": false,
					"internalType": "string",
					"name": "referralCode",
					"type": "string"
				}
			],
			"name": "PendingReferralSet",
			"type": "event"
		},
		{
			"anonymous": false,
			"inputs": [
				{
					"indexed": false,
					"internalType": "string",
					"name": "code",
					"type": "string"
				},
				{
					"indexed": false,
					"internalType": "uint256",
					"name": "bonusPercentage",
					"type": "uint256"
				}
			],
			"name": "PromoCodeCreated",
			"type": "event"
		},
		{
			"anonymous": false,
			"inputs": [
				{
					"indexed": false,
					"internalType": "string",
					"name": "code",
					"type": "string"
				}
			],
			"name": "PromoCodeDeactivated",
			"type": "event"
		},
		{
			"anonymous": false,
			"inputs": [
				{
					"indexed": true,
					"internalType": "address",
					"name": "user",
					"type": "address"
				},
				{
					"indexed": false,
					"internalType": "string",
					"name": "code",
					"type": "string"
				},
				{
					"indexed": false,
					"internalType": "uint256",
					"name": "bonusAmount",
					"type": "uint256"
				}
			],
			"name": "PromoCodeUsed",
			"type": "event"
		},
		{
			"anonymous": false,
			"inputs": [
				{
					"indexed": true,
					"internalType": "address",
					"name": "buyer",
					"type": "address"
				},
				{
					"indexed": false,
					"internalType": "uint256",
					"name": "purchaseAmount",
					"type": "uint256"
				},
				{
					"indexed": false,
					"internalType": "uint256",
					"name": "tokenAmount",
					"type": "uint256"
				},
				{
					"indexed": false,
					"internalType": "uint256",
					"name": "bonusAmount",
					"type": "uint256"
				}
			],
			"name": "PurchaseProcessed",
			"type": "event"
		},
		{
			"anonymous": false,
			"inputs": [
				{
					"indexed": true,
					"internalType": "address",
					"name": "user",
					"type": "address"
				},
				{
					"indexed": false,
					"internalType": "string",
					"name": "referralCode",
					"type": "string"
				}
			],
			"name": "ReferralCodeGenerated",
			"type": "event"
		},
		{
			"anonymous": false,
			"inputs": [
				{
					"indexed": true,
					"internalType": "address",
					"name": "user",
					"type": "address"
				},
				{
					"indexed": true,
					"internalType": "address",
					"name": "referrer",
					"type": "address"
				}
			],
			"name": "ReferralRegistered",
			"type": "event"
		},
		{
			"anonymous": false,
			"inputs": [
				{
					"indexed": true,
					"internalType": "address",
					"name": "referrer",
					"type": "address"
				},
				{
					"indexed": true,
					"internalType": "address",
					"name": "buyer",
					"type": "address"
				},
				{
					"indexed": false,
					"internalType": "uint256",
					"name": "rewardAmount",
					"type": "uint256"
				}
			],
			"name": "ReferralRewarded",
			"type": "event"
		},
		{
			"anonymous": false,
			"inputs": [
				{
					"indexed": true,
					"internalType": "address",
					"name": "newTokenAddress",
					"type": "address"
				}
			],
			"name": "TokenAddressUpdated",
			"type": "event"
		},
		{
			"anonymous": false,
			"inputs": [
				{
					"indexed": false,
					"internalType": "uint256",
					"name": "newPrice",
					"type": "uint256"
				}
			],
			"name": "TokenSalePriceUpdated",
			"type": "event"
		},
		{
			"anonymous": false,
			"inputs": [
				{
					"indexed": false,
					"internalType": "uint256",
					"name": "amount",
					"type": "uint256"
				}
			],
			"name": "TokensWithdrawn",
			"type": "event"
		},
		{
			"anonymous": false,
			"inputs": [
				{
					"indexed": true,
					"internalType": "address",
					"name": "user",
					"type": "address"
				},
				{
					"indexed": false,
					"internalType": "bool",
					"name": "status",
					"type": "bool"
				}
			],
			"name": "UserBlacklisted",
			"type": "event"
		},
		{
			"anonymous": false,
			"inputs": [
				{
					"indexed": false,
					"internalType": "uint256",
					"name": "_amount",
					"type": "uint256"
				}
			],
			"name": "rewardedAmount",
			"type": "event"
		},
		{
			"anonymous": false,
			"inputs": [
				{
					"indexed": false,
					"internalType": "uint256",
					"name": "_amount",
					"type": "uint256"
				}
			],
			"name": "scalededAmount",
			"type": "event"
		},
		{
			"inputs": [],
			"name": "REFERRAL_REWARD_PERCENTAGE",
			"outputs": [
				{
					"internalType": "uint256",
					"name": "",
					"type": "uint256"
				}
			],
			"stateMutability": "view",
			"type": "function"
		},
		{
			"inputs": [
				{
					"internalType": "address",
					"name": "",
					"type": "address"
				}
			],
			"name": "blacklisted",
			"outputs": [
				{
					"internalType": "bool",
					"name": "",
					"type": "bool"
				}
			],
			"stateMutability": "view",
			"type": "function"
		},
		{
			"inputs": [
				{
					"internalType": "uint256",
					"name": "tokenAmount",
					"type": "uint256"
				},
				{
					"internalType": "string",
					"name": "promoCode",
					"type": "string"
				},
				{
					"internalType": "address",
					"name": "referrer",
					"type": "address"
				}
			],
			"name": "buyToken",
			"outputs": [],
			"stateMutability": "payable",
			"type": "function"
		},
		{
			"inputs": [
				{
					"internalType": "uint256",
					"name": "tokenAmount",
					"type": "uint256"
				}
			],
			"name": "calculateRequiredETH",
			"outputs": [
				{
					"internalType": "uint256",
					"name": "",
					"type": "uint256"
				}
			],
			"stateMutability": "view",
			"type": "function"
		},
		{
			"inputs": [],
			"name": "currentBuyerCount",
			"outputs": [
				{
					"internalType": "uint256",
					"name": "",
					"type": "uint256"
				}
			],
			"stateMutability": "view",
			"type": "function"
		},
		{
			"inputs": [
				{
					"internalType": "string",
					"name": "code",
					"type": "string"
				}
			],
			"name": "deactivatePromoCode",
			"outputs": [],
			"stateMutability": "nonpayable",
			"type": "function"
		},
		{
			"inputs": [],
			"name": "emergencyWithdraw",
			"outputs": [],
			"stateMutability": "nonpayable",
			"type": "function"
		},
		{
			"inputs": [],
			"name": "generateReferralCode",
			"outputs": [],
			"stateMutability": "nonpayable",
			"type": "function"
		},
		{
			"inputs": [
				{
					"internalType": "string",
					"name": "code",
					"type": "string"
				}
			],
			"name": "getPromoCodeInfo",
			"outputs": [
				{
					"internalType": "bool",
					"name": "isValid",
					"type": "bool"
				},
				{
					"internalType": "uint256",
					"name": "bonusPercentage",
					"type": "uint256"
				}
			],
			"stateMutability": "view",
			"type": "function"
		},
		{
			"inputs": [
				{
					"internalType": "address",
					"name": "referrer",
					"type": "address"
				}
			],
			"name": "getReferralStats",
			"outputs": [
				{
					"internalType": "uint256",
					"name": "totalReferrals",
					"type": "uint256"
				},
				{
					"internalType": "uint256",
					"name": "totalRewards",
					"type": "uint256"
				},
				{
					"internalType": "uint256",
					"name": "totalVolume",
					"type": "uint256"
				},
				{
					"internalType": "bool",
					"name": "isActive",
					"type": "bool"
				}
			],
			"stateMutability": "view",
			"type": "function"
		},
		{
			"inputs": [],
			"name": "getTokenDetails",
			"outputs": [
				{
					"internalType": "string",
					"name": "name",
					"type": "string"
				},
				{
					"internalType": "string",
					"name": "symbol",
					"type": "string"
				},
				{
					"internalType": "uint256",
					"name": "balance",
					"type": "uint256"
				},
				{
					"internalType": "uint256",
					"name": "supply",
					"type": "uint256"
				},
				{
					"internalType": "uint256",
					"name": "price",
					"type": "uint256"
				},
				{
					"internalType": "address",
					"name": "tokenAddr",
					"type": "address"
				},
				{
					"internalType": "uint8",
					"name": "decimals",
					"type": "uint8"
				},
				{
					"internalType": "uint256",
					"name": "minPurchase",
					"type": "uint256"
				}
			],
			"stateMutability": "view",
			"type": "function"
		},
		{
			"inputs": [
				{
					"internalType": "address",
					"name": "user",
					"type": "address"
				}
			],
			"name": "getUserReferrerInfo",
			"outputs": [
				{
					"internalType": "address",
					"name": "referrer",
					"type": "address"
				},
				{
					"internalType": "string",
					"name": "pendingReferralCode",
					"type": "string"
				}
			],
			"stateMutability": "view",
			"type": "function"
		},
		{
			"inputs": [],
			"name": "minimumPurchaseValue",
			"outputs": [
				{
					"internalType": "uint256",
					"name": "",
					"type": "uint256"
				}
			],
			"stateMutability": "view",
			"type": "function"
		},
		{
			"inputs": [],
			"name": "owner",
			"outputs": [
				{
					"internalType": "address",
					"name": "",
					"type": "address"
				}
			],
			"stateMutability": "view",
			"type": "function"
		},
		{
			"inputs": [],
			"name": "paused",
			"outputs": [
				{
					"internalType": "bool",
					"name": "",
					"type": "bool"
				}
			],
			"stateMutability": "view",
			"type": "function"
		},
		{
			"inputs": [
				{
					"internalType": "address",
					"name": "",
					"type": "address"
				}
			],
			"name": "pendingReferrals",
			"outputs": [
				{
					"internalType": "string",
					"name": "",
					"type": "string"
				}
			],
			"stateMutability": "view",
			"type": "function"
		},
		{
			"inputs": [
				{
					"internalType": "string",
					"name": "",
					"type": "string"
				}
			],
			"name": "promoCodes",
			"outputs": [
				{
					"internalType": "uint256",
					"name": "bonusPercentage",
					"type": "uint256"
				},
				{
					"internalType": "bool",
					"name": "isActive",
					"type": "bool"
				}
			],
			"stateMutability": "view",
			"type": "function"
		},
		{
			"inputs": [
				{
					"internalType": "string",
					"name": "",
					"type": "string"
				}
			],
			"name": "referralCodeToAddress",
			"outputs": [
				{
					"internalType": "address",
					"name": "",
					"type": "address"
				}
			],
			"stateMutability": "view",
			"type": "function"
		},
		{
			"inputs": [
				{
					"internalType": "address",
					"name": "",
					"type": "address"
				}
			],
			"name": "referrerStats",
			"outputs": [
				{
					"internalType": "uint256",
					"name": "totalReferrals",
					"type": "uint256"
				},
				{
					"internalType": "uint256",
					"name": "totalRewards",
					"type": "uint256"
				},
				{
					"internalType": "uint256",
					"name": "totalVolume",
					"type": "uint256"
				},
				{
					"internalType": "bool",
					"name": "isActiveReferrer",
					"type": "bool"
				}
			],
			"stateMutability": "view",
			"type": "function"
		},
		{
			"inputs": [
				{
					"internalType": "string",
					"name": "referralCode",
					"type": "string"
				}
			],
			"name": "registerReferral",
			"outputs": [],
			"stateMutability": "nonpayable",
			"type": "function"
		},
		{
			"inputs": [],
			"name": "renounceOwnership",
			"outputs": [],
			"stateMutability": "nonpayable",
			"type": "function"
		},
		{
			"inputs": [
				{
					"internalType": "address",
					"name": "user",
					"type": "address"
				},
				{
					"internalType": "bool",
					"name": "status",
					"type": "bool"
				}
			],
			"name": "setBlacklist",
			"outputs": [],
			"stateMutability": "nonpayable",
			"type": "function"
		},
		{
			"inputs": [
				{
					"internalType": "uint256",
					"name": "newValue",
					"type": "uint256"
				}
			],
			"name": "setMinimumPurchaseValue",
			"outputs": [],
			"stateMutability": "nonpayable",
			"type": "function"
		},
		{
			"inputs": [
				{
					"internalType": "string",
					"name": "code",
					"type": "string"
				},
				{
					"internalType": "uint256",
					"name": "bonusPercentage",
					"type": "uint256"
				}
			],
			"name": "setPromoCode",
			"outputs": [],
			"stateMutability": "nonpayable",
			"type": "function"
		},
		{
			"inputs": [],
			"name": "soldTokens",
			"outputs": [
				{
					"internalType": "uint256",
					"name": "",
					"type": "uint256"
				}
			],
			"stateMutability": "view",
			"type": "function"
		},
		{
			"inputs": [
				{
					"internalType": "string",
					"name": "referralCode",
					"type": "string"
				}
			],
			"name": "storePendingReferral",
			"outputs": [],
			"stateMutability": "nonpayable",
			"type": "function"
		},
		{
			"inputs": [],
			"name": "togglePause",
			"outputs": [],
			"stateMutability": "nonpayable",
			"type": "function"
		},
		{
			"inputs": [],
			"name": "token",
			"outputs": [
				{
					"internalType": "contract ERC20",
					"name": "",
					"type": "address"
				}
			],
			"stateMutability": "view",
			"type": "function"
		},
		{
			"inputs": [],
			"name": "tokenDecimals",
			"outputs": [
				{
					"internalType": "uint8",
					"name": "",
					"type": "uint8"
				}
			],
			"stateMutability": "view",
			"type": "function"
		},
		{
			"inputs": [],
			"name": "tokenSalePrice",
			"outputs": [
				{
					"internalType": "uint256",
					"name": "",
					"type": "uint256"
				}
			],
			"stateMutability": "view",
			"type": "function"
		},
		{
			"inputs": [
				{
					"internalType": "address",
					"name": "newOwner",
					"type": "address"
				}
			],
			"name": "transferOwnership",
			"outputs": [],
			"stateMutability": "nonpayable",
			"type": "function"
		},
		{
			"inputs": [
				{
					"internalType": "address",
					"name": "_tokenAddress",
					"type": "address"
				}
			],
			"name": "updateToken",
			"outputs": [],
			"stateMutability": "nonpayable",
			"type": "function"
		},
		{
			"inputs": [
				{
					"internalType": "uint256",
					"name": "_tokenSalePrice",
					"type": "uint256"
				}
			],
			"name": "updateTokenSalePrice",
			"outputs": [],
			"stateMutability": "nonpayable",
			"type": "function"
		},
		{
			"inputs": [
				{
					"internalType": "address",
					"name": "",
					"type": "address"
				},
				{
					"internalType": "string",
					"name": "",
					"type": "string"
				}
			],
			"name": "userPromoCodeUsage",
			"outputs": [
				{
					"internalType": "bool",
					"name": "",
					"type": "bool"
				}
			],
			"stateMutability": "view",
			"type": "function"
		},
		{
			"inputs": [
				{
					"internalType": "address",
					"name": "",
					"type": "address"
				}
			],
			"name": "userReferralCode",
			"outputs": [
				{
					"internalType": "string",
					"name": "",
					"type": "string"
				}
			],
			"stateMutability": "view",
			"type": "function"
		},
		{
			"inputs": [
				{
					"internalType": "address",
					"name": "",
					"type": "address"
				}
			],
			"name": "userToReferrer",
			"outputs": [
				{
					"internalType": "address",
					"name": "",
					"type": "address"
				}
			],
			"stateMutability": "view",
			"type": "function"
		},
		{
			"inputs": [],
			"name": "withdrawAllTokens",
			"outputs": [],
			"stateMutability": "nonpayable",
			"type": "function"
		},
		{
			"stateMutability": "payable",
			"type": "receive"
		}
	]
}